{
  "_format": "hh-sol-artifact-1",
  "contractName": "Identity",
  "sourceName": "contracts/ONCHAINID/Identity.sol",
  "abi": [
    {
      "inputs": [
        {
          "internalType": "address",
          "name": "initialManagementKey",
          "type": "address"
        },
        {
          "internalType": "bool",
          "name": "_isLibrary",
          "type": "bool"
        }
      ],
      "stateMutability": "nonpayable",
      "type": "constructor"
    },
    {
      "anonymous": false,
      "inputs": [
        {
          "indexed": true,
          "internalType": "uint256",
          "name": "executionId",
          "type": "uint256"
        },
        {
          "indexed": false,
          "internalType": "bool",
          "name": "approved",
          "type": "bool"
        }
      ],
      "name": "Approved",
      "type": "event"
    },
    {
      "anonymous": false,
      "inputs": [
        {
          "indexed": true,
          "internalType": "bytes32",
          "name": "claimId",
          "type": "bytes32"
        },
        {
          "indexed": true,
          "internalType": "uint256",
          "name": "topic",
          "type": "uint256"
        },
        {
          "indexed": false,
          "internalType": "uint256",
          "name": "scheme",
          "type": "uint256"
        },
        {
          "indexed": true,
          "internalType": "address",
          "name": "issuer",
          "type": "address"
        },
        {
          "indexed": false,
          "internalType": "bytes",
          "name": "signature",
          "type": "bytes"
        },
        {
          "indexed": false,
          "internalType": "bytes",
          "name": "data",
          "type": "bytes"
        },
        {
          "indexed": false,
          "internalType": "string",
          "name": "uri",
          "type": "string"
        }
      ],
      "name": "ClaimAdded",
      "type": "event"
    },
    {
      "anonymous": false,
      "inputs": [
        {
          "indexed": true,
          "internalType": "bytes32",
          "name": "claimId",
          "type": "bytes32"
        },
        {
          "indexed": true,
          "internalType": "uint256",
          "name": "topic",
          "type": "uint256"
        },
        {
          "indexed": false,
          "internalType": "uint256",
          "name": "scheme",
          "type": "uint256"
        },
        {
          "indexed": true,
          "internalType": "address",
          "name": "issuer",
          "type": "address"
        },
        {
          "indexed": false,
          "internalType": "bytes",
          "name": "signature",
          "type": "bytes"
        },
        {
          "indexed": false,
          "internalType": "bytes",
          "name": "data",
          "type": "bytes"
        },
        {
          "indexed": false,
          "internalType": "string",
          "name": "uri",
          "type": "string"
        }
      ],
      "name": "ClaimChanged",
      "type": "event"
    },
    {
      "anonymous": false,
      "inputs": [
        {
          "indexed": true,
          "internalType": "bytes32",
          "name": "claimId",
          "type": "bytes32"
        },
        {
          "indexed": true,
          "internalType": "uint256",
          "name": "topic",
          "type": "uint256"
        },
        {
          "indexed": false,
          "internalType": "uint256",
          "name": "scheme",
          "type": "uint256"
        },
        {
          "indexed": true,
          "internalType": "address",
          "name": "issuer",
          "type": "address"
        },
        {
          "indexed": false,
          "internalType": "bytes",
          "name": "signature",
          "type": "bytes"
        },
        {
          "indexed": false,
          "internalType": "bytes",
          "name": "data",
          "type": "bytes"
        },
        {
          "indexed": false,
          "internalType": "string",
          "name": "uri",
          "type": "string"
        }
      ],
      "name": "ClaimRemoved",
      "type": "event"
    },
    {
      "anonymous": false,
      "inputs": [
        {
          "indexed": true,
          "internalType": "uint256",
          "name": "executionId",
          "type": "uint256"
        },
        {
          "indexed": true,
          "internalType": "address",
          "name": "to",
          "type": "address"
        },
        {
          "indexed": true,
          "internalType": "uint256",
          "name": "value",
          "type": "uint256"
        },
        {
          "indexed": false,
          "internalType": "bytes",
          "name": "data",
          "type": "bytes"
        }
      ],
      "name": "Executed",
      "type": "event"
    },
    {
      "anonymous": false,
      "inputs": [
        {
          "indexed": true,
          "internalType": "uint256",
          "name": "executionId",
          "type": "uint256"
        },
        {
          "indexed": true,
          "internalType": "address",
          "name": "to",
          "type": "address"
        },
        {
          "indexed": true,
          "internalType": "uint256",
          "name": "value",
          "type": "uint256"
        },
        {
          "indexed": false,
          "internalType": "bytes",
          "name": "data",
          "type": "bytes"
        }
      ],
      "name": "ExecutionFailed",
      "type": "event"
    },
    {
      "anonymous": false,
      "inputs": [
        {
          "indexed": true,
          "internalType": "uint256",
          "name": "executionId",
          "type": "uint256"
        },
        {
          "indexed": true,
          "internalType": "address",
          "name": "to",
          "type": "address"
        },
        {
          "indexed": true,
          "internalType": "uint256",
          "name": "value",
          "type": "uint256"
        },
        {
          "indexed": false,
          "internalType": "bytes",
          "name": "data",
          "type": "bytes"
        }
      ],
      "name": "ExecutionRequested",
      "type": "event"
    },
    {
      "anonymous": false,
      "inputs": [
        {
          "indexed": true,
          "internalType": "bytes32",
          "name": "key",
          "type": "bytes32"
        },
        {
          "indexed": true,
          "internalType": "uint256",
          "name": "purpose",
          "type": "uint256"
        },
        {
          "indexed": true,
          "internalType": "uint256",
          "name": "keyType",
          "type": "uint256"
        }
      ],
      "name": "KeyAdded",
      "type": "event"
    },
    {
      "anonymous": false,
      "inputs": [
        {
          "indexed": true,
          "internalType": "bytes32",
          "name": "key",
          "type": "bytes32"
        },
        {
          "indexed": true,
          "internalType": "uint256",
          "name": "purpose",
          "type": "uint256"
        },
        {
          "indexed": true,
          "internalType": "uint256",
          "name": "keyType",
          "type": "uint256"
        }
      ],
      "name": "KeyRemoved",
      "type": "event"
    },
    {
      "inputs": [
        {
          "internalType": "uint256",
          "name": "_topic",
          "type": "uint256"
        },
        {
          "internalType": "uint256",
          "name": "_scheme",
          "type": "uint256"
        },
        {
          "internalType": "address",
          "name": "_issuer",
          "type": "address"
        },
        {
          "internalType": "bytes",
          "name": "_signature",
          "type": "bytes"
        },
        {
          "internalType": "bytes",
          "name": "_data",
          "type": "bytes"
        },
        {
          "internalType": "string",
          "name": "_uri",
          "type": "string"
        }
      ],
      "name": "addClaim",
      "outputs": [
        {
          "internalType": "bytes32",
          "name": "claimRequestId",
          "type": "bytes32"
        }
      ],
      "stateMutability": "nonpayable",
      "type": "function"
    },
    {
      "inputs": [
        {
          "internalType": "bytes32",
          "name": "_key",
          "type": "bytes32"
        },
        {
          "internalType": "uint256",
          "name": "_purpose",
          "type": "uint256"
        },
        {
          "internalType": "uint256",
          "name": "_type",
          "type": "uint256"
        }
      ],
      "name": "addKey",
      "outputs": [
        {
          "internalType": "bool",
          "name": "success",
          "type": "bool"
        }
      ],
      "stateMutability": "nonpayable",
      "type": "function"
    },
    {
      "inputs": [
        {
          "internalType": "uint256",
          "name": "_id",
          "type": "uint256"
        },
        {
          "internalType": "bool",
          "name": "_approve",
          "type": "bool"
        }
      ],
      "name": "approve",
      "outputs": [
        {
          "internalType": "bool",
          "name": "success",
          "type": "bool"
        }
      ],
      "stateMutability": "nonpayable",
      "type": "function"
    },
    {
      "inputs": [
        {
          "internalType": "address",
          "name": "_to",
          "type": "address"
        },
        {
          "internalType": "uint256",
          "name": "_value",
          "type": "uint256"
        },
        {
          "internalType": "bytes",
          "name": "_data",
          "type": "bytes"
        }
      ],
      "name": "execute",
      "outputs": [
        {
          "internalType": "uint256",
          "name": "executionId",
          "type": "uint256"
        }
      ],
      "stateMutability": "payable",
      "type": "function"
    },
    {
      "inputs": [
        {
          "internalType": "bytes32",
          "name": "_claimId",
          "type": "bytes32"
        }
      ],
      "name": "getClaim",
      "outputs": [
        {
          "internalType": "uint256",
          "name": "topic",
          "type": "uint256"
        },
        {
          "internalType": "uint256",
          "name": "scheme",
          "type": "uint256"
        },
        {
          "internalType": "address",
          "name": "issuer",
          "type": "address"
        },
        {
          "internalType": "bytes",
          "name": "signature",
          "type": "bytes"
        },
        {
          "internalType": "bytes",
          "name": "data",
          "type": "bytes"
        },
        {
          "internalType": "string",
          "name": "uri",
          "type": "string"
        }
      ],
      "stateMutability": "view",
      "type": "function"
    },
    {
      "inputs": [
        {
          "internalType": "uint256",
          "name": "_topic",
          "type": "uint256"
        }
      ],
      "name": "getClaimIdsByTopic",
      "outputs": [
        {
          "internalType": "bytes32[]",
          "name": "claimIds",
          "type": "bytes32[]"
        }
      ],
      "stateMutability": "view",
      "type": "function"
    },
    {
      "inputs": [
        {
          "internalType": "bytes32",
          "name": "_key",
          "type": "bytes32"
        }
      ],
      "name": "getKey",
      "outputs": [
        {
          "internalType": "uint256[]",
          "name": "purposes",
          "type": "uint256[]"
        },
        {
          "internalType": "uint256",
          "name": "keyType",
          "type": "uint256"
        },
        {
          "internalType": "bytes32",
          "name": "key",
          "type": "bytes32"
        }
      ],
      "stateMutability": "view",
      "type": "function"
    },
    {
      "inputs": [
        {
          "internalType": "bytes32",
          "name": "_key",
          "type": "bytes32"
        }
      ],
      "name": "getKeyPurposes",
      "outputs": [
        {
          "internalType": "uint256[]",
          "name": "_purposes",
          "type": "uint256[]"
        }
      ],
      "stateMutability": "view",
      "type": "function"
    },
    {
      "inputs": [
        {
          "internalType": "uint256",
          "name": "_purpose",
          "type": "uint256"
        }
      ],
      "name": "getKeysByPurpose",
      "outputs": [
        {
          "internalType": "bytes32[]",
          "name": "keys",
          "type": "bytes32[]"
        }
      ],
      "stateMutability": "view",
      "type": "function"
    },
    {
      "inputs": [
        {
          "internalType": "bytes",
          "name": "sig",
          "type": "bytes"
        },
        {
          "internalType": "bytes32",
          "name": "dataHash",
          "type": "bytes32"
        }
      ],
      "name": "getRecoveredAddress",
      "outputs": [
        {
          "internalType": "address",
          "name": "addr",
          "type": "address"
        }
      ],
      "stateMutability": "pure",
      "type": "function"
    },
    {
      "inputs": [
        {
          "internalType": "address",
          "name": "initialManagementKey",
          "type": "address"
        }
      ],
      "name": "initialize",
      "outputs": [],
      "stateMutability": "nonpayable",
      "type": "function"
    },
    {
      "inputs": [
        {
          "internalType": "contract IIdentity",
          "name": "_identity",
          "type": "address"
        },
        {
          "internalType": "uint256",
          "name": "claimTopic",
          "type": "uint256"
        },
        {
          "internalType": "bytes",
          "name": "sig",
          "type": "bytes"
        },
        {
          "internalType": "bytes",
          "name": "data",
          "type": "bytes"
        }
      ],
      "name": "isClaimValid",
      "outputs": [
        {
          "internalType": "bool",
          "name": "claimValid",
          "type": "bool"
        }
      ],
      "stateMutability": "view",
      "type": "function"
    },
    {
      "inputs": [
        {
          "internalType": "bytes32",
          "name": "_key",
          "type": "bytes32"
        },
        {
          "internalType": "uint256",
          "name": "_purpose",
          "type": "uint256"
        }
      ],
      "name": "keyHasPurpose",
      "outputs": [
        {
          "internalType": "bool",
          "name": "result",
          "type": "bool"
        }
      ],
      "stateMutability": "view",
      "type": "function"
    },
    {
      "inputs": [
        {
          "internalType": "bytes32",
          "name": "_claimId",
          "type": "bytes32"
        }
      ],
      "name": "removeClaim",
      "outputs": [
        {
          "internalType": "bool",
          "name": "success",
          "type": "bool"
        }
      ],
      "stateMutability": "nonpayable",
      "type": "function"
    },
    {
      "inputs": [
        {
          "internalType": "bytes32",
          "name": "_key",
          "type": "bytes32"
        },
        {
          "internalType": "uint256",
          "name": "_purpose",
          "type": "uint256"
        }
      ],
      "name": "removeKey",
      "outputs": [
        {
          "internalType": "bool",
          "name": "success",
          "type": "bool"
        }
      ],
      "stateMutability": "nonpayable",
      "type": "function"
    },
    {
      "inputs": [],
      "name": "version",
      "outputs": [
        {
          "internalType": "string",
          "name": "",
          "type": "string"
        }
      ],
      "stateMutability": "pure",
      "type": "function"
    }
  ],
  "bytecode": "0x60806040526007805461ffff191690553480156200001c57600080fd5b5060405162002b8c38038062002b8c8339810160408190526200003f916200029f565b6001600160a01b0382166200009b5760405162461bcd60e51b815260206004820152601f60248201527f696e76616c696420617267756d656e74202d207a65726f20616464726573730060448201526064015b60405180910390fd5b80620000b257620000ac82620000c8565b620000c0565b6007805460ff191660011790555b5050620002ed565b60075460ff161580620000da5750303b155b620001285760405162461bcd60e51b815260206004820152601e60248201527f496e697469616c206b65792077617320616c72656164792073657475702e0000604482015260640162000092565b6007805461ffff1916610101179055604080516001600160a01b03831660208201526000910160408051601f19818403018152828252805160209182012060008181526001808452848220600281018490558685019095528086529082905291829052935062000199929062000233565b506000818152600160208181526040808420830183905560029091527fe90b7bceb6e7df5418fb78d8ee546e97c83a08bbccc01a0644d599ccd2a7c2e0805480840182559084527f7fef4bf8f63cf9dd467136c679c02b5c17fcf6322d9562512bf5eb952cf7cc5301849055519091829184917f480000bb1edad8ca1470381cc334b1917fbd51c6531f3a623ea8e0ec7e38a6e991a45050565b82805482825590600052602060002090810192821562000276579160200282015b8281111562000276578251829060ff1690559160200191906001019062000254565b506200028492915062000288565b5090565b5b8082111562000284576000815560010162000289565b60008060408385031215620002b357600080fd5b82516001600160a01b0381168114620002cb57600080fd5b60208401519092508015158114620002e257600080fd5b809150509250929050565b61288f80620002fd6000396000f3fe6080604052600436106100f35760003560e01c8063b1a34e0d1161008a578063c4d66de811610059578063c4d66de8146102da578063c9100bcb146102fc578063d202158d1461032e578063fb307b341461034e57600080fd5b8063b1a34e0d14610241578063b61d27f61461026f578063c0969a6e14610282578063c3b129e3146102a257600080fd5b806354fd4d50116100c657806354fd4d50146101a0578063747442d3146101d457806380e9e9e1146101f45780639010f7261461022157600080fd5b806312aaac70146100f85780631d381240146101305780634eee424a1461016057806353d413c514610180575b600080fd5b34801561010457600080fd5b50610118610113366004611eb1565b61037b565b60405161012793929190611f05565b60405180910390f35b34801561013c57600080fd5b5061015061014b366004611f2a565b6103f4565b6040519015158152602001610127565b34801561016c57600080fd5b5061015061017b366004611eb1565b610657565b34801561018c57600080fd5b5061015061019b366004611f56565b6109d0565b3480156101ac57600080fd5b506040805180820182526005815264322e322e3160d81b602082015290516101279190611fbe565b3480156101e057600080fd5b506101506101ef366004611fe6565b610dc0565b34801561020057600080fd5b5061021461020f366004611eb1565b61119d565b6040516101279190612016565b34801561022d57600080fd5b5061021461023c366004611eb1565b61125d565b34801561024d57600080fd5b5061026161025c36600461211b565b6112bd565b604051908152602001610127565b61026161027d3660046121dc565b6115bb565b34801561028e57600080fd5b5061015061029d366004612235565b6116ed565b3480156102ae57600080fd5b506102c26102bd3660046122b5565b6117de565b6040516001600160a01b039091168152602001610127565b3480156102e657600080fd5b506102fa6102f53660046122fa565b61188f565b005b34801561030857600080fd5b5061031c610317366004611eb1565b6118f1565b60405161012796959493929190612317565b34801561033a57600080fd5b50610150610349366004611f56565b611af2565b34801561035a57600080fd5b5061036e610369366004611eb1565b611bf3565b6040516101279190612377565b6000818152600160208181526040808420928301546002840154845483518186028101860190945280845260609695869590949185918301828280156103e057602002820191906000526020600020905b8154815260200190600101908083116103cc575b505050505092509250925092509193909250565b60075460009060ff61010090910416151560011461042d5760405162461bcd60e51b81526004016104249061238a565b60405180910390fd5b3330148061046357506040805133602082015261046391015b604051602081830303815290604052805190602001206001611af2565b61047f5760405162461bcd60e51b8152600401610424906123dd565b6000848152600160205260409020600201548490036105b2576000848152600160209081526040808320805482518185028101850190935280835291929091908301828280156104ee57602002820191906000526020600020905b8154815260200190600101908083116104da575b5050505050905060005b815181101561058b5760008282815181106105155761051561242d565b602002602001015190508581036105785760405162461bcd60e51b815260206004820152602160248201527f436f6e666c6963743a204b657920616c72656164792068617320707572706f736044820152606560f81b6064820152608401610424565b508061058381612459565b9150506104f8565b505060008481526001602081815260408320805492830181558352909120018390556105fe565b600084815260016020818152604080842060028101899055815180840190925287825293889052908290526105e79291611db9565b506000848152600160208190526040909120018290555b60008381526002602090815260408083208054600181018255908452918320909101869055518391859187917f480000bb1edad8ca1470381cc334b1917fbd51c6531f3a623ea8e0ec7e38a6e991a45060019392505050565b60075460009060ff6101009091041615156001146106875760405162461bcd60e51b81526004016104249061238a565b333014806106bd5750604080513360208201526106bd91015b604051602081830303815290604052805190602001206003611af2565b6106d95760405162461bcd60e51b815260040161042490612472565b6000828152600460205260408120549081900361074c5760405162461bcd60e51b815260206004820152602b60248201527f4e6f6e4578697374696e673a205468657265206973206e6f20636c61696d207760448201526a1a5d1a081d1a1a5cc8125160aa1b6064820152608401610424565b6000818152600660205260408120545b600083815260066020526040902080548691908490811061077f5761077f61242d565b9060005260206000200154146107a4578161079981612459565b92505080821061075c575b60008381526006602052604090206107bd6001836124c4565b815481106107cd576107cd61242d565b90600052602060002001546006600085815260200190815260200160002083815481106107fc576107fc61242d565b90600052602060002001819055506006600084815260200190815260200160002080548061082c5761082c6124d7565b6000828152602080822083016000199081018390559092019092558682526004908190526040918290206002810154600182015493516001600160a01b039091169387938a937f3cf57863a89432c61c4a27073c6ee39e8a764bff5a05aebfbcdcdc80b2e6130a936108ad93926003830192908101916005909101906125a4565b60405180910390a46000858152600460205260408120818155600181018290556002810180546001600160a01b0319169055906108ed6003830182611e04565b6108fb600483016000611e04565b610909600583016000611e04565b505060005b6005548110156109c457856005828154811061092c5761092c61242d565b9060005260206000200154036109b2576005805461094c906001906124c4565b8154811061095c5761095c61242d565b90600052602060002001546005828154811061097a5761097a61242d565b6000918252602090912001556005805480610997576109976124d7565b600190038181906000526020600020016000905590556109c4565b806109bc81612459565b91505061090e565b50600195945050505050565b60075460009060ff610100909104161515600114610a005760405162461bcd60e51b81526004016104249061238a565b33301480610a1d575060408051336020820152610a1d9101610446565b610a395760405162461bcd60e51b8152600401610424906123dd565b6000838152600160205260409020600201548314610aa35760405162461bcd60e51b815260206004820152602160248201527f4e6f6e4578697374696e673a204b65792069736e2774207265676973746572656044820152601960fa1b6064820152608401610424565b600083815260016020908152604080832080548251818502810185019093528083529192909190830182828015610af957602002820191906000526020600020905b815481526020019060010190808311610ae5575b5050505050905060005b83828281518110610b1657610b1661242d565b602002602001015114610b985780610b2d81612459565b91505081518103610b935760405162461bcd60e51b815260206004820152602a60248201527f4e6f6e4578697374696e673a204b657920646f65736e27742068617665207375604482015269636820707572706f736560b01b6064820152608401610424565b610b03565b8160018351610ba791906124c4565b81518110610bb757610bb761242d565b6020026020010151828281518110610bd157610bd161242d565b602090810291909101810191909152600086815260018252604090208351610bfb92850190611db9565b506000858152600160205260409020805480610c1957610c196124d7565b6000828152602080822083016000199081018390559092019092558582526002905260408120545b6000868152600260205260409020805488919084908110610c6457610c6461242d565b906000526020600020015414610c895781610c7e81612459565b925050808210610c41575b6000868152600260205260409020610ca26001836124c4565b81548110610cb257610cb261242d565b9060005260206000200154600260008881526020019081526020016000208381548110610ce157610ce161242d565b906000526020600020018190555060026000878152602001908152602001600020805480610d1157610d116124d7565b6001900381819060005260206000200160009055905560006001600089815260200190815260200160002060010154905060018551610d5091906124c4565b600003610d8157600088815260016020526040812090610d708282611e3e565b506000600182018190556002909101555b8087897f585a4aef50f8267a92b32412b331b20f7f8b96f2245b253b9cc50dcc621d339760405160405180910390a46001955050505050505b92915050565b60075460009060ff610100909104161515600114610df05760405162461bcd60e51b81526004016104249061238a565b6000548310610e515760405162461bcd60e51b815260206004820152602760248201527f43616e6e6f7420617070726f76652061206e6f6e2d6578697374696e6720657860448201526632b1baba34b7b760c91b6064820152608401610424565b60008381526003602081905260409091200154610100900460ff1615610eb95760405162461bcd60e51b815260206004820152601860248201527f5265717565737420616c726561647920657865637574656400000000000000006044820152606401610424565b600083815260036020526040902054306001600160a01b0390911603610f4a5760408051336020820152610eed9101610446565b610f455760405162461bcd60e51b815260206004820152602360248201527f53656e64657220646f6573206e6f742068617665206d616e6167656d656e74206044820152626b657960e81b6064820152608401610424565b610fc3565b60408051336020820152610f7791015b604051602081830303815290604052805190602001206002611af2565b610fc35760405162461bcd60e51b815260206004820152601f60248201527f53656e64657220646f6573206e6f74206861766520616374696f6e206b6579006044820152606401610424565b827fb3932da477fe5d6c8ff2eafef050c0f3a1af18fc07121001482600f36f3715d883604051610ff7911515815260200190565b60405180910390a281151560010361117f57600083815260036020819052604091829020908101805460ff1916600190811790915581549082015492516001600160a01b039091169291611050916002909101906125e3565b60006040518083038185875af1925050503d806000811461108d576040519150601f19603f3d011682016040523d82523d6000602084013e611092565b606091505b5090915050801561111757600083815260036020819052604091829020908101805461ff00191661010017905560018101548154925190926001600160a01b03169186917f1f920dbda597d7bf95035464170fa58d0a4b57f13a1c315ace6793b9f63688b89161110791600290910190612659565b60405180910390a4506001610dba565b6000838152600360205260409081902060018101548154925190926001600160a01b03169186917fe10c49d9f7c71da23262367013434763cfdb2332267641728d25cd712c5c6a689161116f91600290910190612659565b60405180910390a4506000610dba565b50506000908152600360208190526040822001805460ff1916905590565b6060816000036111ff5760058054806020026020016040519081016040528092919081815260200182805480156111f357602002820191906000526020600020905b8154815260200190600101908083116111df575b50505050509050919050565b600082815260066020908152604091829020805483518184028101840190945280845290918301828280156111f357602002820191906000526020600020908154815260200190600101908083116111df5750505050509050919050565b6000818152600260209081526040918290208054835181840281018401909452808452606093928301828280156111f357602002820191906000526020600020908154815260200190600101908083116111df5750505050509050919050565b60075460009060ff6101009091041615156001146112ed5760405162461bcd60e51b81526004016104249061238a565b3330148061130a57506040805133602082015261130a91016106a0565b6113265760405162461bcd60e51b815260040161042490612472565b6001600160a01b03851630146113e55760405163604b4d3760e11b81526001600160a01b0386169063c0969a6e906113689030908b908990899060040161266c565b602060405180830381865afa158015611385573d6000803e3d6000fd5b505050506040513d601f19601f820116820180604052508101906113a991906126a5565b6113e55760405162461bcd60e51b815260206004820152600d60248201526c696e76616c696420636c61696d60981b6044820152606401610424565b604080516001600160a01b038716602082015290810188905260009060600160408051601f198184030181529181528151602092830120600081815260049093529120898155600181018990559091506003016114428682612711565b5060008181526004602081905260409091200161145f8582612711565b50600081815260046020526040902060050161147b8482612711565b506000818152600460205260409020600201546001600160a01b0387811691161461156657600088815260066020908152604080832080546001808201835591855283852001859055848452600490925280832060020180546001600160a01b0319166001600160a01b038b169081179091556005805493840181559093527f036b6384b5eca791c62761152d0c79bb0604c104a5fb6f4eb0703f3154bb3db090910183905551899083907f46149b18aa084502c3f12bc75e19eda8bda8d102b82cce8474677a6d0d5f43c590611559908c908b908b908b906127d1565b60405180910390a46115b0565b856001600160a01b031688827f3bab293fc00db832d7619a9299914251b8747c036867ec056cbd506f60135b138a8989896040516115a794939291906127d1565b60405180910390a45b979650505050505050565b60075460009060ff6101009091041615156001146115eb5760405162461bcd60e51b81526004016104249061238a565b600080548082526003602052604090912080546001600160a01b0319166001600160a01b038716178155600181018590556002016116298482612711565b5060008054908061163983612459565b919050555083856001600160a01b0316827f8afcfabcb00e47a53a8fc3e9f23ff47ee1926194bb1350dd007c50b412a6cee8866040516116799190611fbe565b60405180910390a4604080513360208201526116959101610446565b156116ab576116a5816001610dc0565b506116e5565b6001600160a01b03851630148015906116d35750604080513360208201526116d39101610f5a565b156116e5576116e3816001610dc0565b505b949350505050565b60008085858460405160200161170593929190612810565b60405160208183030381529060405280519060200120905060008160405160200161175c91907f19457468657265756d205369676e6564204d6573736167653a0a3332000000008152601c810191909152603c0190565b604051602081830303815290604052805190602001209050600061178086836117de565b604080516001600160a01b0383166020820152919250600091016040516020818303038152906040528051906020012090506117bd816003611af2565b156117cf5760019450505050506116e5565b50600098975050505050505050565b60008060008085516041146117f95760009350505050610dba565b50505060208301516040840151606085015160001a601b81101561182557611822601b82612840565b90505b6040805160008082526020820180845288905260ff841692820192909252606081018590526080810184905260019060a0016020604051602081039080840390855afa158015611879573d6000803e3d6000fd5b5050604051601f19015198975050505050505050565b6001600160a01b0381166118e55760405162461bcd60e51b815260206004820152601f60248201527f696e76616c696420617267756d656e74202d207a65726f2061646472657373006044820152606401610424565b6118ee81611c53565b50565b600081815260046020819052604082208054600182015460028301546003840180548796879660609687968796919590946001600160a01b03909216939092908101916005909101908390611945906124ed565b80601f0160208091040260200160405190810160405280929190818152602001828054611971906124ed565b80156119be5780601f10611993576101008083540402835291602001916119be565b820191906000526020600020905b8154815290600101906020018083116119a157829003601f168201915b505050505092508180546119d1906124ed565b80601f01602080910402602001604051908101604052809291908181526020018280546119fd906124ed565b8015611a4a5780601f10611a1f57610100808354040283529160200191611a4a565b820191906000526020600020905b815481529060010190602001808311611a2d57829003601f168201915b50505050509150808054611a5d906124ed565b80601f0160208091040260200160405190810160405280929190818152602001828054611a89906124ed565b8015611ad65780601f10611aab57610100808354040283529160200191611ad6565b820191906000526020600020905b815481529060010190602001808311611ab957829003601f168201915b5050505050905095509550955095509550955091939550919395565b60008281526001602090815260408083208151815460809481028201850190935260608101838152859491938492849190840182828015611b5257602002820191906000526020600020905b815481526020019060010190808311611b3e575b505050918352505060018201546020820152600290910154604091820152810151909150600003611b87576000915050610dba565b60005b815151811015611be857600082600001518281518110611bac57611bac61242d565b602002602001015190508060011480611bc457508481145b15611bd55760019350505050610dba565b5080611be081612459565b915050611b8a565b506000949350505050565b6000818152600160209081526040918290208054835181840281018401909452808452606093928301828280156111f357602002820191906000526020600020908154815260200190600101908083116111df5750505050509050919050565b60075460ff161580611c645750303b155b611cb05760405162461bcd60e51b815260206004820152601e60248201527f496e697469616c206b65792077617320616c72656164792073657475702e00006044820152606401610424565b6007805461ffff1916610101179055604080516001600160a01b03831660208201526000910160408051601f198184030181528282528051602091820120600081815260018084528482206002810184905586850190955280865290829052918290529350611d1f9290611e5c565b506000818152600160208181526040808420830183905560029091527fe90b7bceb6e7df5418fb78d8ee546e97c83a08bbccc01a0644d599ccd2a7c2e0805480840182559084527f7fef4bf8f63cf9dd467136c679c02b5c17fcf6322d9562512bf5eb952cf7cc5301849055519091829184917f480000bb1edad8ca1470381cc334b1917fbd51c6531f3a623ea8e0ec7e38a6e991a45050565b828054828255906000526020600020908101928215611df4579160200282015b82811115611df4578251825591602001919060010190611dd9565b50611e00929150611e9c565b5090565b508054611e10906124ed565b6000825580601f10611e20575050565b601f0160209004906000526020600020908101906118ee9190611e9c565b50805460008255906000526020600020908101906118ee9190611e9c565b828054828255906000526020600020908101928215611df4579160200282015b82811115611df4578251829060ff16905591602001919060010190611e7c565b5b80821115611e005760008155600101611e9d565b600060208284031215611ec357600080fd5b5035919050565b600081518084526020808501945080840160005b83811015611efa57815187529582019590820190600101611ede565b509495945050505050565b606081526000611f186060830186611eca565b60208301949094525060400152919050565b600080600060608486031215611f3f57600080fd5b505081359360208301359350604090920135919050565b60008060408385031215611f6957600080fd5b50508035926020909101359150565b6000815180845260005b81811015611f9e57602081850181015186830182015201611f82565b506000602082860101526020601f19601f83011685010191505092915050565b602081526000611fd16020830184611f78565b9392505050565b80151581146118ee57600080fd5b60008060408385031215611ff957600080fd5b82359150602083013561200b81611fd8565b809150509250929050565b6020808252825182820181905260009190848201906040850190845b8181101561204e57835183529284019291840191600101612032565b50909695505050505050565b6001600160a01b03811681146118ee57600080fd5b634e487b7160e01b600052604160045260246000fd5b600067ffffffffffffffff808411156120a0576120a061206f565b604051601f8501601f19908116603f011681019082821181831017156120c8576120c861206f565b816040528093508581528686860111156120e157600080fd5b858560208301376000602087830101525050509392505050565b600082601f83011261210c57600080fd5b611fd183833560208501612085565b60008060008060008060c0878903121561213457600080fd5b8635955060208701359450604087013561214d8161205a565b9350606087013567ffffffffffffffff8082111561216a57600080fd5b6121768a838b016120fb565b9450608089013591508082111561218c57600080fd5b6121988a838b016120fb565b935060a08901359150808211156121ae57600080fd5b508701601f810189136121c057600080fd5b6121cf89823560208401612085565b9150509295509295509295565b6000806000606084860312156121f157600080fd5b83356121fc8161205a565b925060208401359150604084013567ffffffffffffffff81111561221f57600080fd5b61222b868287016120fb565b9150509250925092565b6000806000806080858703121561224b57600080fd5b84356122568161205a565b935060208501359250604085013567ffffffffffffffff8082111561227a57600080fd5b612286888389016120fb565b9350606087013591508082111561229c57600080fd5b506122a9878288016120fb565b91505092959194509250565b600080604083850312156122c857600080fd5b823567ffffffffffffffff8111156122df57600080fd5b6122eb858286016120fb565b95602094909401359450505050565b60006020828403121561230c57600080fd5b8135611fd18161205a565b86815285602082015260018060a01b038516604082015260c06060820152600061234460c0830186611f78565b82810360808401526123568186611f78565b905082810360a084015261236a8185611f78565b9998505050505050505050565b602081526000611fd16020830184611eca565b60208082526033908201527f496e746572616374696e67207769746820746865206c69627261727920636f6e6040820152723a3930b1ba1034b9903337b93134b23232b71760691b606082015260800190565b60208082526030908201527f5065726d697373696f6e733a2053656e64657220646f6573206e6f742068617660408201526f65206d616e6167656d656e74206b657960801b606082015260800190565b634e487b7160e01b600052603260045260246000fd5b634e487b7160e01b600052601160045260246000fd5b60006001820161246b5761246b612443565b5060010190565b60208082526032908201527f5065726d697373696f6e733a2053656e64657220646f6573206e6f74206861766040820152716520636c61696d207369676e6572206b657960701b606082015260800190565b81810381811115610dba57610dba612443565b634e487b7160e01b600052603160045260246000fd5b600181811c9082168061250157607f821691505b60208210810361252157634e487b7160e01b600052602260045260246000fd5b50919050565b60008154612534816124ed565b808552602060018381168015612551576001811461256b57612599565b60ff1985168884015283151560051b880183019550612599565b866000528260002060005b858110156125915781548a8201860152908301908401612576565b890184019650505b505050505092915050565b8481526080602082015260006125bd6080830186612527565b82810360408401526125cf8186612527565b905082810360608401526115b08185612527565b60008083546125f1816124ed565b60018281168015612609576001811461261e5761264d565b60ff198416875282151583028701945061264d565b8760005260208060002060005b858110156126445781548a82015290840190820161262b565b50505082870194505b50929695505050505050565b602081526000611fd16020830184612527565b60018060a01b03851681528360208201526080604082015260006126936080830185611f78565b82810360608401526115b08185611f78565b6000602082840312156126b757600080fd5b8151611fd181611fd8565b601f82111561270c57600081815260208120601f850160051c810160208610156126e95750805b601f850160051c820191505b81811015612708578281556001016126f5565b5050505b505050565b815167ffffffffffffffff81111561272b5761272b61206f565b61273f8161273984546124ed565b846126c2565b602080601f831160018114612774576000841561275c5750858301515b600019600386901b1c1916600185901b178555612708565b600085815260208120601f198616915b828110156127a357888601518255948401946001909101908401612784565b50858210156127c15787850151600019600388901b60f8161c191681555b5050505050600190811b01905550565b8481526080602082015260006127ea6080830186611f78565b82810360408401526127fc8186611f78565b905082810360608401526115b08185611f78565b60018060a01b03841681528260208201526060604082015260006128376060830184611f78565b95945050505050565b60ff8181168382160190811115610dba57610dba61244356fea264697066735822122017be9735a01f69a5428f95710da5bdd99c7d8227c1a6f0f270045151203a8d3a64736f6c63430008110033",
  "linkReferences": {},
  "deployedLinkReferences": {}
}