{
  "_format": "hh-sol-artifact-1",
  "contractName": "TransferRestrictModule",
  "sourceName": "contracts/TREX/compliance/modular/modules/TransferRestrictModule.sol",
  "abi": [
    {
      "anonymous": false,
      "inputs": [
        {
          "indexed": false,
          "internalType": "address",
          "name": "previousAdmin",
          "type": "address"
        },
        {
          "indexed": false,
          "internalType": "address",
          "name": "newAdmin",
          "type": "address"
        }
      ],
      "name": "AdminChanged",
      "type": "event"
    },
    {
      "anonymous": false,
      "inputs": [
        {
          "indexed": true,
          "internalType": "address",
          "name": "beacon",
          "type": "address"
        }
      ],
      "name": "BeaconUpgraded",
      "type": "event"
    },
    {
      "anonymous": false,
      "inputs": [
        {
          "indexed": true,
          "internalType": "address",
          "name": "_compliance",
          "type": "address"
        }
      ],
      "name": "ComplianceBound",
      "type": "event"
    },
    {
      "anonymous": false,
      "inputs": [
        {
          "indexed": true,
          "internalType": "address",
          "name": "_compliance",
          "type": "address"
        }
      ],
      "name": "ComplianceUnbound",
      "type": "event"
    },
    {
      "anonymous": false,
      "inputs": [
        {
          "indexed": false,
          "internalType": "uint8",
          "name": "version",
          "type": "uint8"
        }
      ],
      "name": "Initialized",
      "type": "event"
    },
    {
      "anonymous": false,
      "inputs": [
        {
          "indexed": true,
          "internalType": "address",
          "name": "previousOwner",
          "type": "address"
        },
        {
          "indexed": true,
          "internalType": "address",
          "name": "newOwner",
          "type": "address"
        }
      ],
      "name": "OwnershipTransferred",
      "type": "event"
    },
    {
      "anonymous": false,
      "inputs": [
        {
          "indexed": true,
          "internalType": "address",
          "name": "implementation",
          "type": "address"
        }
      ],
      "name": "Upgraded",
      "type": "event"
    },
    {
      "anonymous": false,
      "inputs": [
        {
          "indexed": false,
          "internalType": "address",
          "name": "_compliance",
          "type": "address"
        },
        {
          "indexed": false,
          "internalType": "address",
          "name": "_userAddress",
          "type": "address"
        }
      ],
      "name": "UserAllowed",
      "type": "event"
    },
    {
      "anonymous": false,
      "inputs": [
        {
          "indexed": false,
          "internalType": "address",
          "name": "_compliance",
          "type": "address"
        },
        {
          "indexed": false,
          "internalType": "address",
          "name": "_userAddress",
          "type": "address"
        }
      ],
      "name": "UserDisallowed",
      "type": "event"
    },
    {
      "inputs": [
        {
          "internalType": "address",
          "name": "_userAddress",
          "type": "address"
        }
      ],
      "name": "allowUser",
      "outputs": [],
      "stateMutability": "nonpayable",
      "type": "function"
    },
    {
      "inputs": [
        {
          "internalType": "address[]",
          "name": "_userAddresses",
          "type": "address[]"
        }
      ],
      "name": "batchAllowUsers",
      "outputs": [],
      "stateMutability": "nonpayable",
      "type": "function"
    },
    {
      "inputs": [
        {
          "internalType": "address[]",
          "name": "_userAddresses",
          "type": "address[]"
        }
      ],
      "name": "batchDisallowUsers",
      "outputs": [],
      "stateMutability": "nonpayable",
      "type": "function"
    },
    {
      "inputs": [
        {
          "internalType": "address",
          "name": "_compliance",
          "type": "address"
        }
      ],
      "name": "bindCompliance",
      "outputs": [],
      "stateMutability": "nonpayable",
      "type": "function"
    },
    {
      "inputs": [
        {
          "internalType": "address",
          "name": "",
          "type": "address"
        }
      ],
      "name": "canComplianceBind",
      "outputs": [
        {
          "internalType": "bool",
          "name": "",
          "type": "bool"
        }
      ],
      "stateMutability": "view",
      "type": "function"
    },
    {
      "inputs": [
        {
          "internalType": "address",
          "name": "_userAddress",
          "type": "address"
        }
      ],
      "name": "disallowUser",
      "outputs": [],
      "stateMutability": "nonpayable",
      "type": "function"
    },
    {
      "inputs": [],
      "name": "initialize",
      "outputs": [],
      "stateMutability": "nonpayable",
      "type": "function"
    },
    {
      "inputs": [
        {
          "internalType": "address",
          "name": "_compliance",
          "type": "address"
        }
      ],
      "name": "isComplianceBound",
      "outputs": [
        {
          "internalType": "bool",
          "name": "",
          "type": "bool"
        }
      ],
      "stateMutability": "view",
      "type": "function"
    },
    {
      "inputs": [],
      "name": "isPlugAndPlay",
      "outputs": [
        {
          "internalType": "bool",
          "name": "",
          "type": "bool"
        }
      ],
      "stateMutability": "pure",
      "type": "function"
    },
    {
      "inputs": [
        {
          "internalType": "address",
          "name": "_compliance",
          "type": "address"
        },
        {
          "internalType": "address",
          "name": "_userAddress",
          "type": "address"
        }
      ],
      "name": "isUserAllowed",
      "outputs": [
        {
          "internalType": "bool",
          "name": "",
          "type": "bool"
        }
      ],
      "stateMutability": "view",
      "type": "function"
    },
    {
      "inputs": [
        {
          "internalType": "address",
          "name": "_from",
          "type": "address"
        },
        {
          "internalType": "uint256",
          "name": "_value",
          "type": "uint256"
        }
      ],
      "name": "moduleBurnAction",
      "outputs": [],
      "stateMutability": "nonpayable",
      "type": "function"
    },
    {
      "inputs": [
        {
          "internalType": "address",
          "name": "_from",
          "type": "address"
        },
        {
          "internalType": "address",
          "name": "_to",
          "type": "address"
        },
        {
          "internalType": "uint256",
          "name": "",
          "type": "uint256"
        },
        {
          "internalType": "address",
          "name": "_compliance",
          "type": "address"
        }
      ],
      "name": "moduleCheck",
      "outputs": [
        {
          "internalType": "bool",
          "name": "",
          "type": "bool"
        }
      ],
      "stateMutability": "view",
      "type": "function"
    },
    {
      "inputs": [
        {
          "internalType": "address",
          "name": "_to",
          "type": "address"
        },
        {
          "internalType": "uint256",
          "name": "_value",
          "type": "uint256"
        }
      ],
      "name": "moduleMintAction",
      "outputs": [],
      "stateMutability": "nonpayable",
      "type": "function"
    },
    {
      "inputs": [
        {
          "internalType": "address",
          "name": "_from",
          "type": "address"
        },
        {
          "internalType": "address",
          "name": "_to",
          "type": "address"
        },
        {
          "internalType": "uint256",
          "name": "_value",
          "type": "uint256"
        }
      ],
      "name": "moduleTransferAction",
      "outputs": [],
      "stateMutability": "nonpayable",
      "type": "function"
    },
    {
      "inputs": [],
      "name": "name",
      "outputs": [
        {
          "internalType": "string",
          "name": "_name",
          "type": "string"
        }
      ],
      "stateMutability": "pure",
      "type": "function"
    },
    {
      "inputs": [],
      "name": "owner",
      "outputs": [
        {
          "internalType": "address",
          "name": "",
          "type": "address"
        }
      ],
      "stateMutability": "view",
      "type": "function"
    },
    {
      "inputs": [],
      "name": "proxiableUUID",
      "outputs": [
        {
          "internalType": "bytes32",
          "name": "",
          "type": "bytes32"
        }
      ],
      "stateMutability": "view",
      "type": "function"
    },
    {
      "inputs": [],
      "name": "renounceOwnership",
      "outputs": [],
      "stateMutability": "nonpayable",
      "type": "function"
    },
    {
      "inputs": [
        {
          "internalType": "address",
          "name": "newOwner",
          "type": "address"
        }
      ],
      "name": "transferOwnership",
      "outputs": [],
      "stateMutability": "nonpayable",
      "type": "function"
    },
    {
      "inputs": [
        {
          "internalType": "address",
          "name": "_compliance",
          "type": "address"
        }
      ],
      "name": "unbindCompliance",
      "outputs": [],
      "stateMutability": "nonpayable",
      "type": "function"
    },
    {
      "inputs": [
        {
          "internalType": "address",
          "name": "newImplementation",
          "type": "address"
        }
      ],
      "name": "upgradeTo",
      "outputs": [],
      "stateMutability": "nonpayable",
      "type": "function"
    },
    {
      "inputs": [
        {
          "internalType": "address",
          "name": "newImplementation",
          "type": "address"
        },
        {
          "internalType": "bytes",
          "name": "data",
          "type": "bytes"
        }
      ],
      "name": "upgradeToAndCall",
      "outputs": [],
      "stateMutability": "payable",
      "type": "function"
    }
  ],
  "bytecode": "0x60a06040523060805234801561001457600080fd5b5060805161193e61004c600039600081816106fd0152818161073d01528181610963015281816109a30152610a36015261193e6000f3fe6080604052600436106101355760003560e01c806358591fb7116100ab5780638da5cb5b1161006f5780638da5cb5b1461037c578063a9fb3b35146103a4578063bcc21053146103ed578063e6f5e8071461040e578063f104a8c914610236578063f2fde38b1461042257600080fd5b806358591fb7146102f2578063715018a614610312578063726bb46514610327578063771c456f146103475780638129fc1c1461036757600080fd5b80633659cfe6116100fd5780633659cfe614610216578063372491a2146102365780634a932544146102565780634cf4d295146102765780634f1ef286146102bc57806352d1902d146102cf57600080fd5b8063013b7ce41461013a5780630694a5fb1461016f57806306fdde03146101915780632cb7e1ec146101d657806332bb1f16146101f6575b600080fd5b34801561014657600080fd5b5061015a6101553660046113e2565b610442565b60405190151581526020015b60405180910390f35b34801561017b57600080fd5b5061018f61018a36600461142f565b6104ad565b005b34801561019d57600080fd5b5060408051808201825260168152755472616e7366657252657374726963744d6f64756c6560501b60208201529051610166919061146e565b3480156101e257600080fd5b5061018f6101f13660046114a1565b6105cd565b34801561020257600080fd5b5061018f610211366004611524565b610612565b34801561022257600080fd5b5061018f61023136600461142f565b6106f3565b34801561024257600080fd5b5061018f6102513660046115d1565b6107d2565b34801561026257600080fd5b5061018f61027136600461142f565b610816565b34801561028257600080fd5b5061015a61029136600461142f565b6001600160a01b031660009081526000805160206118e9833981519152602052604090205460ff1690565b61018f6102ca3660046115fb565b610959565b3480156102db57600080fd5b506102e4610a29565b604051908152602001610166565b3480156102fe57600080fd5b5061018f61030d36600461142f565b610adc565b34801561031e57600080fd5b5061018f610b85565b34801561033357600080fd5b5061018f610342366004611524565b610b99565b34801561035357600080fd5b5061018f61036236600461142f565b610c7d565b34801561037357600080fd5b5061018f610d21565b34801561038857600080fd5b506033546040516001600160a01b039091168152602001610166565b3480156103b057600080fd5b5061015a6103bf3660046116a1565b6001600160a01b03918216600090815260c96020908152604080832093909416825291909152205460ff1690565b3480156103f957600080fd5b5061015a61040836600461142f565b50600190565b34801561041a57600080fd5b50600161015a565b34801561042e57600080fd5b5061018f61043d36600461142f565b610e31565b6001600160a01b03808216600090815260c96020908152604080832093881683529290529081205460ff161561047a575060016104a5565b506001600160a01b03808216600090815260c9602090815260408083209387168352929052205460ff165b949350505050565b3360009081526000805160206118e9833981519152602081905260409091205460ff166104f55760405162461bcd60e51b81526004016104ec906116d4565b60405180910390fd5b6000805160206118e98339815191526001600160a01b03831661055a5760405162461bcd60e51b815260206004820152601f60248201527f696e76616c696420617267756d656e74202d207a65726f20616464726573730060448201526064016104ec565b336001600160a01b038416146105825760405162461bcd60e51b81526004016104ec9061170b565b6001600160a01b038316600081815260208390526040808220805460ff19169055517f408b49d9be1c914c52a0227e18a077e5a892dddf32a26cfa94a5d9708fad77189190a2505050565b3360009081526000805160206118e9833981519152602081905260409091205460ff1661060c5760405162461bcd60e51b81526004016104ec906116d4565b50505050565b3360009081526000805160206118e9833981519152602081905260409091205460ff166106515760405162461bcd60e51b81526004016104ec906116d4565b815160005b8181101561060c5760008482815181106106725761067261174c565b60209081029190910181015133600081815260c9845260408082206001600160a01b03851680845290865291819020805460ff191690558051928352938201529092507fe9ab2574b9b111f06f42baaa274030c7228b1dad45b248037101cd11de348240910160405180910390a150806106eb81611762565b915050610656565b6001600160a01b037f000000000000000000000000000000000000000000000000000000000000000016300361073b5760405162461bcd60e51b81526004016104ec90611789565b7f00000000000000000000000000000000000000000000000000000000000000006001600160a01b03166107846000805160206118a2833981519152546001600160a01b031690565b6001600160a01b0316146107aa5760405162461bcd60e51b81526004016104ec906117d5565b6107b381610ea7565b604080516000808252602082019092526107cf91839190610eaf565b50565b3360009081526000805160206118e9833981519152602081905260409091205460ff166108115760405162461bcd60e51b81526004016104ec906116d4565b505050565b6000805160206118e98339815191526001600160a01b03821661087b5760405162461bcd60e51b815260206004820152601f60248201527f696e76616c696420617267756d656e74202d207a65726f20616464726573730060448201526064016104ec565b6001600160a01b03821660009081526020829052604090205460ff16156108e45760405162461bcd60e51b815260206004820152601860248201527f636f6d706c69616e636520616c726561647920626f756e64000000000000000060448201526064016104ec565b336001600160a01b0383161461090c5760405162461bcd60e51b81526004016104ec9061170b565b6001600160a01b038216600081815260208390526040808220805460ff19166001179055517f1f7b76c58fb697eb53c6c7c1becb96911516a136e24d7ced386b2355358b75a39190a25050565b6001600160a01b037f00000000000000000000000000000000000000000000000000000000000000001630036109a15760405162461bcd60e51b81526004016104ec90611789565b7f00000000000000000000000000000000000000000000000000000000000000006001600160a01b03166109ea6000805160206118a2833981519152546001600160a01b031690565b6001600160a01b031614610a105760405162461bcd60e51b81526004016104ec906117d5565b610a1982610ea7565b610a2582826001610eaf565b5050565b6000306001600160a01b037f00000000000000000000000000000000000000000000000000000000000000001614610ac95760405162461bcd60e51b815260206004820152603860248201527f555550535570677261646561626c653a206d757374206e6f742062652063616c60448201527f6c6564207468726f7567682064656c656761746563616c6c000000000000000060648201526084016104ec565b506000805160206118a283398151915290565b3360009081526000805160206118e9833981519152602081905260409091205460ff16610b1b5760405162461bcd60e51b81526004016104ec906116d4565b33600081815260c9602090815260408083206001600160a01b03871680855290835292819020805460ff191690558051938452908301919091527fe9ab2574b9b111f06f42baaa274030c7228b1dad45b248037101cd11de34824091015b60405180910390a15050565b610b8d61101a565b610b976000611074565b565b3360009081526000805160206118e9833981519152602081905260409091205460ff16610bd85760405162461bcd60e51b81526004016104ec906116d4565b815160005b8181101561060c576000848281518110610bf957610bf961174c565b60209081029190910181015133600081815260c9845260408082206001600160a01b03851680845290865291819020805460ff191660011790558051928352938201529092507f767240d3c58c1058ed268ca225eb1cc93d85cf46b6e85d8d120b39921475b1c1910160405180910390a15080610c7581611762565b915050610bdd565b3360009081526000805160206118e9833981519152602081905260409091205460ff16610cbc5760405162461bcd60e51b81526004016104ec906116d4565b33600081815260c9602090815260408083206001600160a01b03871680855290835292819020805460ff191660011790558051938452908301919091527f767240d3c58c1058ed268ca225eb1cc93d85cf46b6e85d8d120b39921475b1c19101610b79565b600054610100900460ff1615808015610d415750600054600160ff909116105b80610d5b5750303b158015610d5b575060005460ff166001145b610dbe5760405162461bcd60e51b815260206004820152602e60248201527f496e697469616c697a61626c653a20636f6e747261637420697320616c72656160448201526d191e481a5b9a5d1a585b1a5e995960921b60648201526084016104ec565b6000805460ff191660011790558015610de1576000805461ff0019166101001790555b610de96110c6565b80156107cf576000805461ff0019169055604051600181527f7f26b83ff96e1f2b6a682f133852f6798a09c465da95921460cefb38474024989060200160405180910390a150565b610e3961101a565b6001600160a01b038116610e9e5760405162461bcd60e51b815260206004820152602660248201527f4f776e61626c653a206e6577206f776e657220697320746865207a65726f206160448201526564647265737360d01b60648201526084016104ec565b6107cf81611074565b6107cf61101a565b7f4910fdfa16fed3260ed0e7147f7cc6da11a60208b5b9406d12a635614ffd91435460ff1615610ee257610811836110fd565b826001600160a01b03166352d1902d6040518163ffffffff1660e01b8152600401602060405180830381865afa925050508015610f3c575060408051601f3d908101601f19168201909252610f3991810190611821565b60015b610f9f5760405162461bcd60e51b815260206004820152602e60248201527f45524331393637557067726164653a206e657720696d706c656d656e7461746960448201526d6f6e206973206e6f74205555505360901b60648201526084016104ec565b6000805160206118a2833981519152811461100e5760405162461bcd60e51b815260206004820152602960248201527f45524331393637557067726164653a20756e737570706f727465642070726f786044820152681a58589b195555525160ba1b60648201526084016104ec565b50610811838383611199565b6033546001600160a01b03163314610b975760405162461bcd60e51b815260206004820181905260248201527f4f776e61626c653a2063616c6c6572206973206e6f7420746865206f776e657260448201526064016104ec565b603380546001600160a01b038381166001600160a01b0319831681179093556040519116919082907f8be0079c531659141344cd1fd0a4f28419497f9722a3daafe3b4186f6b6457e090600090a35050565b600054610100900460ff166110ed5760405162461bcd60e51b81526004016104ec9061183a565b6110f56111be565b610b976111ed565b6001600160a01b0381163b61116a5760405162461bcd60e51b815260206004820152602d60248201527f455243313936373a206e657720696d706c656d656e746174696f6e206973206e60448201526c1bdd08184818dbdb9d1c9858dd609a1b60648201526084016104ec565b6000805160206118a283398151915280546001600160a01b0319166001600160a01b0392909216919091179055565b6111a283611214565b6000825111806111af5750805b156108115761060c8383611254565b600054610100900460ff166111e55760405162461bcd60e51b81526004016104ec9061183a565b610b97611280565b600054610100900460ff16610b975760405162461bcd60e51b81526004016104ec9061183a565b61121d816110fd565b6040516001600160a01b038216907fbc7cd75a20ee27fd9adebab32041f755214dbc6bffa90cc0225b39da2e5c2d3b90600090a250565b606061127983836040518060600160405280602781526020016118c2602791396112b0565b9392505050565b600054610100900460ff166112a75760405162461bcd60e51b81526004016104ec9061183a565b610b9733611074565b6060600080856001600160a01b0316856040516112cd9190611885565b600060405180830381855af49150503d8060008114611308576040519150601f19603f3d011682016040523d82523d6000602084013e61130d565b606091505b509150915061131e86838387611328565b9695505050505050565b60608315611397578251600003611390576001600160a01b0385163b6113905760405162461bcd60e51b815260206004820152601d60248201527f416464726573733a2063616c6c20746f206e6f6e2d636f6e747261637400000060448201526064016104ec565b50816104a5565b6104a583838151156113ac5781518083602001fd5b8060405162461bcd60e51b81526004016104ec919061146e565b80356001600160a01b03811681146113dd57600080fd5b919050565b600080600080608085870312156113f857600080fd5b611401856113c6565b935061140f602086016113c6565b925060408501359150611424606086016113c6565b905092959194509250565b60006020828403121561144157600080fd5b611279826113c6565b60005b8381101561146557818101518382015260200161144d565b50506000910152565b602081526000825180602084015261148d81604085016020870161144a565b601f01601f19169190910160400192915050565b6000806000606084860312156114b657600080fd5b6114bf846113c6565b92506114cd602085016113c6565b9150604084013590509250925092565b634e487b7160e01b600052604160045260246000fd5b604051601f8201601f1916810167ffffffffffffffff8111828210171561151c5761151c6114dd565b604052919050565b6000602080838503121561153757600080fd5b823567ffffffffffffffff8082111561154f57600080fd5b818501915085601f83011261156357600080fd5b813581811115611575576115756114dd565b8060051b91506115868483016114f3565b81815291830184019184810190888411156115a057600080fd5b938501935b838510156115c5576115b6856113c6565b825293850193908501906115a5565b98975050505050505050565b600080604083850312156115e457600080fd5b6115ed836113c6565b946020939093013593505050565b6000806040838503121561160e57600080fd5b611617836113c6565b915060208084013567ffffffffffffffff8082111561163557600080fd5b818601915086601f83011261164957600080fd5b81358181111561165b5761165b6114dd565b61166d601f8201601f191685016114f3565b9150808252878482850101111561168357600080fd5b80848401858401376000848284010152508093505050509250929050565b600080604083850312156116b457600080fd5b6116bd836113c6565b91506116cb602084016113c6565b90509250929050565b6020808252601e908201527f6f6e6c7920626f756e6420636f6d706c69616e63652063616e2063616c6c0000604082015260600190565b60208082526021908201527f6f6e6c7920636f6d706c69616e636520636f6e74726163742063616e2063616c6040820152601b60fa1b606082015260800190565b634e487b7160e01b600052603260045260246000fd5b60006001820161178257634e487b7160e01b600052601160045260246000fd5b5060010190565b6020808252602c908201527f46756e6374696f6e206d7573742062652063616c6c6564207468726f7567682060408201526b19195b1959d85d1958d85b1b60a21b606082015260800190565b6020808252602c908201527f46756e6374696f6e206d7573742062652063616c6c6564207468726f7567682060408201526b6163746976652070726f787960a01b606082015260800190565b60006020828403121561183357600080fd5b5051919050565b6020808252602b908201527f496e697469616c697a61626c653a20636f6e7472616374206973206e6f74206960408201526a6e697469616c697a696e6760a81b606082015260800190565b6000825161189781846020870161144a565b919091019291505056fe360894a13ba1a3210667c828492db98dca3e2076cc3735a920a3ca505d382bbc416464726573733a206c6f772d6c6576656c2064656c65676174652063616c6c206661696c6564f6cc97de1266c180cd39f3b311632644143ce7873d2927755382ad4b39e8ae00a2646970667358221220121849da499dfcfb35737bb0c934e7aa5dc7c3be58f33a546fed7d35e9dfd08864736f6c63430008110033",
  "linkReferences": {},
  "deployedLinkReferences": {}
}