{
  "_format": "hh-sol-artifact-1",
  "contractName": "ClaimIssuer",
  "sourceName": "contracts/ONCHAINID/ClaimIssuer.sol",
  "abi": [
    {
      "inputs": [
        {
          "internalType": "address",
          "name": "initialManagementKey",
          "type": "address"
        }
      ],
      "stateMutability": "nonpayable",
      "type": "constructor"
    },
    {
      "anonymous": false,
      "inputs": [
        {
          "indexed": true,
          "internalType": "uint256",
          "name": "executionId",
          "type": "uint256"
        },
        {
          "indexed": false,
          "internalType": "bool",
          "name": "approved",
          "type": "bool"
        }
      ],
      "name": "Approved",
      "type": "event"
    },
    {
      "anonymous": false,
      "inputs": [
        {
          "indexed": true,
          "internalType": "bytes32",
          "name": "claimId",
          "type": "bytes32"
        },
        {
          "indexed": true,
          "internalType": "uint256",
          "name": "topic",
          "type": "uint256"
        },
        {
          "indexed": false,
          "internalType": "uint256",
          "name": "scheme",
          "type": "uint256"
        },
        {
          "indexed": true,
          "internalType": "address",
          "name": "issuer",
          "type": "address"
        },
        {
          "indexed": false,
          "internalType": "bytes",
          "name": "signature",
          "type": "bytes"
        },
        {
          "indexed": false,
          "internalType": "bytes",
          "name": "data",
          "type": "bytes"
        },
        {
          "indexed": false,
          "internalType": "string",
          "name": "uri",
          "type": "string"
        }
      ],
      "name": "ClaimAdded",
      "type": "event"
    },
    {
      "anonymous": false,
      "inputs": [
        {
          "indexed": true,
          "internalType": "bytes32",
          "name": "claimId",
          "type": "bytes32"
        },
        {
          "indexed": true,
          "internalType": "uint256",
          "name": "topic",
          "type": "uint256"
        },
        {
          "indexed": false,
          "internalType": "uint256",
          "name": "scheme",
          "type": "uint256"
        },
        {
          "indexed": true,
          "internalType": "address",
          "name": "issuer",
          "type": "address"
        },
        {
          "indexed": false,
          "internalType": "bytes",
          "name": "signature",
          "type": "bytes"
        },
        {
          "indexed": false,
          "internalType": "bytes",
          "name": "data",
          "type": "bytes"
        },
        {
          "indexed": false,
          "internalType": "string",
          "name": "uri",
          "type": "string"
        }
      ],
      "name": "ClaimChanged",
      "type": "event"
    },
    {
      "anonymous": false,
      "inputs": [
        {
          "indexed": true,
          "internalType": "bytes32",
          "name": "claimId",
          "type": "bytes32"
        },
        {
          "indexed": true,
          "internalType": "uint256",
          "name": "topic",
          "type": "uint256"
        },
        {
          "indexed": false,
          "internalType": "uint256",
          "name": "scheme",
          "type": "uint256"
        },
        {
          "indexed": true,
          "internalType": "address",
          "name": "issuer",
          "type": "address"
        },
        {
          "indexed": false,
          "internalType": "bytes",
          "name": "signature",
          "type": "bytes"
        },
        {
          "indexed": false,
          "internalType": "bytes",
          "name": "data",
          "type": "bytes"
        },
        {
          "indexed": false,
          "internalType": "string",
          "name": "uri",
          "type": "string"
        }
      ],
      "name": "ClaimRemoved",
      "type": "event"
    },
    {
      "anonymous": false,
      "inputs": [
        {
          "indexed": true,
          "internalType": "bytes",
          "name": "signature",
          "type": "bytes"
        }
      ],
      "name": "ClaimRevoked",
      "type": "event"
    },
    {
      "anonymous": false,
      "inputs": [
        {
          "indexed": true,
          "internalType": "uint256",
          "name": "executionId",
          "type": "uint256"
        },
        {
          "indexed": true,
          "internalType": "address",
          "name": "to",
          "type": "address"
        },
        {
          "indexed": true,
          "internalType": "uint256",
          "name": "value",
          "type": "uint256"
        },
        {
          "indexed": false,
          "internalType": "bytes",
          "name": "data",
          "type": "bytes"
        }
      ],
      "name": "Executed",
      "type": "event"
    },
    {
      "anonymous": false,
      "inputs": [
        {
          "indexed": true,
          "internalType": "uint256",
          "name": "executionId",
          "type": "uint256"
        },
        {
          "indexed": true,
          "internalType": "address",
          "name": "to",
          "type": "address"
        },
        {
          "indexed": true,
          "internalType": "uint256",
          "name": "value",
          "type": "uint256"
        },
        {
          "indexed": false,
          "internalType": "bytes",
          "name": "data",
          "type": "bytes"
        }
      ],
      "name": "ExecutionFailed",
      "type": "event"
    },
    {
      "anonymous": false,
      "inputs": [
        {
          "indexed": true,
          "internalType": "uint256",
          "name": "executionId",
          "type": "uint256"
        },
        {
          "indexed": true,
          "internalType": "address",
          "name": "to",
          "type": "address"
        },
        {
          "indexed": true,
          "internalType": "uint256",
          "name": "value",
          "type": "uint256"
        },
        {
          "indexed": false,
          "internalType": "bytes",
          "name": "data",
          "type": "bytes"
        }
      ],
      "name": "ExecutionRequested",
      "type": "event"
    },
    {
      "anonymous": false,
      "inputs": [
        {
          "indexed": true,
          "internalType": "bytes32",
          "name": "key",
          "type": "bytes32"
        },
        {
          "indexed": true,
          "internalType": "uint256",
          "name": "purpose",
          "type": "uint256"
        },
        {
          "indexed": true,
          "internalType": "uint256",
          "name": "keyType",
          "type": "uint256"
        }
      ],
      "name": "KeyAdded",
      "type": "event"
    },
    {
      "anonymous": false,
      "inputs": [
        {
          "indexed": true,
          "internalType": "bytes32",
          "name": "key",
          "type": "bytes32"
        },
        {
          "indexed": true,
          "internalType": "uint256",
          "name": "purpose",
          "type": "uint256"
        },
        {
          "indexed": true,
          "internalType": "uint256",
          "name": "keyType",
          "type": "uint256"
        }
      ],
      "name": "KeyRemoved",
      "type": "event"
    },
    {
      "inputs": [
        {
          "internalType": "uint256",
          "name": "_topic",
          "type": "uint256"
        },
        {
          "internalType": "uint256",
          "name": "_scheme",
          "type": "uint256"
        },
        {
          "internalType": "address",
          "name": "_issuer",
          "type": "address"
        },
        {
          "internalType": "bytes",
          "name": "_signature",
          "type": "bytes"
        },
        {
          "internalType": "bytes",
          "name": "_data",
          "type": "bytes"
        },
        {
          "internalType": "string",
          "name": "_uri",
          "type": "string"
        }
      ],
      "name": "addClaim",
      "outputs": [
        {
          "internalType": "bytes32",
          "name": "claimRequestId",
          "type": "bytes32"
        }
      ],
      "stateMutability": "nonpayable",
      "type": "function"
    },
    {
      "inputs": [
        {
          "internalType": "bytes32",
          "name": "_key",
          "type": "bytes32"
        },
        {
          "internalType": "uint256",
          "name": "_purpose",
          "type": "uint256"
        },
        {
          "internalType": "uint256",
          "name": "_type",
          "type": "uint256"
        }
      ],
      "name": "addKey",
      "outputs": [
        {
          "internalType": "bool",
          "name": "success",
          "type": "bool"
        }
      ],
      "stateMutability": "nonpayable",
      "type": "function"
    },
    {
      "inputs": [
        {
          "internalType": "uint256",
          "name": "_id",
          "type": "uint256"
        },
        {
          "internalType": "bool",
          "name": "_approve",
          "type": "bool"
        }
      ],
      "name": "approve",
      "outputs": [
        {
          "internalType": "bool",
          "name": "success",
          "type": "bool"
        }
      ],
      "stateMutability": "nonpayable",
      "type": "function"
    },
    {
      "inputs": [
        {
          "internalType": "address",
          "name": "_to",
          "type": "address"
        },
        {
          "internalType": "uint256",
          "name": "_value",
          "type": "uint256"
        },
        {
          "internalType": "bytes",
          "name": "_data",
          "type": "bytes"
        }
      ],
      "name": "execute",
      "outputs": [
        {
          "internalType": "uint256",
          "name": "executionId",
          "type": "uint256"
        }
      ],
      "stateMutability": "payable",
      "type": "function"
    },
    {
      "inputs": [
        {
          "internalType": "bytes32",
          "name": "_claimId",
          "type": "bytes32"
        }
      ],
      "name": "getClaim",
      "outputs": [
        {
          "internalType": "uint256",
          "name": "topic",
          "type": "uint256"
        },
        {
          "internalType": "uint256",
          "name": "scheme",
          "type": "uint256"
        },
        {
          "internalType": "address",
          "name": "issuer",
          "type": "address"
        },
        {
          "internalType": "bytes",
          "name": "signature",
          "type": "bytes"
        },
        {
          "internalType": "bytes",
          "name": "data",
          "type": "bytes"
        },
        {
          "internalType": "string",
          "name": "uri",
          "type": "string"
        }
      ],
      "stateMutability": "view",
      "type": "function"
    },
    {
      "inputs": [
        {
          "internalType": "uint256",
          "name": "_topic",
          "type": "uint256"
        }
      ],
      "name": "getClaimIdsByTopic",
      "outputs": [
        {
          "internalType": "bytes32[]",
          "name": "claimIds",
          "type": "bytes32[]"
        }
      ],
      "stateMutability": "view",
      "type": "function"
    },
    {
      "inputs": [
        {
          "internalType": "bytes32",
          "name": "_key",
          "type": "bytes32"
        }
      ],
      "name": "getKey",
      "outputs": [
        {
          "internalType": "uint256[]",
          "name": "purposes",
          "type": "uint256[]"
        },
        {
          "internalType": "uint256",
          "name": "keyType",
          "type": "uint256"
        },
        {
          "internalType": "bytes32",
          "name": "key",
          "type": "bytes32"
        }
      ],
      "stateMutability": "view",
      "type": "function"
    },
    {
      "inputs": [
        {
          "internalType": "bytes32",
          "name": "_key",
          "type": "bytes32"
        }
      ],
      "name": "getKeyPurposes",
      "outputs": [
        {
          "internalType": "uint256[]",
          "name": "_purposes",
          "type": "uint256[]"
        }
      ],
      "stateMutability": "view",
      "type": "function"
    },
    {
      "inputs": [
        {
          "internalType": "uint256",
          "name": "_purpose",
          "type": "uint256"
        }
      ],
      "name": "getKeysByPurpose",
      "outputs": [
        {
          "internalType": "bytes32[]",
          "name": "keys",
          "type": "bytes32[]"
        }
      ],
      "stateMutability": "view",
      "type": "function"
    },
    {
      "inputs": [
        {
          "internalType": "bytes",
          "name": "sig",
          "type": "bytes"
        },
        {
          "internalType": "bytes32",
          "name": "dataHash",
          "type": "bytes32"
        }
      ],
      "name": "getRecoveredAddress",
      "outputs": [
        {
          "internalType": "address",
          "name": "addr",
          "type": "address"
        }
      ],
      "stateMutability": "pure",
      "type": "function"
    },
    {
      "inputs": [
        {
          "internalType": "address",
          "name": "initialManagementKey",
          "type": "address"
        }
      ],
      "name": "initialize",
      "outputs": [],
      "stateMutability": "nonpayable",
      "type": "function"
    },
    {
      "inputs": [
        {
          "internalType": "bytes",
          "name": "_sig",
          "type": "bytes"
        }
      ],
      "name": "isClaimRevoked",
      "outputs": [
        {
          "internalType": "bool",
          "name": "",
          "type": "bool"
        }
      ],
      "stateMutability": "view",
      "type": "function"
    },
    {
      "inputs": [
        {
          "internalType": "contract IIdentity",
          "name": "_identity",
          "type": "address"
        },
        {
          "internalType": "uint256",
          "name": "claimTopic",
          "type": "uint256"
        },
        {
          "internalType": "bytes",
          "name": "sig",
          "type": "bytes"
        },
        {
          "internalType": "bytes",
          "name": "data",
          "type": "bytes"
        }
      ],
      "name": "isClaimValid",
      "outputs": [
        {
          "internalType": "bool",
          "name": "claimValid",
          "type": "bool"
        }
      ],
      "stateMutability": "view",
      "type": "function"
    },
    {
      "inputs": [
        {
          "internalType": "bytes32",
          "name": "_key",
          "type": "bytes32"
        },
        {
          "internalType": "uint256",
          "name": "_purpose",
          "type": "uint256"
        }
      ],
      "name": "keyHasPurpose",
      "outputs": [
        {
          "internalType": "bool",
          "name": "result",
          "type": "bool"
        }
      ],
      "stateMutability": "view",
      "type": "function"
    },
    {
      "inputs": [
        {
          "internalType": "bytes32",
          "name": "_claimId",
          "type": "bytes32"
        }
      ],
      "name": "removeClaim",
      "outputs": [
        {
          "internalType": "bool",
          "name": "success",
          "type": "bool"
        }
      ],
      "stateMutability": "nonpayable",
      "type": "function"
    },
    {
      "inputs": [
        {
          "internalType": "bytes32",
          "name": "_key",
          "type": "bytes32"
        },
        {
          "internalType": "uint256",
          "name": "_purpose",
          "type": "uint256"
        }
      ],
      "name": "removeKey",
      "outputs": [
        {
          "internalType": "bool",
          "name": "success",
          "type": "bool"
        }
      ],
      "stateMutability": "nonpayable",
      "type": "function"
    },
    {
      "inputs": [
        {
          "internalType": "bytes32",
          "name": "_claimId",
          "type": "bytes32"
        },
        {
          "internalType": "address",
          "name": "_identity",
          "type": "address"
        }
      ],
      "name": "revokeClaim",
      "outputs": [
        {
          "internalType": "bool",
          "name": "",
          "type": "bool"
        }
      ],
      "stateMutability": "nonpayable",
      "type": "function"
    },
    {
      "inputs": [
        {
          "internalType": "bytes",
          "name": "signature",
          "type": "bytes"
        }
      ],
      "name": "revokeClaimBySignature",
      "outputs": [],
      "stateMutability": "nonpayable",
      "type": "function"
    },
    {
      "inputs": [
        {
          "internalType": "bytes",
          "name": "",
          "type": "bytes"
        }
      ],
      "name": "revokedClaims",
      "outputs": [
        {
          "internalType": "bool",
          "name": "",
          "type": "bool"
        }
      ],
      "stateMutability": "view",
      "type": "function"
    },
    {
      "inputs": [],
      "name": "version",
      "outputs": [
        {
          "internalType": "string",
          "name": "",
          "type": "string"
        }
      ],
      "stateMutability": "pure",
      "type": "function"
    }
  ],
  "bytecode": "0x60806040526007805461ffff191690553480156200001c57600080fd5b50604051620031d6380380620031d68339810160408190526200003f91620002a3565b8060006001600160a01b0382166200009e5760405162461bcd60e51b815260206004820152601f60248201527f696e76616c696420617267756d656e74202d207a65726f20616464726573730060448201526064015b60405180910390fd5b80620000b557620000af82620000cc565b620000c3565b6007805460ff191660011790555b505050620002d5565b60075460ff161580620000de5750303b155b6200012c5760405162461bcd60e51b815260206004820152601e60248201527f496e697469616c206b65792077617320616c72656164792073657475702e0000604482015260640162000095565b6007805461ffff1916610101179055604080516001600160a01b03831660208201526000910160408051601f1981840301815282825280516020918201206000818152600180845284822060028101849055868501909552808652908290529182905293506200019d929062000237565b506000818152600160208181526040808420830183905560029091527fe90b7bceb6e7df5418fb78d8ee546e97c83a08bbccc01a0644d599ccd2a7c2e0805480840182559084527f7fef4bf8f63cf9dd467136c679c02b5c17fcf6322d9562512bf5eb952cf7cc5301849055519091829184917f480000bb1edad8ca1470381cc334b1917fbd51c6531f3a623ea8e0ec7e38a6e991a45050565b8280548282559060005260206000209081019282156200027a579160200282015b828111156200027a578251829060ff1690559160200191906001019062000258565b50620002889291506200028c565b5090565b5b808211156200028857600081556001016200028d565b600060208284031215620002b657600080fd5b81516001600160a01b0381168114620002ce57600080fd5b9392505050565b612ef180620002e56000396000f3fe60806040526004361061011f5760003560e01c80639f7f9edd116100a0578063c4d66de811610064578063c4d66de814610368578063c9100bcb14610388578063d202158d146103ba578063d2345249146103da578063fb307b341461041557600080fd5b80639f7f9edd146102ad578063b1a34e0d146102cf578063b61d27f6146102fd578063c0969a6e14610310578063c3b129e31461033057600080fd5b806354fd4d50116100e757806354fd4d50146101ec57806373c3370814610220578063747442d31461024057806380e9e9e1146102605780639010f7261461028d57600080fd5b806312aaac70146101245780631d3812401461015c5780632646b2641461018c5780634eee424a146101ac57806353d413c5146101cc575b600080fd5b34801561013057600080fd5b5061014461013f3660046122f2565b610442565b60405161015393929190612346565b60405180910390f35b34801561016857600080fd5b5061017c61017736600461236b565b6104bb565b6040519015158152602001610153565b34801561019857600080fd5b5061017c6101a7366004612464565b61071f565b3480156101b857600080fd5b5061017c6101c73660046122f2565b610759565b3480156101d857600080fd5b5061017c6101e7366004612499565b610ad2565b3480156101f857600080fd5b506040805180820182526005815264322e322e3160d81b60208201529051610153919061250b565b34801561022c57600080fd5b5061017c61023b366004612533565b610ec2565b34801561024c57600080fd5b5061017c61025b366004612571565b6110a1565b34801561026c57600080fd5b5061028061027b3660046122f2565b61147e565b6040516101539190612596565b34801561029957600080fd5b506102806102a83660046122f2565b61153e565b3480156102b957600080fd5b506102cd6102c83660046125da565b61159e565b005b3480156102db57600080fd5b506102ef6102ea36600461264c565b6116ec565b604051908152602001610153565b6102ef61030b36600461270d565b6119ea565b34801561031c57600080fd5b5061017c61032b366004612766565b611b1c565b34801561033c57600080fd5b5061035061034b3660046127e6565b611c1f565b6040516001600160a01b039091168152602001610153565b34801561037457600080fd5b506102cd61038336600461282b565b611cd0565b34801561039457600080fd5b506103a86103a33660046122f2565b611d32565b60405161015396959493929190612848565b3480156103c657600080fd5b5061017c6103d5366004612499565b611f33565b3480156103e657600080fd5b5061017c6103f5366004612464565b805160208183018101805160398252928201919093012091525460ff1681565b34801561042157600080fd5b506104356104303660046122f2565b612034565b60405161015391906128a8565b6000818152600160208181526040808420928301546002840154845483518186028101860190945280845260609695869590949185918301828280156104a757602002820191906000526020600020905b815481526020019060010190808311610493575b505050505092509250925092509193909250565b60075460009060ff6101009091041615156001146104f45760405162461bcd60e51b81526004016104eb906128bb565b60405180910390fd5b3330148061052a57506040805133602082015261052a91015b604051602081830303815290604052805190602001206001611f33565b6105465760405162461bcd60e51b81526004016104eb9061290e565b600084815260016020526040902060020154849003610679576000848152600160209081526040808320805482518185028101850190935280835291929091908301828280156105b557602002820191906000526020600020905b8154815260200190600101908083116105a1575b5050505050905060005b81518110156106525760008282815181106105dc576105dc61295e565b6020026020010151905085810361063f5760405162461bcd60e51b815260206004820152602160248201527f436f6e666c6963743a204b657920616c72656164792068617320707572706f736044820152606560f81b60648201526084016104eb565b508061064a8161298a565b9150506105bf565b505060008481526001602081815260408320805492830181558352909120018390556106c5565b600084815260016020818152604080842060028101899055815180840190925287825293889052908290526106ae92916121fa565b506000848152600160208190526040909120018290555b60008381526002602090815260408083208054600181018255908452918320909101869055518391859187917f480000bb1edad8ca1470381cc334b1917fbd51c6531f3a623ea8e0ec7e38a6e991a45060015b9392505050565b600060398260405161073191906129a3565b9081526040519081900360200190205460ff161561075157506001919050565b506000919050565b60075460009060ff6101009091041615156001146107895760405162461bcd60e51b81526004016104eb906128bb565b333014806107bf5750604080513360208201526107bf91015b604051602081830303815290604052805190602001206003611f33565b6107db5760405162461bcd60e51b81526004016104eb906129bf565b6000828152600460205260408120549081900361084e5760405162461bcd60e51b815260206004820152602b60248201527f4e6f6e4578697374696e673a205468657265206973206e6f20636c61696d207760448201526a1a5d1a081d1a1a5cc8125160aa1b60648201526084016104eb565b6000818152600660205260408120545b60008381526006602052604090208054869190849081106108815761088161295e565b9060005260206000200154146108a6578161089b8161298a565b92505080821061085e575b60008381526006602052604090206108bf600183612a11565b815481106108cf576108cf61295e565b90600052602060002001546006600085815260200190815260200160002083815481106108fe576108fe61295e565b90600052602060002001819055506006600084815260200190815260200160002080548061092e5761092e612a24565b6000828152602080822083016000199081018390559092019092558682526004908190526040918290206002810154600182015493516001600160a01b039091169387938a937f3cf57863a89432c61c4a27073c6ee39e8a764bff5a05aebfbcdcdc80b2e6130a936109af9392600383019290810191600590910190612af1565b60405180910390a46000858152600460205260408120818155600181018290556002810180546001600160a01b0319169055906109ef6003830182612245565b6109fd600483016000612245565b610a0b600583016000612245565b505060005b600554811015610ac6578560058281548110610a2e57610a2e61295e565b906000526020600020015403610ab45760058054610a4e90600190612a11565b81548110610a5e57610a5e61295e565b906000526020600020015460058281548110610a7c57610a7c61295e565b6000918252602090912001556005805480610a9957610a99612a24565b60019003818190600052602060002001600090559055610ac6565b80610abe8161298a565b915050610a10565b50600195945050505050565b60075460009060ff610100909104161515600114610b025760405162461bcd60e51b81526004016104eb906128bb565b33301480610b1f575060408051336020820152610b1f910161050d565b610b3b5760405162461bcd60e51b81526004016104eb9061290e565b6000838152600160205260409020600201548314610ba55760405162461bcd60e51b815260206004820152602160248201527f4e6f6e4578697374696e673a204b65792069736e2774207265676973746572656044820152601960fa1b60648201526084016104eb565b600083815260016020908152604080832080548251818502810185019093528083529192909190830182828015610bfb57602002820191906000526020600020905b815481526020019060010190808311610be7575b5050505050905060005b83828281518110610c1857610c1861295e565b602002602001015114610c9a5780610c2f8161298a565b91505081518103610c955760405162461bcd60e51b815260206004820152602a60248201527f4e6f6e4578697374696e673a204b657920646f65736e27742068617665207375604482015269636820707572706f736560b01b60648201526084016104eb565b610c05565b8160018351610ca99190612a11565b81518110610cb957610cb961295e565b6020026020010151828281518110610cd357610cd361295e565b602090810291909101810191909152600086815260018252604090208351610cfd928501906121fa565b506000858152600160205260409020805480610d1b57610d1b612a24565b6000828152602080822083016000199081018390559092019092558582526002905260408120545b6000868152600260205260409020805488919084908110610d6657610d6661295e565b906000526020600020015414610d8b5781610d808161298a565b925050808210610d43575b6000868152600260205260409020610da4600183612a11565b81548110610db457610db461295e565b9060005260206000200154600260008881526020019081526020016000208381548110610de357610de361295e565b906000526020600020018190555060026000878152602001908152602001600020805480610e1357610e13612a24565b6001900381819060005260206000200160009055905560006001600089815260200190815260200160002060010154905060018551610e529190612a11565b600003610e8357600088815260016020526040812090610e72828261227f565b506000600182018190556002909101555b8087897f585a4aef50f8267a92b32412b331b20f7f8b96f2245b253b9cc50dcc621d339760405160405180910390a46001955050505050505b92915050565b60075460009060ff610100909104161515600114610ef25760405162461bcd60e51b81526004016104eb906128bb565b33301480610f0f575060408051336020820152610f0f910161050d565b610f2b5760405162461bcd60e51b81526004016104eb9061290e565b6000806000606080866001600160a01b031663c9100bcb896040518263ffffffff1660e01b8152600401610f6191815260200190565b600060405180830381865afa158015610f7e573d6000803e3d6000fd5b505050506040513d6000823e601f3d908101601f19168201604052610fa69190810190612b80565b5060405194995092975090955093509150603990610fc59084906129a3565b9081526040519081900360200190205460ff16156110255760405162461bcd60e51b815260206004820152601f60248201527f436f6e666c6963743a20436c61696d20616c7265616479207265766f6b65640060448201526064016104eb565b600160398360405161103791906129a3565b908152604051908190036020018120805492151560ff19909316929092179091556110639083906129a3565b604051908190038120907f7f484e37f24c0a92f81dd74afa3027b3ea31f2e9fb6b9fa29fe9865f81ac556990600090a2506001979650505050505050565b60075460009060ff6101009091041615156001146110d15760405162461bcd60e51b81526004016104eb906128bb565b60005483106111325760405162461bcd60e51b815260206004820152602760248201527f43616e6e6f7420617070726f76652061206e6f6e2d6578697374696e6720657860448201526632b1baba34b7b760c91b60648201526084016104eb565b60008381526003602081905260409091200154610100900460ff161561119a5760405162461bcd60e51b815260206004820152601860248201527f5265717565737420616c7265616479206578656375746564000000000000000060448201526064016104eb565b600083815260036020526040902054306001600160a01b039091160361122b57604080513360208201526111ce910161050d565b6112265760405162461bcd60e51b815260206004820152602360248201527f53656e64657220646f6573206e6f742068617665206d616e6167656d656e74206044820152626b657960e81b60648201526084016104eb565b6112a4565b6040805133602082015261125891015b604051602081830303815290604052805190602001206002611f33565b6112a45760405162461bcd60e51b815260206004820152601f60248201527f53656e64657220646f6573206e6f74206861766520616374696f6e206b65790060448201526064016104eb565b827fb3932da477fe5d6c8ff2eafef050c0f3a1af18fc07121001482600f36f3715d8836040516112d8911515815260200190565b60405180910390a281151560010361146057600083815260036020819052604091829020908101805460ff1916600190811790915581549082015492516001600160a01b03909116929161133191600290910190612c35565b60006040518083038185875af1925050503d806000811461136e576040519150601f19603f3d011682016040523d82523d6000602084013e611373565b606091505b509091505080156113f857600083815260036020819052604091829020908101805461ff00191661010017905560018101548154925190926001600160a01b03169186917f1f920dbda597d7bf95035464170fa58d0a4b57f13a1c315ace6793b9f63688b8916113e891600290910190612cab565b60405180910390a4506001610ebc565b6000838152600360205260409081902060018101548154925190926001600160a01b03169186917fe10c49d9f7c71da23262367013434763cfdb2332267641728d25cd712c5c6a689161145091600290910190612cab565b60405180910390a4506000610ebc565b50506000908152600360208190526040822001805460ff1916905590565b6060816000036114e05760058054806020026020016040519081016040528092919081815260200182805480156114d457602002820191906000526020600020905b8154815260200190600101908083116114c0575b50505050509050919050565b600082815260066020908152604091829020805483518184028101840190945280845290918301828280156114d457602002820191906000526020600020908154815260200190600101908083116114c05750505050509050919050565b6000818152600260209081526040918290208054835181840281018401909452808452606093928301828280156114d457602002820191906000526020600020908154815260200190600101908083116114c05750505050509050919050565b60075460ff6101009091041615156001146115cb5760405162461bcd60e51b81526004016104eb906128bb565b333014806115e85750604080513360208201526115e8910161050d565b6116045760405162461bcd60e51b81526004016104eb9061290e565b60398282604051611616929190612cbe565b9081526040519081900360200190205460ff16156116765760405162461bcd60e51b815260206004820152601f60248201527f436f6e666c6963743a20436c61696d20616c7265616479207265766f6b65640060448201526064016104eb565b60016039838360405161168a929190612cbe565b908152604051908190036020018120805492151560ff19909316929092179091556116b89083908390612cbe565b604051908190038120907f7f484e37f24c0a92f81dd74afa3027b3ea31f2e9fb6b9fa29fe9865f81ac556990600090a25050565b60075460009060ff61010090910416151560011461171c5760405162461bcd60e51b81526004016104eb906128bb565b3330148061173957506040805133602082015261173991016107a2565b6117555760405162461bcd60e51b81526004016104eb906129bf565b6001600160a01b03851630146118145760405163604b4d3760e11b81526001600160a01b0386169063c0969a6e906117979030908b9089908990600401612cce565b602060405180830381865afa1580156117b4573d6000803e3d6000fd5b505050506040513d601f19601f820116820180604052508101906117d89190612d07565b6118145760405162461bcd60e51b815260206004820152600d60248201526c696e76616c696420636c61696d60981b60448201526064016104eb565b604080516001600160a01b038716602082015290810188905260009060600160408051601f198184030181529181528151602092830120600081815260049093529120898155600181018990559091506003016118718682612d73565b5060008181526004602081905260409091200161188e8582612d73565b5060008181526004602052604090206005016118aa8482612d73565b506000818152600460205260409020600201546001600160a01b0387811691161461199557600088815260066020908152604080832080546001808201835591855283852001859055848452600490925280832060020180546001600160a01b0319166001600160a01b038b169081179091556005805493840181559093527f036b6384b5eca791c62761152d0c79bb0604c104a5fb6f4eb0703f3154bb3db090910183905551899083907f46149b18aa084502c3f12bc75e19eda8bda8d102b82cce8474677a6d0d5f43c590611988908c908b908b908b90612e33565b60405180910390a46119df565b856001600160a01b031688827f3bab293fc00db832d7619a9299914251b8747c036867ec056cbd506f60135b138a8989896040516119d69493929190612e33565b60405180910390a45b979650505050505050565b60075460009060ff610100909104161515600114611a1a5760405162461bcd60e51b81526004016104eb906128bb565b600080548082526003602052604090912080546001600160a01b0319166001600160a01b03871617815560018101859055600201611a588482612d73565b50600080549080611a688361298a565b919050555083856001600160a01b0316827f8afcfabcb00e47a53a8fc3e9f23ff47ee1926194bb1350dd007c50b412a6cee886604051611aa8919061250b565b60405180910390a460408051336020820152611ac4910161050d565b15611ada57611ad48160016110a1565b50611b14565b6001600160a01b0385163014801590611b02575060408051336020820152611b02910161123b565b15611b1457611b128160016110a1565b505b949350505050565b600080858584604051602001611b3493929190612e72565b604051602081830303815290604052805190602001209050600081604051602001611b8b91907f19457468657265756d205369676e6564204d6573736167653a0a3332000000008152601c810191909152603c0190565b6040516020818303038152906040528051906020012090506000611baf8683611c1f565b604080516001600160a01b038316602082015291925060009101604051602081830303815290604052805190602001209050611bec816003611f33565b8015611bfe5750611bfc8761071f565b155b15611c10576001945050505050611b14565b50600098975050505050505050565b6000806000808551604114611c3a5760009350505050610ebc565b50505060208301516040840151606085015160001a601b811015611c6657611c63601b82612ea2565b90505b6040805160008082526020820180845288905260ff841692820192909252606081018590526080810184905260019060a0016020604051602081039080840390855afa158015611cba573d6000803e3d6000fd5b5050604051601f19015198975050505050505050565b6001600160a01b038116611d265760405162461bcd60e51b815260206004820152601f60248201527f696e76616c696420617267756d656e74202d207a65726f20616464726573730060448201526064016104eb565b611d2f81612094565b50565b600081815260046020819052604082208054600182015460028301546003840180548796879660609687968796919590946001600160a01b03909216939092908101916005909101908390611d8690612a3a565b80601f0160208091040260200160405190810160405280929190818152602001828054611db290612a3a565b8015611dff5780601f10611dd457610100808354040283529160200191611dff565b820191906000526020600020905b815481529060010190602001808311611de257829003601f168201915b50505050509250818054611e1290612a3a565b80601f0160208091040260200160405190810160405280929190818152602001828054611e3e90612a3a565b8015611e8b5780601f10611e6057610100808354040283529160200191611e8b565b820191906000526020600020905b815481529060010190602001808311611e6e57829003601f168201915b50505050509150808054611e9e90612a3a565b80601f0160208091040260200160405190810160405280929190818152602001828054611eca90612a3a565b8015611f175780601f10611eec57610100808354040283529160200191611f17565b820191906000526020600020905b815481529060010190602001808311611efa57829003601f168201915b5050505050905095509550955095509550955091939550919395565b60008281526001602090815260408083208151815460809481028201850190935260608101838152859491938492849190840182828015611f9357602002820191906000526020600020905b815481526020019060010190808311611f7f575b505050918352505060018201546020820152600290910154604091820152810151909150600003611fc8576000915050610ebc565b60005b81515181101561202957600082600001518281518110611fed57611fed61295e565b60200260200101519050806001148061200557508481145b156120165760019350505050610ebc565b50806120218161298a565b915050611fcb565b506000949350505050565b6000818152600160209081526040918290208054835181840281018401909452808452606093928301828280156114d457602002820191906000526020600020908154815260200190600101908083116114c05750505050509050919050565b60075460ff1615806120a55750303b155b6120f15760405162461bcd60e51b815260206004820152601e60248201527f496e697469616c206b65792077617320616c72656164792073657475702e000060448201526064016104eb565b6007805461ffff1916610101179055604080516001600160a01b03831660208201526000910160408051601f198184030181528282528051602091820120600081815260018084528482206002810184905586850190955280865290829052918290529350612160929061229d565b506000818152600160208181526040808420830183905560029091527fe90b7bceb6e7df5418fb78d8ee546e97c83a08bbccc01a0644d599ccd2a7c2e0805480840182559084527f7fef4bf8f63cf9dd467136c679c02b5c17fcf6322d9562512bf5eb952cf7cc5301849055519091829184917f480000bb1edad8ca1470381cc334b1917fbd51c6531f3a623ea8e0ec7e38a6e991a45050565b828054828255906000526020600020908101928215612235579160200282015b8281111561223557825182559160200191906001019061221a565b506122419291506122dd565b5090565b50805461225190612a3a565b6000825580601f10612261575050565b601f016020900490600052602060002090810190611d2f91906122dd565b5080546000825590600052602060002090810190611d2f91906122dd565b828054828255906000526020600020908101928215612235579160200282015b82811115612235578251829060ff169055916020019190600101906122bd565b5b8082111561224157600081556001016122de565b60006020828403121561230457600080fd5b5035919050565b600081518084526020808501945080840160005b8381101561233b5781518752958201959082019060010161231f565b509495945050505050565b606081526000612359606083018661230b565b60208301949094525060400152919050565b60008060006060848603121561238057600080fd5b505081359360208301359350604090920135919050565b634e487b7160e01b600052604160045260246000fd5b604051601f8201601f1916810167ffffffffffffffff811182821017156123d6576123d6612397565b604052919050565b600067ffffffffffffffff8211156123f8576123f8612397565b50601f01601f191660200190565b6000612419612414846123de565b6123ad565b905082815283838301111561242d57600080fd5b828260208301376000602084830101529392505050565b600082601f83011261245557600080fd5b61071883833560208501612406565b60006020828403121561247657600080fd5b813567ffffffffffffffff81111561248d57600080fd5b611b1484828501612444565b600080604083850312156124ac57600080fd5b50508035926020909101359150565b60005b838110156124d65781810151838201526020016124be565b50506000910152565b600081518084526124f78160208601602086016124bb565b601f01601f19169290920160200192915050565b60208152600061071860208301846124df565b6001600160a01b0381168114611d2f57600080fd5b6000806040838503121561254657600080fd5b8235915060208301356125588161251e565b809150509250929050565b8015158114611d2f57600080fd5b6000806040838503121561258457600080fd5b82359150602083013561255881612563565b6020808252825182820181905260009190848201906040850190845b818110156125ce578351835292840192918401916001016125b2565b50909695505050505050565b600080602083850312156125ed57600080fd5b823567ffffffffffffffff8082111561260557600080fd5b818501915085601f83011261261957600080fd5b81358181111561262857600080fd5b86602082850101111561263a57600080fd5b60209290920196919550909350505050565b60008060008060008060c0878903121561266557600080fd5b8635955060208701359450604087013561267e8161251e565b9350606087013567ffffffffffffffff8082111561269b57600080fd5b6126a78a838b01612444565b945060808901359150808211156126bd57600080fd5b6126c98a838b01612444565b935060a08901359150808211156126df57600080fd5b508701601f810189136126f157600080fd5b61270089823560208401612406565b9150509295509295509295565b60008060006060848603121561272257600080fd5b833561272d8161251e565b925060208401359150604084013567ffffffffffffffff81111561275057600080fd5b61275c86828701612444565b9150509250925092565b6000806000806080858703121561277c57600080fd5b84356127878161251e565b935060208501359250604085013567ffffffffffffffff808211156127ab57600080fd5b6127b788838901612444565b935060608701359150808211156127cd57600080fd5b506127da87828801612444565b91505092959194509250565b600080604083850312156127f957600080fd5b823567ffffffffffffffff81111561281057600080fd5b61281c85828601612444565b95602094909401359450505050565b60006020828403121561283d57600080fd5b81356107188161251e565b86815285602082015260018060a01b038516604082015260c06060820152600061287560c08301866124df565b828103608084015261288781866124df565b905082810360a084015261289b81856124df565b9998505050505050505050565b602081526000610718602083018461230b565b60208082526033908201527f496e746572616374696e67207769746820746865206c69627261727920636f6e6040820152723a3930b1ba1034b9903337b93134b23232b71760691b606082015260800190565b60208082526030908201527f5065726d697373696f6e733a2053656e64657220646f6573206e6f742068617660408201526f65206d616e6167656d656e74206b657960801b606082015260800190565b634e487b7160e01b600052603260045260246000fd5b634e487b7160e01b600052601160045260246000fd5b60006001820161299c5761299c612974565b5060010190565b600082516129b58184602087016124bb565b9190910192915050565b60208082526032908201527f5065726d697373696f6e733a2053656e64657220646f6573206e6f74206861766040820152716520636c61696d207369676e6572206b657960701b606082015260800190565b81810381811115610ebc57610ebc612974565b634e487b7160e01b600052603160045260246000fd5b600181811c90821680612a4e57607f821691505b602082108103612a6e57634e487b7160e01b600052602260045260246000fd5b50919050565b60008154612a8181612a3a565b808552602060018381168015612a9e5760018114612ab857612ae6565b60ff1985168884015283151560051b880183019550612ae6565b866000528260002060005b85811015612ade5781548a8201860152908301908401612ac3565b890184019650505b505050505092915050565b848152608060208201526000612b0a6080830186612a74565b8281036040840152612b1c8186612a74565b905082810360608401526119df8185612a74565b6000612b3e612414846123de565b9050828152838383011115612b5257600080fd5b6107188360208301846124bb565b600082601f830112612b7157600080fd5b61071883835160208501612b30565b60008060008060008060c08789031215612b9957600080fd5b86519550602087015194506040870151612bb28161251e565b606088015190945067ffffffffffffffff80821115612bd057600080fd5b612bdc8a838b01612b60565b94506080890151915080821115612bf257600080fd5b612bfe8a838b01612b60565b935060a0890151915080821115612c1457600080fd5b508701601f81018913612c2657600080fd5b61270089825160208401612b30565b6000808354612c4381612a3a565b60018281168015612c5b5760018114612c7057612c9f565b60ff1984168752821515830287019450612c9f565b8760005260208060002060005b85811015612c965781548a820152908401908201612c7d565b50505082870194505b50929695505050505050565b6020815260006107186020830184612a74565b8183823760009101908152919050565b60018060a01b0385168152836020820152608060408201526000612cf560808301856124df565b82810360608401526119df81856124df565b600060208284031215612d1957600080fd5b815161071881612563565b601f821115612d6e57600081815260208120601f850160051c81016020861015612d4b5750805b601f850160051c820191505b81811015612d6a57828155600101612d57565b5050505b505050565b815167ffffffffffffffff811115612d8d57612d8d612397565b612da181612d9b8454612a3a565b84612d24565b602080601f831160018114612dd65760008415612dbe5750858301515b600019600386901b1c1916600185901b178555612d6a565b600085815260208120601f198616915b82811015612e0557888601518255948401946001909101908401612de6565b5085821015612e235787850151600019600388901b60f8161c191681555b5050505050600190811b01905550565b848152608060208201526000612e4c60808301866124df565b8281036040840152612e5e81866124df565b905082810360608401526119df81856124df565b60018060a01b0384168152826020820152606060408201526000612e9960608301846124df565b95945050505050565b60ff8181168382160190811115610ebc57610ebc61297456fea2646970667358221220c63b99e9cc5cf49425bb29a23c96e7fd71daa14f5b25d2fd0d243d85c6eef73e64736f6c63430008110033",
  "linkReferences": {},
  "deployedLinkReferences": {}
}