{
  "_format": "hh-sol-artifact-1",
  "contractName": "TREXGateway",
  "sourceName": "contracts/TREX/factory/TREXGateway.sol",
  "abi": [
    {
      "inputs": [
        {
          "internalType": "address",
          "name": "factory",
          "type": "address"
        },
        {
          "internalType": "bool",
          "name": "publicDeploymentStatus",
          "type": "bool"
        }
      ],
      "stateMutability": "nonpayable",
      "type": "constructor"
    },
    {
      "inputs": [
        {
          "internalType": "uint16",
          "name": "lengthLimit",
          "type": "uint16"
        }
      ],
      "name": "BatchMaxLengthExceeded",
      "type": "error"
    },
    {
      "inputs": [
        {
          "internalType": "address",
          "name": "deployer",
          "type": "address"
        }
      ],
      "name": "DeployerAlreadyExists",
      "type": "error"
    },
    {
      "inputs": [
        {
          "internalType": "address",
          "name": "deployer",
          "type": "address"
        }
      ],
      "name": "DeployerDoesNotExist",
      "type": "error"
    },
    {
      "inputs": [],
      "name": "DeploymentFeesAlreadyDisabled",
      "type": "error"
    },
    {
      "inputs": [],
      "name": "DeploymentFeesAlreadyEnabled",
      "type": "error"
    },
    {
      "inputs": [],
      "name": "DiscountOutOfRange",
      "type": "error"
    },
    {
      "inputs": [],
      "name": "OnlyAdminCall",
      "type": "error"
    },
    {
      "inputs": [],
      "name": "PublicCannotDeployOnBehalf",
      "type": "error"
    },
    {
      "inputs": [],
      "name": "PublicDeploymentAlreadyDisabled",
      "type": "error"
    },
    {
      "inputs": [],
      "name": "PublicDeploymentAlreadyEnabled",
      "type": "error"
    },
    {
      "inputs": [],
      "name": "PublicDeploymentsNotAllowed",
      "type": "error"
    },
    {
      "inputs": [],
      "name": "ZeroAddress",
      "type": "error"
    },
    {
      "anonymous": false,
      "inputs": [
        {
          "indexed": true,
          "internalType": "address",
          "name": "_agent",
          "type": "address"
        }
      ],
      "name": "AgentAdded",
      "type": "event"
    },
    {
      "anonymous": false,
      "inputs": [
        {
          "indexed": true,
          "internalType": "address",
          "name": "_agent",
          "type": "address"
        }
      ],
      "name": "AgentRemoved",
      "type": "event"
    },
    {
      "anonymous": false,
      "inputs": [
        {
          "indexed": true,
          "internalType": "address",
          "name": "deployer",
          "type": "address"
        }
      ],
      "name": "DeployerAdded",
      "type": "event"
    },
    {
      "anonymous": false,
      "inputs": [
        {
          "indexed": true,
          "internalType": "address",
          "name": "deployer",
          "type": "address"
        }
      ],
      "name": "DeployerRemoved",
      "type": "event"
    },
    {
      "anonymous": false,
      "inputs": [
        {
          "indexed": true,
          "internalType": "bool",
          "name": "isEnabled",
          "type": "bool"
        }
      ],
      "name": "DeploymentFeeEnabled",
      "type": "event"
    },
    {
      "anonymous": false,
      "inputs": [
        {
          "indexed": true,
          "internalType": "uint256",
          "name": "fee",
          "type": "uint256"
        },
        {
          "indexed": true,
          "internalType": "address",
          "name": "feeToken",
          "type": "address"
        },
        {
          "indexed": true,
          "internalType": "address",
          "name": "feeCollector",
          "type": "address"
        }
      ],
      "name": "DeploymentFeeSet",
      "type": "event"
    },
    {
      "anonymous": false,
      "inputs": [
        {
          "indexed": true,
          "internalType": "address",
          "name": "factory",
          "type": "address"
        }
      ],
      "name": "FactorySet",
      "type": "event"
    },
    {
      "anonymous": false,
      "inputs": [
        {
          "indexed": true,
          "internalType": "address",
          "name": "deployer",
          "type": "address"
        },
        {
          "indexed": false,
          "internalType": "uint16",
          "name": "discount",
          "type": "uint16"
        }
      ],
      "name": "FeeDiscountApplied",
      "type": "event"
    },
    {
      "anonymous": false,
      "inputs": [
        {
          "indexed": true,
          "internalType": "address",
          "name": "requester",
          "type": "address"
        },
        {
          "indexed": false,
          "internalType": "address",
          "name": "intendedOwner",
          "type": "address"
        },
        {
          "indexed": false,
          "internalType": "uint256",
          "name": "feeApplied",
          "type": "uint256"
        }
      ],
      "name": "GatewaySuiteDeploymentProcessed",
      "type": "event"
    },
    {
      "anonymous": false,
      "inputs": [
        {
          "indexed": true,
          "internalType": "address",
          "name": "previousOwner",
          "type": "address"
        },
        {
          "indexed": true,
          "internalType": "address",
          "name": "newOwner",
          "type": "address"
        }
      ],
      "name": "OwnershipTransferred",
      "type": "event"
    },
    {
      "anonymous": false,
      "inputs": [
        {
          "indexed": true,
          "internalType": "bool",
          "name": "publicDeploymentStatus",
          "type": "bool"
        }
      ],
      "name": "PublicDeploymentStatusSet",
      "type": "event"
    },
    {
      "inputs": [
        {
          "internalType": "address",
          "name": "_agent",
          "type": "address"
        }
      ],
      "name": "addAgent",
      "outputs": [],
      "stateMutability": "nonpayable",
      "type": "function"
    },
    {
      "inputs": [
        {
          "internalType": "address",
          "name": "deployer",
          "type": "address"
        }
      ],
      "name": "addDeployer",
      "outputs": [],
      "stateMutability": "nonpayable",
      "type": "function"
    },
    {
      "inputs": [
        {
          "internalType": "address",
          "name": "deployer",
          "type": "address"
        },
        {
          "internalType": "uint16",
          "name": "discount",
          "type": "uint16"
        }
      ],
      "name": "applyFeeDiscount",
      "outputs": [],
      "stateMutability": "nonpayable",
      "type": "function"
    },
    {
      "inputs": [
        {
          "internalType": "address[]",
          "name": "deployers",
          "type": "address[]"
        }
      ],
      "name": "batchAddDeployer",
      "outputs": [],
      "stateMutability": "nonpayable",
      "type": "function"
    },
    {
      "inputs": [
        {
          "internalType": "address[]",
          "name": "deployers",
          "type": "address[]"
        },
        {
          "internalType": "uint16[]",
          "name": "discounts",
          "type": "uint16[]"
        }
      ],
      "name": "batchApplyFeeDiscount",
      "outputs": [],
      "stateMutability": "nonpayable",
      "type": "function"
    },
    {
      "inputs": [
        {
          "components": [
            {
              "internalType": "address",
              "name": "owner",
              "type": "address"
            },
            {
              "internalType": "string",
              "name": "name",
              "type": "string"
            },
            {
              "internalType": "string",
              "name": "symbol",
              "type": "string"
            },
            {
              "internalType": "uint8",
              "name": "decimals",
              "type": "uint8"
            },
            {
              "internalType": "address[]",
              "name": "complianceModules",
              "type": "address[]"
            },
            {
              "internalType": "bytes[]",
              "name": "complianceSettings",
              "type": "bytes[]"
            }
          ],
          "internalType": "struct ITREXFactory.TokenDetails[]",
          "name": "_tokenDetails",
          "type": "tuple[]"
        }
      ],
      "name": "batchDeployTREXSuite",
      "outputs": [],
      "stateMutability": "nonpayable",
      "type": "function"
    },
    {
      "inputs": [
        {
          "internalType": "address[]",
          "name": "deployers",
          "type": "address[]"
        }
      ],
      "name": "batchRemoveDeployer",
      "outputs": [],
      "stateMutability": "nonpayable",
      "type": "function"
    },
    {
      "inputs": [
        {
          "internalType": "address",
          "name": "deployer",
          "type": "address"
        }
      ],
      "name": "calculateFee",
      "outputs": [
        {
          "internalType": "uint256",
          "name": "",
          "type": "uint256"
        }
      ],
      "stateMutability": "view",
      "type": "function"
    },
    {
      "inputs": [
        {
          "components": [
            {
              "internalType": "address",
              "name": "owner",
              "type": "address"
            },
            {
              "internalType": "string",
              "name": "name",
              "type": "string"
            },
            {
              "internalType": "string",
              "name": "symbol",
              "type": "string"
            },
            {
              "internalType": "uint8",
              "name": "decimals",
              "type": "uint8"
            },
            {
              "internalType": "address[]",
              "name": "complianceModules",
              "type": "address[]"
            },
            {
              "internalType": "bytes[]",
              "name": "complianceSettings",
              "type": "bytes[]"
            }
          ],
          "internalType": "struct ITREXFactory.TokenDetails",
          "name": "_tokenDetails",
          "type": "tuple"
        }
      ],
      "name": "deployTREXSuite",
      "outputs": [],
      "stateMutability": "nonpayable",
      "type": "function"
    },
    {
      "inputs": [
        {
          "internalType": "bool",
          "name": "_isEnabled",
          "type": "bool"
        }
      ],
      "name": "enableDeploymentFee",
      "outputs": [],
      "stateMutability": "nonpayable",
      "type": "function"
    },
    {
      "inputs": [],
      "name": "getDeploymentFee",
      "outputs": [
        {
          "components": [
            {
              "internalType": "uint256",
              "name": "fee",
              "type": "uint256"
            },
            {
              "internalType": "address",
              "name": "feeToken",
              "type": "address"
            },
            {
              "internalType": "address",
              "name": "feeCollector",
              "type": "address"
            }
          ],
          "internalType": "struct ITREXGateway.Fee",
          "name": "",
          "type": "tuple"
        }
      ],
      "stateMutability": "view",
      "type": "function"
    },
    {
      "inputs": [],
      "name": "getFactory",
      "outputs": [
        {
          "internalType": "address",
          "name": "",
          "type": "address"
        }
      ],
      "stateMutability": "view",
      "type": "function"
    },
    {
      "inputs": [],
      "name": "getPublicDeploymentStatus",
      "outputs": [
        {
          "internalType": "bool",
          "name": "",
          "type": "bool"
        }
      ],
      "stateMutability": "view",
      "type": "function"
    },
    {
      "inputs": [
        {
          "internalType": "address",
          "name": "_agent",
          "type": "address"
        }
      ],
      "name": "isAgent",
      "outputs": [
        {
          "internalType": "bool",
          "name": "",
          "type": "bool"
        }
      ],
      "stateMutability": "view",
      "type": "function"
    },
    {
      "inputs": [
        {
          "internalType": "address",
          "name": "deployer",
          "type": "address"
        }
      ],
      "name": "isDeployer",
      "outputs": [
        {
          "internalType": "bool",
          "name": "",
          "type": "bool"
        }
      ],
      "stateMutability": "view",
      "type": "function"
    },
    {
      "inputs": [],
      "name": "isDeploymentFeeEnabled",
      "outputs": [
        {
          "internalType": "bool",
          "name": "",
          "type": "bool"
        }
      ],
      "stateMutability": "view",
      "type": "function"
    },
    {
      "inputs": [],
      "name": "owner",
      "outputs": [
        {
          "internalType": "address",
          "name": "",
          "type": "address"
        }
      ],
      "stateMutability": "view",
      "type": "function"
    },
    {
      "inputs": [
        {
          "internalType": "address",
          "name": "_agent",
          "type": "address"
        }
      ],
      "name": "removeAgent",
      "outputs": [],
      "stateMutability": "nonpayable",
      "type": "function"
    },
    {
      "inputs": [
        {
          "internalType": "address",
          "name": "deployer",
          "type": "address"
        }
      ],
      "name": "removeDeployer",
      "outputs": [],
      "stateMutability": "nonpayable",
      "type": "function"
    },
    {
      "inputs": [],
      "name": "renounceOwnership",
      "outputs": [],
      "stateMutability": "nonpayable",
      "type": "function"
    },
    {
      "inputs": [
        {
          "internalType": "uint256",
          "name": "_fee",
          "type": "uint256"
        },
        {
          "internalType": "address",
          "name": "_feeToken",
          "type": "address"
        },
        {
          "internalType": "address",
          "name": "_feeCollector",
          "type": "address"
        }
      ],
      "name": "setDeploymentFee",
      "outputs": [],
      "stateMutability": "nonpayable",
      "type": "function"
    },
    {
      "inputs": [
        {
          "internalType": "address",
          "name": "factory",
          "type": "address"
        }
      ],
      "name": "setFactory",
      "outputs": [],
      "stateMutability": "nonpayable",
      "type": "function"
    },
    {
      "inputs": [
        {
          "internalType": "bool",
          "name": "_isEnabled",
          "type": "bool"
        }
      ],
      "name": "setPublicDeploymentStatus",
      "outputs": [],
      "stateMutability": "nonpayable",
      "type": "function"
    },
    {
      "inputs": [
        {
          "internalType": "address",
          "name": "_newOwner",
          "type": "address"
        }
      ],
      "name": "transferFactoryOwnership",
      "outputs": [],
      "stateMutability": "nonpayable",
      "type": "function"
    },
    {
      "inputs": [
        {
          "internalType": "address",
          "name": "newOwner",
          "type": "address"
        }
      ],
      "name": "transferOwnership",
      "outputs": [],
      "stateMutability": "nonpayable",
      "type": "function"
    }
  ],
  "bytecode": "0x60806040523480156200001157600080fd5b506040516200213c3803806200213c833981016040819052620000349162000116565b6200003f33620000c6565b600280546001600160a01b0384166001600160a81b03199091168117600160a01b84151502179091556040517f1edf3afd4ac789736e00d216cd88be164ddcef26a6eedcc30cdb0cb62f3741b190600090a2604051811515907ff8be33baa430c4b62d2c9d79ab319d10cc41755a1fb65f85e64ca0632c29d0a490600090a2505062000164565b600080546001600160a01b038381166001600160a01b0319831681178455604051919092169283917f8be0079c531659141344cd1fd0a4f28419497f9722a3daafe3b4186f6b6457e09190a35050565b600080604083850312156200012a57600080fd5b82516001600160a01b03811681146200014257600080fd5b602084015190925080151581146200015957600080fd5b809150509250929050565b611fc880620001746000396000f3fe608060405234801561001057600080fd5b50600436106101725760003560e01c8063880f4039116100de578063bfc2f10b11610097578063eca465c411610071578063eca465c414610398578063f0246edb146103ab578063f2fde38b146103be578063f315df86146103d157600080fd5b8063bfc2f10b14610360578063d8206dd214610372578063e65811ff1461038557600080fd5b8063880f4039146102de57806388cc58e4146102f15780638da5cb5b1461031657806397a6278e146103275780639c5c5ce71461033a578063a264f2bd1461034d57600080fd5b806350c358a41161013057806350c358a4146102775780635bb478081461028a5780635d46c2831461029d578063715018a6146102b057806375e14cff146102b857806384e79842146102cb57600080fd5b806265939e146101775780631ffbb0641461018c5780632782035e146101b4578063465f5eb8146101c757806346c549cc146101e8578063477068511461026c575b600080fd5b61018a610185366004611778565b6103e4565b005b61019f61019a3660046117d6565b610593565b60405190151581526020015b60405180910390f35b61018a6101c23660046117f1565b6105a6565b6101da6101d53660046117d6565b61078a565b6040519081526020016101ab565b6102396040805160608101825260008082526020820181905291810191909152506040805160608101825260035481526004546001600160a01b039081166020830152600554169181019190915290565b60408051825181526020808401516001600160a01b039081169183019190915292820151909216908201526060016101ab565b60065460ff1661019f565b61019f6102853660046117d6565b6107d1565b61018a6102983660046117d6565b6107ef565b61018a6102ab36600461185d565b610868565b61018a610911565b61018a6102c63660046118ab565b610925565b61018a6102d93660046117d6565b6109ed565b61018a6102ec3660046117d6565b610a8d565b6002546001600160a01b03165b6040516001600160a01b0390911681526020016101ab565b6000546001600160a01b03166102fe565b61018a6103353660046117d6565b610b4a565b61018a6103483660046117d6565b610bea565b61018a61035b3660046118ec565b610c4d565b600254600160a01b900460ff1661019f565b61018a610380366004611c08565b610cfe565b61018a610393366004611778565b610d68565b61018a6103a63660046118ec565b610f02565b61018a6103b9366004611cb9565b610fd3565b61018a6103cc3660046117d6565b61121b565b61018a6103df3660046117d6565b611294565b6103ed33610593565b15801561040557506000546001600160a01b03163314155b1561042357604051631859551f60e31b815260040160405180910390fd5b6101f481111561044f57604051632789f90560e11b81526101f460048201526024015b60405180910390fd5b60005b8181101561058e5761048483838381811061046f5761046f611cf6565b905060200201602081019061028591906117d6565b6104d45782828281811061049a5761049a611cf6565b90506020020160208101906104af91906117d6565b604051634e02340f60e01b81526001600160a01b039091166004820152602401610446565b600760008484848181106104ea576104ea611cf6565b90506020020160208101906104ff91906117d6565b6001600160a01b031681526020810191909152604001600020805460ff1916905582828281811061053257610532611cf6565b905060200201602081019061054791906117d6565b6001600160a01b03167ffdb22628e87f888d060acc53d048a6a8400a5024f81f9dcb0606e723f238864a60405160405180910390a28061058681611d22565b915050610452565b505050565b60006105a060018361134d565b92915050565b6105af33610593565b1580156105c757506000546001600160a01b03163314155b156105e557604051631859551f60e31b815260040160405180910390fd5b6101f483111561060c57604051632789f90560e11b81526101f46004820152602401610446565b60005b838110156107835761271083838381811061062c5761062c611cf6565b90506020020160208101906106419190611d3b565b61ffff1611156106645760405163eb2b61a560e01b815260040160405180910390fd5b82828281811061067657610676611cf6565b905060200201602081019061068b9190611d3b565b600860008787858181106106a1576106a1611cf6565b90506020020160208101906106b691906117d6565b6001600160a01b031681526020810191909152604001600020805461ffff191661ffff929092169190911790558484828181106106f5576106f5611cf6565b905060200201602081019061070a91906117d6565b6001600160a01b03167fd254de1c4bdaafc52898e46f43ed993ee35724d55a0df75ebcb55f9f6c470dab84848481811061074657610746611cf6565b905060200201602081019061075b9190611d3b565b60405161ffff909116815260200160405180910390a28061077b81611d22565b91505061060f565b5050505050565b6003546001600160a01b0382166000908152600860205260408120549091612710916107ba919061ffff16611d56565b6107c49190611d6d565b6003546105a09190611d8f565b6001600160a01b031660009081526007602052604090205460ff1690565b6107f76113d0565b6001600160a01b03811661081e5760405163d92e233d60e01b815260040160405180910390fd5b600280546001600160a01b0319166001600160a01b0383169081179091556040517f1edf3afd4ac789736e00d216cd88be164ddcef26a6eedcc30cdb0cb62f3741b190600090a250565b6108706113d0565b6001600160a01b038216158061088d57506001600160a01b038116155b156108ab5760405163d92e233d60e01b815260040160405180910390fd5b6003839055600480546001600160a01b03199081166001600160a01b038581169182179093556005805490921692841692831790915560405185907f62aa79f6e449920637ad5310ea6ef9c67a32aaa6a8b98cd6814452daf11213a390600090a4505050565b6109196113d0565b610923600061142a565b565b61092e33610593565b15801561094657506000546001600160a01b03163314155b1561096457604051631859551f60e31b815260040160405180910390fd5b6127108161ffff16111561098b5760405163eb2b61a560e01b815260040160405180910390fd5b6001600160a01b038216600081815260086020908152604091829020805461ffff191661ffff861690811790915591519182527fd254de1c4bdaafc52898e46f43ed993ee35724d55a0df75ebcb55f9f6c470dab910160405180910390a25050565b6109f56113d0565b6001600160a01b038116610a4b5760405162461bcd60e51b815260206004820152601f60248201527f696e76616c696420617267756d656e74202d207a65726f2061646472657373006044820152606401610446565b610a5660018261147a565b6040516001600160a01b038216907ff68e73cec97f2d70aa641fb26e87a4383686e2efacb648f2165aeb02ac562ec590600090a250565b610a9633610593565b158015610aae57506000546001600160a01b03163314155b15610acc57604051631859551f60e31b815260040160405180910390fd5b610ad5816107d1565b15610afe576040516375c2ceb960e11b81526001600160a01b0382166004820152602401610446565b6001600160a01b038116600081815260076020526040808220805460ff19166001179055517f861a21548a3ee34d896ccac3668a9d65030aaf2cb7367a2ed13608014016a0329190a250565b610b526113d0565b6001600160a01b038116610ba85760405162461bcd60e51b815260206004820152601f60248201527f696e76616c696420617267756d656e74202d207a65726f2061646472657373006044820152606401610446565b610bb36001826114f6565b6040516001600160a01b038216907fed9c8ad8d5a0a66898ea49d2956929c93ae2e8bd50281b2ed897c5d1a6737e0b90600090a250565b610bf26113d0565b60025460405163f2fde38b60e01b81526001600160a01b0383811660048301529091169063f2fde38b90602401600060405180830381600087803b158015610c3957600080fd5b505af1158015610783573d6000803e3d6000fd5b610c556113d0565b60065460ff161515811515148015610c6f57506001811515145b15610c8d576040516360d38b9560e01b815260040160405180910390fd5b60065460ff161515811515148015610ca3575080155b15610cc1576040516398e8f30360e01b815260040160405180910390fd5b6006805460ff19168215159081179091556040517f576845931000b1b98d2173829911e0db5a788158585b3da38572ec01552217d590600090a250565b600581511115610d2457604051632789f90560e11b815260056004820152602401610446565b60005b8151811015610d6457610d52828281518110610d4557610d45611cf6565b6020026020010151610fd3565b80610d5c81611d22565b915050610d27565b5050565b610d7133610593565b158015610d8957506000546001600160a01b03163314155b15610da757604051631859551f60e31b815260040160405180910390fd5b6101f4811115610dce57604051632789f90560e11b81526101f46004820152602401610446565b60005b8181101561058e57610dee83838381811061046f5761046f611cf6565b15610e3f57828282818110610e0557610e05611cf6565b9050602002016020810190610e1a91906117d6565b6040516375c2ceb960e11b81526001600160a01b039091166004820152602401610446565b600160076000858585818110610e5757610e57611cf6565b9050602002016020810190610e6c91906117d6565b6001600160a01b031681526020810191909152604001600020805460ff1916911515919091179055828282818110610ea657610ea6611cf6565b9050602002016020810190610ebb91906117d6565b6001600160a01b03167f861a21548a3ee34d896ccac3668a9d65030aaf2cb7367a2ed13608014016a03260405160405180910390a280610efa81611d22565b915050610dd1565b610f0a6113d0565b600260149054906101000a900460ff161515811515148015610f2e57506001811515145b15610f4c57604051634cc2b9b760e01b815260040160405180910390fd5b600260149054906101000a900460ff161515811515148015610f6c575080155b15610f8a5760405163593cdd5360e11b815260040160405180910390fd5b6002805460ff60a01b1916600160a01b831515908102919091179091556040517ff8be33baa430c4b62d2c9d79ab319d10cc41755a1fb65f85e64ca0632c29d0a490600090a250565b600254600160a01b900460ff16158015610ff35750610ff1336107d1565b155b1561101157604051632deadb8b60e21b815260040160405180910390fd5b600254600160a01b900460ff1615156001148015611039575080516001600160a01b03163314155b801561104b5750611049336107d1565b155b15611069576040516318f44adb60e01b815260040160405180910390fd5b60065460009060ff16151560010361113957600354158015906110a257503360009081526008602052604090205461271061ffff909116105b15611139576110b03361078a565b600480546005546040516323b872dd60e01b815233938101939093526001600160a01b0390811660248401526044830184905292935091909116906323b872dd906064016020604051808303816000875af1158015611113573d6000803e3d6000fd5b505050506040513d601f19601f820116820180604052508101906111379190611da2565b505b60006111488360000151611578565b60208085015160405161115c939201611de3565b60408051601f198184030181529082905260025463f49342cd60e01b83529092506001600160a01b03169063f49342cd9061119d9084908790600401611e93565b600060405180830381600087803b1580156111b757600080fd5b505af11580156111cb573d6000803e3d6000fd5b50508451604080516001600160a01b039092168252602082018690523393507f3ddb07c2df247d32c71cd94e46f101dd4a4bcd5ce07afc925673aa63ba24960e92500160405180910390a2505050565b6112236113d0565b6001600160a01b0381166112885760405162461bcd60e51b815260206004820152602660248201527f4f776e61626c653a206e6577206f776e657220697320746865207a65726f206160448201526564647265737360d01b6064820152608401610446565b6112918161142a565b50565b61129d33610593565b1580156112b557506000546001600160a01b03163314155b156112d357604051631859551f60e31b815260040160405180910390fd5b6112dc816107d1565b61130457604051634e02340f60e01b81526001600160a01b0382166004820152602401610446565b6001600160a01b038116600081815260076020526040808220805460ff19169055517ffdb22628e87f888d060acc53d048a6a8400a5024f81f9dcb0606e723f238864a9190a250565b60006001600160a01b0382166113b05760405162461bcd60e51b815260206004820152602260248201527f526f6c65733a206163636f756e7420697320746865207a65726f206164647265604482015261737360f01b6064820152608401610446565b506001600160a01b03166000908152602091909152604090205460ff1690565b6000546001600160a01b031633146109235760405162461bcd60e51b815260206004820181905260248201527f4f776e61626c653a2063616c6c6572206973206e6f7420746865206f776e65726044820152606401610446565b600080546001600160a01b038381166001600160a01b0319831681178455604051919092169283917f8be0079c531659141344cd1fd0a4f28419497f9722a3daafe3b4186f6b6457e09190a35050565b611484828261134d565b156114d15760405162461bcd60e51b815260206004820152601f60248201527f526f6c65733a206163636f756e7420616c72656164792068617320726f6c65006044820152606401610446565b6001600160a01b0316600090815260209190915260409020805460ff19166001179055565b611500828261134d565b6115565760405162461bcd60e51b815260206004820152602160248201527f526f6c65733a206163636f756e7420646f6573206e6f74206861766520726f6c6044820152606560f81b6064820152608401610446565b6001600160a01b0316600090815260209190915260409020805460ff19169055565b60606105a06001600160a01b038316601460606000611598836002611d56565b6115a3906002611f68565b67ffffffffffffffff8111156115bb576115bb611909565b6040519080825280601f01601f1916602001820160405280156115e5576020820181803683370190505b509050600360fc1b8160008151811061160057611600611cf6565b60200101906001600160f81b031916908160001a905350600f60fb1b8160018151811061162f5761162f611cf6565b60200101906001600160f81b031916908160001a9053506000611653846002611d56565b61165e906001611f68565b90505b60018111156116d6576f181899199a1a9b1b9c1cb0b131b232b360811b85600f166010811061169257611692611cf6565b1a60f81b8282815181106116a8576116a8611cf6565b60200101906001600160f81b031916908160001a90535060049490941c936116cf81611f7b565b9050611661565b5083156117255760405162461bcd60e51b815260206004820181905260248201527f537472696e67733a20686578206c656e67746820696e73756666696369656e746044820152606401610446565b9392505050565b60008083601f84011261173e57600080fd5b50813567ffffffffffffffff81111561175657600080fd5b6020830191508360208260051b850101111561177157600080fd5b9250929050565b6000806020838503121561178b57600080fd5b823567ffffffffffffffff8111156117a257600080fd5b6117ae8582860161172c565b90969095509350505050565b80356001600160a01b03811681146117d157600080fd5b919050565b6000602082840312156117e857600080fd5b611725826117ba565b6000806000806040858703121561180757600080fd5b843567ffffffffffffffff8082111561181f57600080fd5b61182b8883890161172c565b9096509450602087013591508082111561184457600080fd5b506118518782880161172c565b95989497509550505050565b60008060006060848603121561187257600080fd5b83359250611882602085016117ba565b9150611890604085016117ba565b90509250925092565b803561ffff811681146117d157600080fd5b600080604083850312156118be57600080fd5b6118c7836117ba565b91506118d560208401611899565b90509250929050565b801515811461129157600080fd5b6000602082840312156118fe57600080fd5b8135611725816118de565b634e487b7160e01b600052604160045260246000fd5b60405160c0810167ffffffffffffffff8111828210171561194257611942611909565b60405290565b604051601f8201601f1916810167ffffffffffffffff8111828210171561197157611971611909565b604052919050565b600067ffffffffffffffff82111561199357611993611909565b5060051b60200190565b600067ffffffffffffffff8311156119b7576119b7611909565b6119ca601f8401601f1916602001611948565b90508281528383830111156119de57600080fd5b828260208301376000602084830101529392505050565b600082601f830112611a0657600080fd5b6117258383356020850161199d565b803560ff811681146117d157600080fd5b600082601f830112611a3757600080fd5b81356020611a4c611a4783611979565b611948565b82815260059290921b84018101918181019086841115611a6b57600080fd5b8286015b84811015611a8d57611a80816117ba565b8352918301918301611a6f565b509695505050505050565b600082601f830112611aa957600080fd5b81356020611ab9611a4783611979565b82815260059290921b84018101918181019086841115611ad857600080fd5b8286015b84811015611a8d57803567ffffffffffffffff811115611afc5760008081fd5b8701603f81018913611b0e5760008081fd5b611b1f89868301356040840161199d565b845250918301918301611adc565b600060c08284031215611b3f57600080fd5b611b4761191f565b9050611b52826117ba565b8152602082013567ffffffffffffffff80821115611b6f57600080fd5b611b7b858386016119f5565b60208401526040840135915080821115611b9457600080fd5b611ba0858386016119f5565b6040840152611bb160608501611a15565b60608401526080840135915080821115611bca57600080fd5b611bd685838601611a26565b608084015260a0840135915080821115611bef57600080fd5b50611bfc84828501611a98565b60a08301525092915050565b60006020808385031215611c1b57600080fd5b823567ffffffffffffffff80821115611c3357600080fd5b818501915085601f830112611c4757600080fd5b8135611c55611a4782611979565b81815260059190911b83018401908481019088831115611c7457600080fd5b8585015b83811015611cac57803585811115611c905760008081fd5b611c9e8b89838a0101611b2d565b845250918601918601611c78565b5098975050505050505050565b600060208284031215611ccb57600080fd5b813567ffffffffffffffff811115611ce257600080fd5b611cee84828501611b2d565b949350505050565b634e487b7160e01b600052603260045260246000fd5b634e487b7160e01b600052601160045260246000fd5b600060018201611d3457611d34611d0c565b5060010190565b600060208284031215611d4d57600080fd5b61172582611899565b80820281158282048414176105a0576105a0611d0c565b600082611d8a57634e487b7160e01b600052601260045260246000fd5b500490565b818103818111156105a0576105a0611d0c565b600060208284031215611db457600080fd5b8151611725816118de565b60005b83811015611dda578181015183820152602001611dc2565b50506000910152565b60008351611df5818460208801611dbf565b835190830190611e09818360208801611dbf565b01949350505050565b60008151808452611e2a816020860160208601611dbf565b601f01601f19169290920160200192915050565b600081518084526020808501808196508360051b8101915082860160005b85811015611e86578284038952611e74848351611e12565b98850198935090840190600101611e5c565b5091979650505050505050565b604081526000611ea66040830185611e12565b60208382038185015260018060a01b038086511683528186015160c083850152611ed360c0850182611e12565b905060408701518482036040860152611eec8282611e12565b91505060ff60608801511660608501526080870151848203608086015281815180845285840191508583019350600092505b80831015611f4057835185168252928501926001929092019190850190611f1e565b5060a0890151945085810360a0870152611f5a8186611e3e565b9a9950505050505050505050565b808201808211156105a0576105a0611d0c565b600081611f8a57611f8a611d0c565b50600019019056fea26469706673582212200b2a3da741363bc0174785e2b732f7684e9fa21f6c49e091f1c2d6eea8081d1164736f6c63430008110033",
  "linkReferences": {},
  "deployedLinkReferences": {}
}