{
  "_format": "hh-sol-artifact-1",
  "contractName": "TREXGateway",
  "sourceName": "contracts/TREX/factory/TREXGateway.sol",
  "abi": [
    {
      "inputs": [
        {
          "internalType": "address",
          "name": "factory",
          "type": "address"
        },
        {
          "internalType": "bool",
          "name": "publicDeploymentStatus",
          "type": "bool"
        }
      ],
      "stateMutability": "nonpayable",
      "type": "constructor"
    },
    {
      "inputs": [
        {
          "internalType": "uint16",
          "name": "lengthLimit",
          "type": "uint16"
        }
      ],
      "name": "BatchMaxLengthExceeded",
      "type": "error"
    },
    {
      "inputs": [
        {
          "internalType": "address",
          "name": "deployer",
          "type": "address"
        }
      ],
      "name": "DeployerAlreadyExists",
      "type": "error"
    },
    {
      "inputs": [
        {
          "internalType": "address",
          "name": "deployer",
          "type": "address"
        }
      ],
      "name": "DeployerDoesNotExist",
      "type": "error"
    },
    {
      "inputs": [],
      "name": "DeploymentFeesAlreadyDisabled",
      "type": "error"
    },
    {
      "inputs": [],
      "name": "DeploymentFeesAlreadyEnabled",
      "type": "error"
    },
    {
      "inputs": [],
      "name": "DiscountOutOfRange",
      "type": "error"
    },
    {
      "inputs": [],
      "name": "OnlyAdminCall",
      "type": "error"
    },
    {
      "inputs": [],
      "name": "PublicCannotDeployOnBehalf",
      "type": "error"
    },
    {
      "inputs": [],
      "name": "PublicDeploymentAlreadyDisabled",
      "type": "error"
    },
    {
      "inputs": [],
      "name": "PublicDeploymentAlreadyEnabled",
      "type": "error"
    },
    {
      "inputs": [],
      "name": "PublicDeploymentsNotAllowed",
      "type": "error"
    },
    {
      "inputs": [],
      "name": "ZeroAddress",
      "type": "error"
    },
    {
      "anonymous": false,
      "inputs": [
        {
          "indexed": true,
          "internalType": "address",
          "name": "_agent",
          "type": "address"
        }
      ],
      "name": "AgentAdded",
      "type": "event"
    },
    {
      "anonymous": false,
      "inputs": [
        {
          "indexed": true,
          "internalType": "address",
          "name": "_agent",
          "type": "address"
        }
      ],
      "name": "AgentRemoved",
      "type": "event"
    },
    {
      "anonymous": false,
      "inputs": [
        {
          "indexed": true,
          "internalType": "address",
          "name": "deployer",
          "type": "address"
        }
      ],
      "name": "DeployerAdded",
      "type": "event"
    },
    {
      "anonymous": false,
      "inputs": [
        {
          "indexed": true,
          "internalType": "address",
          "name": "deployer",
          "type": "address"
        }
      ],
      "name": "DeployerRemoved",
      "type": "event"
    },
    {
      "anonymous": false,
      "inputs": [
        {
          "indexed": true,
          "internalType": "bool",
          "name": "isEnabled",
          "type": "bool"
        }
      ],
      "name": "DeploymentFeeEnabled",
      "type": "event"
    },
    {
      "anonymous": false,
      "inputs": [
        {
          "indexed": true,
          "internalType": "uint256",
          "name": "fee",
          "type": "uint256"
        },
        {
          "indexed": true,
          "internalType": "address",
          "name": "feeToken",
          "type": "address"
        },
        {
          "indexed": true,
          "internalType": "address",
          "name": "feeCollector",
          "type": "address"
        }
      ],
      "name": "DeploymentFeeSet",
      "type": "event"
    },
    {
      "anonymous": false,
      "inputs": [
        {
          "indexed": true,
          "internalType": "address",
          "name": "factory",
          "type": "address"
        }
      ],
      "name": "FactorySet",
      "type": "event"
    },
    {
      "anonymous": false,
      "inputs": [
        {
          "indexed": true,
          "internalType": "address",
          "name": "deployer",
          "type": "address"
        },
        {
          "indexed": false,
          "internalType": "uint16",
          "name": "discount",
          "type": "uint16"
        }
      ],
      "name": "FeeDiscountApplied",
      "type": "event"
    },
    {
      "anonymous": false,
      "inputs": [
        {
          "indexed": true,
          "internalType": "address",
          "name": "requester",
          "type": "address"
        },
        {
          "indexed": false,
          "internalType": "address",
          "name": "intendedOwner",
          "type": "address"
        },
        {
          "indexed": false,
          "internalType": "uint256",
          "name": "feeApplied",
          "type": "uint256"
        }
      ],
      "name": "GatewaySuiteDeploymentProcessed",
      "type": "event"
    },
    {
      "anonymous": false,
      "inputs": [
        {
          "indexed": true,
          "internalType": "address",
          "name": "previousOwner",
          "type": "address"
        },
        {
          "indexed": true,
          "internalType": "address",
          "name": "newOwner",
          "type": "address"
        }
      ],
      "name": "OwnershipTransferred",
      "type": "event"
    },
    {
      "anonymous": false,
      "inputs": [
        {
          "indexed": true,
          "internalType": "bool",
          "name": "publicDeploymentStatus",
          "type": "bool"
        }
      ],
      "name": "PublicDeploymentStatusSet",
      "type": "event"
    },
    {
      "inputs": [
        {
          "internalType": "address",
          "name": "_agent",
          "type": "address"
        }
      ],
      "name": "addAgent",
      "outputs": [],
      "stateMutability": "nonpayable",
      "type": "function"
    },
    {
      "inputs": [
        {
          "internalType": "address",
          "name": "deployer",
          "type": "address"
        }
      ],
      "name": "addDeployer",
      "outputs": [],
      "stateMutability": "nonpayable",
      "type": "function"
    },
    {
      "inputs": [
        {
          "internalType": "address",
          "name": "deployer",
          "type": "address"
        },
        {
          "internalType": "uint16",
          "name": "discount",
          "type": "uint16"
        }
      ],
      "name": "applyFeeDiscount",
      "outputs": [],
      "stateMutability": "nonpayable",
      "type": "function"
    },
    {
      "inputs": [
        {
          "internalType": "address[]",
          "name": "deployers",
          "type": "address[]"
        }
      ],
      "name": "batchAddDeployer",
      "outputs": [],
      "stateMutability": "nonpayable",
      "type": "function"
    },
    {
      "inputs": [
        {
          "internalType": "address[]",
          "name": "deployers",
          "type": "address[]"
        },
        {
          "internalType": "uint16[]",
          "name": "discounts",
          "type": "uint16[]"
        }
      ],
      "name": "batchApplyFeeDiscount",
      "outputs": [],
      "stateMutability": "nonpayable",
      "type": "function"
    },
    {
      "inputs": [
        {
          "components": [
            {
              "internalType": "address",
              "name": "owner",
              "type": "address"
            },
            {
              "internalType": "string",
              "name": "name",
              "type": "string"
            },
            {
              "internalType": "string",
              "name": "symbol",
              "type": "string"
            },
            {
              "internalType": "uint8",
              "name": "decimals",
              "type": "uint8"
            },
            {
              "internalType": "address[]",
              "name": "complianceModules",
              "type": "address[]"
            },
            {
              "internalType": "bytes[]",
              "name": "complianceSettings",
              "type": "bytes[]"
            }
          ],
          "internalType": "struct ITREXFactory.TokenDetails[]",
          "name": "_tokenDetails",
          "type": "tuple[]"
        },
        {
          "components": [
            {
              "internalType": "uint256[]",
              "name": "claimTopics",
              "type": "uint256[]"
            },
            {
              "internalType": "address[]",
              "name": "issuers",
              "type": "address[]"
            },
            {
              "internalType": "uint256[][]",
              "name": "issuerClaims",
              "type": "uint256[][]"
            }
          ],
          "internalType": "struct ITREXFactory.ClaimDetails[]",
          "name": "_claimDetails",
          "type": "tuple[]"
        }
      ],
      "name": "batchDeployTREXSuite",
      "outputs": [],
      "stateMutability": "nonpayable",
      "type": "function"
    },
    {
      "inputs": [
        {
          "internalType": "address[]",
          "name": "deployers",
          "type": "address[]"
        }
      ],
      "name": "batchRemoveDeployer",
      "outputs": [],
      "stateMutability": "nonpayable",
      "type": "function"
    },
    {
      "inputs": [
        {
          "internalType": "address",
          "name": "deployer",
          "type": "address"
        }
      ],
      "name": "calculateFee",
      "outputs": [
        {
          "internalType": "uint256",
          "name": "",
          "type": "uint256"
        }
      ],
      "stateMutability": "view",
      "type": "function"
    },
    {
      "inputs": [
        {
          "components": [
            {
              "internalType": "address",
              "name": "owner",
              "type": "address"
            },
            {
              "internalType": "string",
              "name": "name",
              "type": "string"
            },
            {
              "internalType": "string",
              "name": "symbol",
              "type": "string"
            },
            {
              "internalType": "uint8",
              "name": "decimals",
              "type": "uint8"
            },
            {
              "internalType": "address[]",
              "name": "complianceModules",
              "type": "address[]"
            },
            {
              "internalType": "bytes[]",
              "name": "complianceSettings",
              "type": "bytes[]"
            }
          ],
          "internalType": "struct ITREXFactory.TokenDetails",
          "name": "_tokenDetails",
          "type": "tuple"
        },
        {
          "components": [
            {
              "internalType": "uint256[]",
              "name": "claimTopics",
              "type": "uint256[]"
            },
            {
              "internalType": "address[]",
              "name": "issuers",
              "type": "address[]"
            },
            {
              "internalType": "uint256[][]",
              "name": "issuerClaims",
              "type": "uint256[][]"
            }
          ],
          "internalType": "struct ITREXFactory.ClaimDetails",
          "name": "_claimDetails",
          "type": "tuple"
        }
      ],
      "name": "deployTREXSuite",
      "outputs": [],
      "stateMutability": "nonpayable",
      "type": "function"
    },
    {
      "inputs": [
        {
          "internalType": "bool",
          "name": "_isEnabled",
          "type": "bool"
        }
      ],
      "name": "enableDeploymentFee",
      "outputs": [],
      "stateMutability": "nonpayable",
      "type": "function"
    },
    {
      "inputs": [],
      "name": "getDeploymentFee",
      "outputs": [
        {
          "components": [
            {
              "internalType": "uint256",
              "name": "fee",
              "type": "uint256"
            },
            {
              "internalType": "address",
              "name": "feeToken",
              "type": "address"
            },
            {
              "internalType": "address",
              "name": "feeCollector",
              "type": "address"
            }
          ],
          "internalType": "struct ITREXGateway.Fee",
          "name": "",
          "type": "tuple"
        }
      ],
      "stateMutability": "view",
      "type": "function"
    },
    {
      "inputs": [],
      "name": "getFactory",
      "outputs": [
        {
          "internalType": "address",
          "name": "",
          "type": "address"
        }
      ],
      "stateMutability": "view",
      "type": "function"
    },
    {
      "inputs": [],
      "name": "getPublicDeploymentStatus",
      "outputs": [
        {
          "internalType": "bool",
          "name": "",
          "type": "bool"
        }
      ],
      "stateMutability": "view",
      "type": "function"
    },
    {
      "inputs": [
        {
          "internalType": "address",
          "name": "_agent",
          "type": "address"
        }
      ],
      "name": "isAgent",
      "outputs": [
        {
          "internalType": "bool",
          "name": "",
          "type": "bool"
        }
      ],
      "stateMutability": "view",
      "type": "function"
    },
    {
      "inputs": [
        {
          "internalType": "address",
          "name": "deployer",
          "type": "address"
        }
      ],
      "name": "isDeployer",
      "outputs": [
        {
          "internalType": "bool",
          "name": "",
          "type": "bool"
        }
      ],
      "stateMutability": "view",
      "type": "function"
    },
    {
      "inputs": [],
      "name": "isDeploymentFeeEnabled",
      "outputs": [
        {
          "internalType": "bool",
          "name": "",
          "type": "bool"
        }
      ],
      "stateMutability": "view",
      "type": "function"
    },
    {
      "inputs": [],
      "name": "owner",
      "outputs": [
        {
          "internalType": "address",
          "name": "",
          "type": "address"
        }
      ],
      "stateMutability": "view",
      "type": "function"
    },
    {
      "inputs": [
        {
          "internalType": "address",
          "name": "_agent",
          "type": "address"
        }
      ],
      "name": "removeAgent",
      "outputs": [],
      "stateMutability": "nonpayable",
      "type": "function"
    },
    {
      "inputs": [
        {
          "internalType": "address",
          "name": "deployer",
          "type": "address"
        }
      ],
      "name": "removeDeployer",
      "outputs": [],
      "stateMutability": "nonpayable",
      "type": "function"
    },
    {
      "inputs": [],
      "name": "renounceOwnership",
      "outputs": [],
      "stateMutability": "nonpayable",
      "type": "function"
    },
    {
      "inputs": [
        {
          "internalType": "uint256",
          "name": "_fee",
          "type": "uint256"
        },
        {
          "internalType": "address",
          "name": "_feeToken",
          "type": "address"
        },
        {
          "internalType": "address",
          "name": "_feeCollector",
          "type": "address"
        }
      ],
      "name": "setDeploymentFee",
      "outputs": [],
      "stateMutability": "nonpayable",
      "type": "function"
    },
    {
      "inputs": [
        {
          "internalType": "address",
          "name": "factory",
          "type": "address"
        }
      ],
      "name": "setFactory",
      "outputs": [],
      "stateMutability": "nonpayable",
      "type": "function"
    },
    {
      "inputs": [
        {
          "internalType": "bool",
          "name": "_isEnabled",
          "type": "bool"
        }
      ],
      "name": "setPublicDeploymentStatus",
      "outputs": [],
      "stateMutability": "nonpayable",
      "type": "function"
    },
    {
      "inputs": [
        {
          "internalType": "address",
          "name": "_newOwner",
          "type": "address"
        }
      ],
      "name": "transferFactoryOwnership",
      "outputs": [],
      "stateMutability": "nonpayable",
      "type": "function"
    },
    {
      "inputs": [
        {
          "internalType": "address",
          "name": "newOwner",
          "type": "address"
        }
      ],
      "name": "transferOwnership",
      "outputs": [],
      "stateMutability": "nonpayable",
      "type": "function"
    }
  ],
  "bytecode": "0x60806040523480156200001157600080fd5b506040516200238938038062002389833981016040819052620000349162000116565b6200003f33620000c6565b600280546001600160a01b0384166001600160a81b03199091168117600160a01b84151502179091556040517f1edf3afd4ac789736e00d216cd88be164ddcef26a6eedcc30cdb0cb62f3741b190600090a2604051811515907ff8be33baa430c4b62d2c9d79ab319d10cc41755a1fb65f85e64ca0632c29d0a490600090a2505062000164565b600080546001600160a01b038381166001600160a01b0319831681178455604051919092169283917f8be0079c531659141344cd1fd0a4f28419497f9722a3daafe3b4186f6b6457e09190a35050565b600080604083850312156200012a57600080fd5b82516001600160a01b03811681146200014257600080fd5b602084015190925080151581146200015957600080fd5b809150509250929050565b61221580620001746000396000f3fe608060405234801561001057600080fd5b50600436106101725760003560e01c806384e79842116100de5780639c5c5ce711610097578063e65811ff11610071578063e65811ff14610398578063eca465c4146103ab578063f2fde38b146103be578063f315df86146103d157600080fd5b80639c5c5ce714610360578063a264f2bd14610373578063bfc2f10b1461038657600080fd5b806384e79842146102de578063851a931c146102f1578063880f40391461030457806388cc58e4146103175780638da5cb5b1461033c57806397a6278e1461034d57600080fd5b806350c358a41161013057806350c358a41461027757806359c1070a1461028a5780635bb478081461029d5780635d46c283146102b0578063715018a6146102c357806375e14cff146102cb57600080fd5b806265939e146101775780631ffbb0641461018c5780632782035e146101b4578063465f5eb8146101c757806346c549cc146101e8578063477068511461026c575b600080fd5b61018a610185366004611792565b6103e4565b005b61019f61019a3660046117ef565b610593565b60405190151581526020015b60405180910390f35b61018a6101c236600461180a565b6105a6565b6101da6101d53660046117ef565b61078a565b6040519081526020016101ab565b6102396040805160608101825260008082526020820181905291810191909152506040805160608101825260035481526004546001600160a01b039081166020830152600554169181019190915290565b60408051825181526020808401516001600160a01b039081169183019190915292820151909216908201526060016101ab565b60065460ff1661019f565b61019f6102853660046117ef565b6107d1565b61018a610298366004611d6b565b6107ef565b61018a6102ab3660046117ef565b61086f565b61018a6102be366004611e3e565b6108e8565b61018a610991565b61018a6102d9366004611e8c565b6109a5565b61018a6102ec3660046117ef565b610a6d565b61018a6102ff366004611ebf565b610b0d565b61018a6103123660046117ef565b610d56565b6002546001600160a01b03165b6040516001600160a01b0390911681526020016101ab565b6000546001600160a01b0316610324565b61018a61035b3660046117ef565b610e13565b61018a61036e3660046117ef565b610eb3565b61018a610381366004611f26565b610f16565b600254600160a01b900460ff1661019f565b61018a6103a6366004611792565b610fc7565b61018a6103b9366004611f26565b611161565b61018a6103cc3660046117ef565b611232565b61018a6103df3660046117ef565b6112ab565b6103ed33610593565b15801561040557506000546001600160a01b03163314155b1561042357604051631859551f60e31b815260040160405180910390fd5b6101f481111561044f57604051632789f90560e11b81526101f460048201526024015b60405180910390fd5b60005b8181101561058e5761048483838381811061046f5761046f611f43565b905060200201602081019061028591906117ef565b6104d45782828281811061049a5761049a611f43565b90506020020160208101906104af91906117ef565b604051634e02340f60e01b81526001600160a01b039091166004820152602401610446565b600760008484848181106104ea576104ea611f43565b90506020020160208101906104ff91906117ef565b6001600160a01b031681526020810191909152604001600020805460ff1916905582828281811061053257610532611f43565b905060200201602081019061054791906117ef565b6001600160a01b03167ffdb22628e87f888d060acc53d048a6a8400a5024f81f9dcb0606e723f238864a60405160405180910390a28061058681611f6f565b915050610452565b505050565b60006105a0600183611364565b92915050565b6105af33610593565b1580156105c757506000546001600160a01b03163314155b156105e557604051631859551f60e31b815260040160405180910390fd5b6101f483111561060c57604051632789f90560e11b81526101f46004820152602401610446565b60005b838110156107835761271083838381811061062c5761062c611f43565b90506020020160208101906106419190611f88565b61ffff1611156106645760405163eb2b61a560e01b815260040160405180910390fd5b82828281811061067657610676611f43565b905060200201602081019061068b9190611f88565b600860008787858181106106a1576106a1611f43565b90506020020160208101906106b691906117ef565b6001600160a01b031681526020810191909152604001600020805461ffff191661ffff929092169190911790558484828181106106f5576106f5611f43565b905060200201602081019061070a91906117ef565b6001600160a01b03167fd254de1c4bdaafc52898e46f43ed993ee35724d55a0df75ebcb55f9f6c470dab84848481811061074657610746611f43565b905060200201602081019061075b9190611f88565b60405161ffff909116815260200160405180910390a28061077b81611f6f565b91505061060f565b5050505050565b6003546001600160a01b0382166000908152600860205260408120549091612710916107ba919061ffff16611fa3565b6107c49190611fba565b6003546105a09190611fdc565b6001600160a01b031660009081526007602052604090205460ff1690565b60058251111561081557604051632789f90560e11b815260056004820152602401610446565b60005b825181101561058e5761085d83828151811061083657610836611f43565b602002602001015183838151811061085057610850611f43565b6020026020010151610b0d565b8061086781611f6f565b915050610818565b6108776113e7565b6001600160a01b03811661089e5760405163d92e233d60e01b815260040160405180910390fd5b600280546001600160a01b0319166001600160a01b0383169081179091556040517f1edf3afd4ac789736e00d216cd88be164ddcef26a6eedcc30cdb0cb62f3741b190600090a250565b6108f06113e7565b6001600160a01b038216158061090d57506001600160a01b038116155b1561092b5760405163d92e233d60e01b815260040160405180910390fd5b6003839055600480546001600160a01b03199081166001600160a01b038581169182179093556005805490921692841692831790915560405185907f62aa79f6e449920637ad5310ea6ef9c67a32aaa6a8b98cd6814452daf11213a390600090a4505050565b6109996113e7565b6109a36000611441565b565b6109ae33610593565b1580156109c657506000546001600160a01b03163314155b156109e457604051631859551f60e31b815260040160405180910390fd5b6127108161ffff161115610a0b5760405163eb2b61a560e01b815260040160405180910390fd5b6001600160a01b038216600081815260086020908152604091829020805461ffff191661ffff861690811790915591519182527fd254de1c4bdaafc52898e46f43ed993ee35724d55a0df75ebcb55f9f6c470dab910160405180910390a25050565b610a756113e7565b6001600160a01b038116610acb5760405162461bcd60e51b815260206004820152601f60248201527f696e76616c696420617267756d656e74202d207a65726f2061646472657373006044820152606401610446565b610ad6600182611491565b6040516001600160a01b038216907ff68e73cec97f2d70aa641fb26e87a4383686e2efacb648f2165aeb02ac562ec590600090a250565b600254600160a01b900460ff16158015610b2d5750610b2b336107d1565b155b15610b4b57604051632deadb8b60e21b815260040160405180910390fd5b600254600160a01b900460ff1615156001148015610b73575081516001600160a01b03163314155b8015610b855750610b83336107d1565b155b15610ba3576040516318f44adb60e01b815260040160405180910390fd5b60065460009060ff161515600103610c735760035415801590610bdc57503360009081526008602052604090205461271061ffff909116105b15610c7357610bea3361078a565b600480546005546040516323b872dd60e01b815233938101939093526001600160a01b0390811660248401526044830184905292935091909116906323b872dd906064016020604051808303816000875af1158015610c4d573d6000803e3d6000fd5b505050506040513d601f19601f82011682018060405250810190610c719190611fef565b505b6000610c82846000015161150d565b602080860151604051610c96939201612030565b60408051601f198184030181529082905260025463f49342cd60e01b83529092506001600160a01b03169063f49342cd90610cd790849088906004016120e0565b600060405180830381600087803b158015610cf157600080fd5b505af1158015610d05573d6000803e3d6000fd5b50508551604080516001600160a01b039092168252602082018690523393507f3ddb07c2df247d32c71cd94e46f101dd4a4bcd5ce07afc925673aa63ba24960e92500160405180910390a250505050565b610d5f33610593565b158015610d7757506000546001600160a01b03163314155b15610d9557604051631859551f60e31b815260040160405180910390fd5b610d9e816107d1565b15610dc7576040516375c2ceb960e11b81526001600160a01b0382166004820152602401610446565b6001600160a01b038116600081815260076020526040808220805460ff19166001179055517f861a21548a3ee34d896ccac3668a9d65030aaf2cb7367a2ed13608014016a0329190a250565b610e1b6113e7565b6001600160a01b038116610e715760405162461bcd60e51b815260206004820152601f60248201527f696e76616c696420617267756d656e74202d207a65726f2061646472657373006044820152606401610446565b610e7c600182611523565b6040516001600160a01b038216907fed9c8ad8d5a0a66898ea49d2956929c93ae2e8bd50281b2ed897c5d1a6737e0b90600090a250565b610ebb6113e7565b60025460405163f2fde38b60e01b81526001600160a01b0383811660048301529091169063f2fde38b90602401600060405180830381600087803b158015610f0257600080fd5b505af1158015610783573d6000803e3d6000fd5b610f1e6113e7565b60065460ff161515811515148015610f3857506001811515145b15610f56576040516360d38b9560e01b815260040160405180910390fd5b60065460ff161515811515148015610f6c575080155b15610f8a576040516398e8f30360e01b815260040160405180910390fd5b6006805460ff19168215159081179091556040517f576845931000b1b98d2173829911e0db5a788158585b3da38572ec01552217d590600090a250565b610fd033610593565b158015610fe857506000546001600160a01b03163314155b1561100657604051631859551f60e31b815260040160405180910390fd5b6101f481111561102d57604051632789f90560e11b81526101f46004820152602401610446565b60005b8181101561058e5761104d83838381811061046f5761046f611f43565b1561109e5782828281811061106457611064611f43565b905060200201602081019061107991906117ef565b6040516375c2ceb960e11b81526001600160a01b039091166004820152602401610446565b6001600760008585858181106110b6576110b6611f43565b90506020020160208101906110cb91906117ef565b6001600160a01b031681526020810191909152604001600020805460ff191691151591909117905582828281811061110557611105611f43565b905060200201602081019061111a91906117ef565b6001600160a01b03167f861a21548a3ee34d896ccac3668a9d65030aaf2cb7367a2ed13608014016a03260405160405180910390a28061115981611f6f565b915050611030565b6111696113e7565b600260149054906101000a900460ff16151581151514801561118d57506001811515145b156111ab57604051634cc2b9b760e01b815260040160405180910390fd5b600260149054906101000a900460ff1615158115151480156111cb575080155b156111e95760405163593cdd5360e11b815260040160405180910390fd5b6002805460ff60a01b1916600160a01b831515908102919091179091556040517ff8be33baa430c4b62d2c9d79ab319d10cc41755a1fb65f85e64ca0632c29d0a490600090a250565b61123a6113e7565b6001600160a01b03811661129f5760405162461bcd60e51b815260206004820152602660248201527f4f776e61626c653a206e6577206f776e657220697320746865207a65726f206160448201526564647265737360d01b6064820152608401610446565b6112a881611441565b50565b6112b433610593565b1580156112cc57506000546001600160a01b03163314155b156112ea57604051631859551f60e31b815260040160405180910390fd5b6112f3816107d1565b61131b57604051634e02340f60e01b81526001600160a01b0382166004820152602401610446565b6001600160a01b038116600081815260076020526040808220805460ff19169055517ffdb22628e87f888d060acc53d048a6a8400a5024f81f9dcb0606e723f238864a9190a250565b60006001600160a01b0382166113c75760405162461bcd60e51b815260206004820152602260248201527f526f6c65733a206163636f756e7420697320746865207a65726f206164647265604482015261737360f01b6064820152608401610446565b506001600160a01b03166000908152602091909152604090205460ff1690565b6000546001600160a01b031633146109a35760405162461bcd60e51b815260206004820181905260248201527f4f776e61626c653a2063616c6c6572206973206e6f7420746865206f776e65726044820152606401610446565b600080546001600160a01b038381166001600160a01b0319831681178455604051919092169283917f8be0079c531659141344cd1fd0a4f28419497f9722a3daafe3b4186f6b6457e09190a35050565b61149b8282611364565b156114e85760405162461bcd60e51b815260206004820152601f60248201527f526f6c65733a206163636f756e7420616c72656164792068617320726f6c65006044820152606401610446565b6001600160a01b0316600090815260209190915260409020805460ff19166001179055565b60606105a06001600160a01b03831660146115a5565b61152d8282611364565b6115835760405162461bcd60e51b815260206004820152602160248201527f526f6c65733a206163636f756e7420646f6573206e6f74206861766520726f6c6044820152606560f81b6064820152608401610446565b6001600160a01b0316600090815260209190915260409020805460ff19169055565b606060006115b4836002611fa3565b6115bf9060026121b5565b6001600160401b038111156115d6576115d6611875565b6040519080825280601f01601f191660200182016040528015611600576020820181803683370190505b509050600360fc1b8160008151811061161b5761161b611f43565b60200101906001600160f81b031916908160001a905350600f60fb1b8160018151811061164a5761164a611f43565b60200101906001600160f81b031916908160001a905350600061166e846002611fa3565b6116799060016121b5565b90505b60018111156116f1576f181899199a1a9b1b9c1cb0b131b232b360811b85600f16601081106116ad576116ad611f43565b1a60f81b8282815181106116c3576116c3611f43565b60200101906001600160f81b031916908160001a90535060049490941c936116ea816121c8565b905061167c565b5083156117405760405162461bcd60e51b815260206004820181905260248201527f537472696e67733a20686578206c656e67746820696e73756666696369656e746044820152606401610446565b9392505050565b60008083601f84011261175957600080fd5b5081356001600160401b0381111561177057600080fd5b6020830191508360208260051b850101111561178b57600080fd5b9250929050565b600080602083850312156117a557600080fd5b82356001600160401b038111156117bb57600080fd5b6117c785828601611747565b90969095509350505050565b80356001600160a01b03811681146117ea57600080fd5b919050565b60006020828403121561180157600080fd5b611740826117d3565b6000806000806040858703121561182057600080fd5b84356001600160401b038082111561183757600080fd5b61184388838901611747565b9096509450602087013591508082111561185c57600080fd5b5061186987828801611747565b95989497509550505050565b634e487b7160e01b600052604160045260246000fd5b60405160c081016001600160401b03811182821017156118ad576118ad611875565b60405290565b604051606081016001600160401b03811182821017156118ad576118ad611875565b604051601f8201601f191681016001600160401b03811182821017156118fd576118fd611875565b604052919050565b60006001600160401b0382111561191e5761191e611875565b5060051b60200190565b60006001600160401b0383111561194157611941611875565b611954601f8401601f19166020016118d5565b905082815283838301111561196857600080fd5b828260208301376000602084830101529392505050565b600082601f83011261199057600080fd5b61174083833560208501611928565b803560ff811681146117ea57600080fd5b600082601f8301126119c157600080fd5b813560206119d66119d183611905565b6118d5565b82815260059290921b840181019181810190868411156119f557600080fd5b8286015b84811015611a1757611a0a816117d3565b83529183019183016119f9565b509695505050505050565b600082601f830112611a3357600080fd5b81356020611a436119d183611905565b82815260059290921b84018101918181019086841115611a6257600080fd5b8286015b84811015611a175780356001600160401b03811115611a855760008081fd5b8701603f81018913611a975760008081fd5b611aa8898683013560408401611928565b845250918301918301611a66565b600060c08284031215611ac857600080fd5b611ad061188b565b9050611adb826117d3565b815260208201356001600160401b0380821115611af757600080fd5b611b038583860161197f565b60208401526040840135915080821115611b1c57600080fd5b611b288583860161197f565b6040840152611b396060850161199f565b60608401526080840135915080821115611b5257600080fd5b611b5e858386016119b0565b608084015260a0840135915080821115611b7757600080fd5b50611b8484828501611a22565b60a08301525092915050565b600082601f830112611ba157600080fd5b81356020611bb16119d183611905565b82815260059290921b84018101918181019086841115611bd057600080fd5b8286015b84811015611a175780358352918301918301611bd4565b600060608284031215611bfd57600080fd5b611c056118b3565b905081356001600160401b0380821115611c1e57600080fd5b611c2a85838601611b90565b8352602091508184013581811115611c4157600080fd5b611c4d868287016119b0565b8385015250604084013581811115611c6457600080fd5b8401601f81018613611c7557600080fd5b8035611c836119d182611905565b81815260059190911b82018401908481019088831115611ca257600080fd5b8584015b83811015611cda57803586811115611cbe5760008081fd5b611ccc8b8983890101611b90565b845250918601918601611ca6565b50604087015250939695505050505050565b600082601f830112611cfd57600080fd5b81356020611d0d6119d183611905565b82815260059290921b84018101918181019086841115611d2c57600080fd5b8286015b84811015611a175780356001600160401b03811115611d4f5760008081fd5b611d5d8986838b0101611beb565b845250918301918301611d30565b60008060408385031215611d7e57600080fd5b82356001600160401b0380821115611d9557600080fd5b818501915085601f830112611da957600080fd5b81356020611db96119d183611905565b82815260059290921b84018101918181019089841115611dd857600080fd5b8286015b84811015611e1057803586811115611df45760008081fd5b611e028c86838b0101611ab6565b845250918301918301611ddc565b5096505086013592505080821115611e2757600080fd5b50611e3485828601611cec565b9150509250929050565b600080600060608486031215611e5357600080fd5b83359250611e63602085016117d3565b9150611e71604085016117d3565b90509250925092565b803561ffff811681146117ea57600080fd5b60008060408385031215611e9f57600080fd5b611ea8836117d3565b9150611eb660208401611e7a565b90509250929050565b60008060408385031215611ed257600080fd5b82356001600160401b0380821115611ee957600080fd5b611ef586838701611ab6565b93506020850135915080821115611f0b57600080fd5b50611e3485828601611beb565b80151581146112a857600080fd5b600060208284031215611f3857600080fd5b813561174081611f18565b634e487b7160e01b600052603260045260246000fd5b634e487b7160e01b600052601160045260246000fd5b600060018201611f8157611f81611f59565b5060010190565b600060208284031215611f9a57600080fd5b61174082611e7a565b80820281158282048414176105a0576105a0611f59565b600082611fd757634e487b7160e01b600052601260045260246000fd5b500490565b818103818111156105a0576105a0611f59565b60006020828403121561200157600080fd5b815161174081611f18565b60005b8381101561202757818101518382015260200161200f565b50506000910152565b6000835161204281846020880161200c565b83519083019061205681836020880161200c565b01949350505050565b6000815180845261207781602086016020860161200c565b601f01601f19169290920160200192915050565b600081518084526020808501808196508360051b8101915082860160005b858110156120d35782840389526120c184835161205f565b988501989350908401906001016120a9565b5091979650505050505050565b6040815260006120f3604083018561205f565b60208382038185015260018060a01b038086511683528186015160c08385015261212060c085018261205f565b905060408701518482036040860152612139828261205f565b91505060ff60608801511660608501526080870151848203608086015281815180845285840191508583019350600092505b8083101561218d5783518516825292850192600192909201919085019061216b565b5060a0890151945085810360a08701526121a7818661208b565b9a9950505050505050505050565b808201808211156105a0576105a0611f59565b6000816121d7576121d7611f59565b50600019019056fea2646970667358221220a7f5292a2452a5af5ea3fe9909acd8f38dd393ddd61ce5d81d15fbba59ee34e564736f6c63430008110033",
  "linkReferences": {},
  "deployedLinkReferences": {}
}