{
  "_format": "hh-sol-artifact-1",
  "contractName": "IdentityRegistry",
  "sourceName": "contracts/TREX/registry/implementation/IdentityRegistry.sol",
  "abi": [
    {
      "anonymous": false,
      "inputs": [
        {
          "indexed": true,
          "internalType": "address",
          "name": "_agent",
          "type": "address"
        }
      ],
      "name": "AgentAdded",
      "type": "event"
    },
    {
      "anonymous": false,
      "inputs": [
        {
          "indexed": true,
          "internalType": "address",
          "name": "_agent",
          "type": "address"
        }
      ],
      "name": "AgentRemoved",
      "type": "event"
    },
    {
      "anonymous": false,
      "inputs": [
        {
          "indexed": true,
          "internalType": "address",
          "name": "claimTopicsRegistry",
          "type": "address"
        }
      ],
      "name": "ClaimTopicsRegistrySet",
      "type": "event"
    },
    {
      "anonymous": false,
      "inputs": [
        {
          "indexed": true,
          "internalType": "address",
          "name": "investorAddress",
          "type": "address"
        },
        {
          "indexed": true,
          "internalType": "contract IIdentity",
          "name": "identity",
          "type": "address"
        }
      ],
      "name": "IdentityRegistered",
      "type": "event"
    },
    {
      "anonymous": false,
      "inputs": [
        {
          "indexed": true,
          "internalType": "address",
          "name": "investorAddress",
          "type": "address"
        },
        {
          "indexed": true,
          "internalType": "contract IIdentity",
          "name": "identity",
          "type": "address"
        }
      ],
      "name": "IdentityRemoved",
      "type": "event"
    },
    {
      "anonymous": false,
      "inputs": [
        {
          "indexed": true,
          "internalType": "address",
          "name": "identityStorage",
          "type": "address"
        }
      ],
      "name": "IdentityStorageSet",
      "type": "event"
    },
    {
      "anonymous": false,
      "inputs": [
        {
          "indexed": true,
          "internalType": "contract IIdentity",
          "name": "oldIdentity",
          "type": "address"
        },
        {
          "indexed": true,
          "internalType": "contract IIdentity",
          "name": "newIdentity",
          "type": "address"
        }
      ],
      "name": "IdentityUpdated",
      "type": "event"
    },
    {
      "anonymous": false,
      "inputs": [
        {
          "indexed": false,
          "internalType": "uint8",
          "name": "version",
          "type": "uint8"
        }
      ],
      "name": "Initialized",
      "type": "event"
    },
    {
      "anonymous": false,
      "inputs": [
        {
          "indexed": true,
          "internalType": "address",
          "name": "previousOwner",
          "type": "address"
        },
        {
          "indexed": true,
          "internalType": "address",
          "name": "newOwner",
          "type": "address"
        }
      ],
      "name": "OwnershipTransferred",
      "type": "event"
    },
    {
      "anonymous": false,
      "inputs": [
        {
          "indexed": true,
          "internalType": "address",
          "name": "trustedIssuersRegistry",
          "type": "address"
        }
      ],
      "name": "TrustedIssuersRegistrySet",
      "type": "event"
    },
    {
      "inputs": [
        {
          "internalType": "address",
          "name": "_agent",
          "type": "address"
        }
      ],
      "name": "addAgent",
      "outputs": [],
      "stateMutability": "nonpayable",
      "type": "function"
    },
    {
      "inputs": [
        {
          "internalType": "address[]",
          "name": "_userAddresses",
          "type": "address[]"
        },
        {
          "internalType": "contract IIdentity[]",
          "name": "_identities",
          "type": "address[]"
        }
      ],
      "name": "batchRegisterIdentity",
      "outputs": [],
      "stateMutability": "nonpayable",
      "type": "function"
    },
    {
      "inputs": [
        {
          "internalType": "address",
          "name": "_userAddress",
          "type": "address"
        }
      ],
      "name": "contains",
      "outputs": [
        {
          "internalType": "bool",
          "name": "",
          "type": "bool"
        }
      ],
      "stateMutability": "view",
      "type": "function"
    },
    {
      "inputs": [
        {
          "internalType": "address",
          "name": "_userAddress",
          "type": "address"
        }
      ],
      "name": "deleteIdentity",
      "outputs": [],
      "stateMutability": "nonpayable",
      "type": "function"
    },
    {
      "inputs": [
        {
          "internalType": "address",
          "name": "_userAddress",
          "type": "address"
        }
      ],
      "name": "identity",
      "outputs": [
        {
          "internalType": "contract IIdentity",
          "name": "",
          "type": "address"
        }
      ],
      "stateMutability": "view",
      "type": "function"
    },
    {
      "inputs": [],
      "name": "identityStorage",
      "outputs": [
        {
          "internalType": "contract IIdentityRegistryStorage",
          "name": "",
          "type": "address"
        }
      ],
      "stateMutability": "view",
      "type": "function"
    },
    {
      "inputs": [
        {
          "internalType": "address",
          "name": "_trustedIssuersRegistry",
          "type": "address"
        },
        {
          "internalType": "address",
          "name": "_claimTopicsRegistry",
          "type": "address"
        },
        {
          "internalType": "address",
          "name": "_identityStorage",
          "type": "address"
        }
      ],
      "name": "init",
      "outputs": [],
      "stateMutability": "nonpayable",
      "type": "function"
    },
    {
      "inputs": [
        {
          "internalType": "address",
          "name": "_agent",
          "type": "address"
        }
      ],
      "name": "isAgent",
      "outputs": [
        {
          "internalType": "bool",
          "name": "",
          "type": "bool"
        }
      ],
      "stateMutability": "view",
      "type": "function"
    },
    {
      "inputs": [
        {
          "internalType": "address",
          "name": "_userAddress",
          "type": "address"
        }
      ],
      "name": "isVerified",
      "outputs": [
        {
          "internalType": "bool",
          "name": "",
          "type": "bool"
        }
      ],
      "stateMutability": "view",
      "type": "function"
    },
    {
      "inputs": [],
      "name": "issuersRegistry",
      "outputs": [
        {
          "internalType": "contract ITrustedIssuersRegistry",
          "name": "",
          "type": "address"
        }
      ],
      "stateMutability": "view",
      "type": "function"
    },
    {
      "inputs": [],
      "name": "owner",
      "outputs": [
        {
          "internalType": "address",
          "name": "",
          "type": "address"
        }
      ],
      "stateMutability": "view",
      "type": "function"
    },
    {
      "inputs": [
        {
          "internalType": "address",
          "name": "_userAddress",
          "type": "address"
        },
        {
          "internalType": "contract IIdentity",
          "name": "_identity",
          "type": "address"
        }
      ],
      "name": "registerIdentity",
      "outputs": [],
      "stateMutability": "nonpayable",
      "type": "function"
    },
    {
      "inputs": [
        {
          "internalType": "address",
          "name": "_agent",
          "type": "address"
        }
      ],
      "name": "removeAgent",
      "outputs": [],
      "stateMutability": "nonpayable",
      "type": "function"
    },
    {
      "inputs": [],
      "name": "renounceOwnership",
      "outputs": [],
      "stateMutability": "nonpayable",
      "type": "function"
    },
    {
      "inputs": [
        {
          "internalType": "address",
          "name": "_claimTopicsRegistry",
          "type": "address"
        }
      ],
      "name": "setClaimTopicsRegistry",
      "outputs": [],
      "stateMutability": "nonpayable",
      "type": "function"
    },
    {
      "inputs": [
        {
          "internalType": "address",
          "name": "_identityRegistryStorage",
          "type": "address"
        }
      ],
      "name": "setIdentityRegistryStorage",
      "outputs": [],
      "stateMutability": "nonpayable",
      "type": "function"
    },
    {
      "inputs": [
        {
          "internalType": "address",
          "name": "_trustedIssuersRegistry",
          "type": "address"
        }
      ],
      "name": "setTrustedIssuersRegistry",
      "outputs": [],
      "stateMutability": "nonpayable",
      "type": "function"
    },
    {
      "inputs": [],
      "name": "topicsRegistry",
      "outputs": [
        {
          "internalType": "contract IClaimTopicsRegistry",
          "name": "",
          "type": "address"
        }
      ],
      "stateMutability": "view",
      "type": "function"
    },
    {
      "inputs": [
        {
          "internalType": "address",
          "name": "newOwner",
          "type": "address"
        }
      ],
      "name": "transferOwnership",
      "outputs": [],
      "stateMutability": "nonpayable",
      "type": "function"
    },
    {
      "inputs": [
        {
          "internalType": "address",
          "name": "_userAddress",
          "type": "address"
        },
        {
          "internalType": "contract IIdentity",
          "name": "_identity",
          "type": "address"
        }
      ],
      "name": "updateIdentity",
      "outputs": [],
      "stateMutability": "nonpayable",
      "type": "function"
    }
  ],
  "bytecode": "0x608060405234801561001057600080fd5b5061185a806100206000396000f3fe608060405234801561001057600080fd5b506004361061012c5760003560e01c80638da5cb5b116100ad578063b9209e3311610071578063b9209e3314610268578063e744d7891461027b578063f0eb5e541461028e578063f11abfd8146102a1578063f2fde38b146102b257600080fd5b80638da5cb5b1461020d5780638e098ca11461021e57806397a6278e14610231578063a8d29d1d14610244578063b4f3fcb71461025757600080fd5b8063635c88ec116100f4578063635c88ec146101b9578063670af6a9146101cc578063715018a6146101df578063781f5a83146101e757806384e79842146101fa57600080fd5b8063184b9559146101315780631ffbb0641461014657806326d941ae1461016e5780633b3e12f4146101815780635dbe47e8146101a6575b600080fd5b61014461013f366004611213565b6102c5565b005b61015961015436600461125e565b6104fa565b60405190151581526020015b60405180910390f35b61014461017c36600461125e565b61050d565b6066546001600160a01b03165b6040516001600160a01b039091168152602001610165565b6101596101b436600461125e565b61055f565b6101446101c73660046112ce565b610589565b6101446101da36600461125e565b6105fe565b610144610650565b6101446101f536600461133a565b610664565b61014461020836600461125e565b61072c565b6033546001600160a01b031661018e565b61014461022c36600461133a565b61079c565b61014461023f36600461125e565b610872565b61014461025236600461125e565b6108e2565b6067546001600160a01b031661018e565b61015961027636600461125e565b6109af565b61014461028936600461125e565b610e38565b61018e61029c36600461125e565b610e8a565b6068546001600160a01b031661018e565b6101446102c036600461125e565b610ef9565b600054610100900460ff16158080156102e55750600054600160ff909116105b806102ff5750303b1580156102ff575060005460ff166001145b6103675760405162461bcd60e51b815260206004820152602e60248201527f496e697469616c697a61626c653a20636f6e747261637420697320616c72656160448201526d191e481a5b9a5d1a585b1a5e995960921b60648201526084015b60405180910390fd5b6000805460ff19166001179055801561038a576000805461ff0019166101001790555b6001600160a01b038416158015906103aa57506001600160a01b03831615155b80156103be57506001600160a01b03821615155b6103da5760405162461bcd60e51b815260040161035e90611373565b606680546001600160a01b038086166001600160a01b031992831681179093556067805488831690841617905560688054918616919092161790556040517f7170bf15b246e880b2369cd7c67d057760d8a35149e8c64dde91efa22bcc76d090600090a26040516001600160a01b038516907f1b98cb79e6f73020175fe87333f1b91ad6a881519c0afe30340c2599b2b4bde090600090a26040516001600160a01b038316907f2fa8b95c1db7afe99e3398f3792f008135cedc1fa26b0bb2ecd2352cd166d53c90600090a26104ae610f72565b80156104f4576000805461ff0019169055604051600181527f7f26b83ff96e1f2b6a682f133852f6798a09c465da95921460cefb38474024989060200160405180910390a15b50505050565b6000610507606583610fa1565b92915050565b610515611024565b606880546001600160a01b0319166001600160a01b0383169081179091556040517f2fa8b95c1db7afe99e3398f3792f008135cedc1fa26b0bb2ecd2352cd166d53c90600090a250565b60008061056b83610e8a565b6001600160a01b03160361058157506000919050565b506001919050565b60005b838110156105f7576105e58585838181106105a9576105a96113aa565b90506020020160208101906105be919061125e565b8484848181106105d0576105d06113aa565b90506020020160208101906101f5919061125e565b806105ef816113d6565b91505061058c565b5050505050565b610606611024565b606680546001600160a01b0319166001600160a01b0383169081179091556040517f7170bf15b246e880b2369cd7c67d057760d8a35149e8c64dde91efa22bcc76d090600090a250565b610658611024565b610662600061107e565b565b61066d336104fa565b6106895760405162461bcd60e51b815260040161035e906113ef565b606854604051631e31d5bf60e31b81526001600160a01b03848116600483015283811660248301529091169063f18eadf890604401600060405180830381600087803b1580156106d857600080fd5b505af11580156106ec573d6000803e3d6000fd5b50506040516001600160a01b038085169350851691507f6ae73635c50d24a45af6fbd5e016ac4bed179addbc8bf24e04ff0fcc6d33af1990600090a35050565b610734611024565b6001600160a01b03811661075a5760405162461bcd60e51b815260040161035e90611373565b6107656065826110d0565b6040516001600160a01b038216907ff68e73cec97f2d70aa641fb26e87a4383686e2efacb648f2165aeb02ac562ec590600090a250565b6107a5336104fa565b6107c15760405162461bcd60e51b815260040161035e906113ef565b60006107cc83610e8a565b606854604051637402e7c360e11b81526001600160a01b038681166004830152858116602483015292935091169063e805cf8690604401600060405180830381600087803b15801561081d57600080fd5b505af1158015610831573d6000803e3d6000fd5b50506040516001600160a01b038086169350841691507fe98082932c8056a0f514da9104e4a66bc2cbaef102ad59d90c4b24220ebf601090600090a3505050565b61087a611024565b6001600160a01b0381166108a05760405162461bcd60e51b815260040161035e90611373565b6108ab60658261114c565b6040516001600160a01b038216907fed9c8ad8d5a0a66898ea49d2956929c93ae2e8bd50281b2ed897c5d1a6737e0b90600090a250565b6108eb336104fa565b6109075760405162461bcd60e51b815260040161035e906113ef565b600061091282610e8a565b60685460405163cf191bcd60e01b81526001600160a01b03858116600483015292935091169063cf191bcd90602401600060405180830381600087803b15801561095b57600080fd5b505af115801561096f573d6000803e3d6000fd5b50506040516001600160a01b038085169350851691507f59d6590e225b81befe259af056324092801080acbb7feab310eb34678871f32790600090a35050565b6000806109bb83610e8a565b6001600160a01b0316036109d157506000919050565b606654604080516337c2758160e21b815290516000926001600160a01b03169163df09d60491600480830192869291908290030181865afa158015610a1a573d6000803e3d6000fd5b505050506040513d6000823e601f3d908101601f19168201604052610a4291908101906114a8565b90508051600003610a565750600192915050565b600080600060608060005b8651811015610e295760675487516000916001600160a01b0316906352c111d1908a9085908110610a9457610a946113aa565b60200260200101516040518263ffffffff1660e01b8152600401610aba91815260200190565b600060405180830381865afa158015610ad7573d6000803e3d6000fd5b505050506040513d6000823e601f3d908101601f19168201604052610aff919081019061153e565b90508051600003610b1a575060009998505050505050505050565b6000815167ffffffffffffffff811115610b3657610b3661143d565b604051908082528060200260200182016040528015610b5f578160200160208202803683370190505b50905060005b8251811015610c0c57828181518110610b8057610b806113aa565b60200260200101518a8581518110610b9a57610b9a6113aa565b6020026020010151604051602001610bc79291906001600160a01b03929092168252602082015260400190565b60405160208183030381529060405280519060200120828281518110610bef57610bef6113aa565b602090810291909101015280610c04816113d6565b915050610b65565b5060005b8151811015610e1357610c228c610e8a565b6001600160a01b031663c9100bcb838381518110610c4257610c426113aa565b60200260200101516040518263ffffffff1660e01b8152600401610c6891815260200190565b600060405180830381865afa158015610c85573d6000803e3d6000fd5b505050506040513d6000823e601f3d908101601f19168201604052610cad9190810190611660565b508e51949d50929b50909950975095508a9085908110610ccf57610ccf6113aa565b60200260200101518903610ddb57866001600160a01b031663c0969a6e610cf58e610e8a565b8c8781518110610d0757610d076113aa565b602002602001015189896040518563ffffffff1660e01b8152600401610d30949392919061174e565b602060405180830381865afa925050508015610d69575060408051601f3d908101601f19168201909252610d6691810190611787565b60015b610d985760018251610d7b91906117a9565b8103610d93575060009b9a5050505050505050505050565b610e01565b8015610da357825191505b80158015610dbd575060018351610dba91906117a9565b82145b15610dd5575060009c9b505050505050505050505050565b50610e01565b60018251610de991906117a9565b8103610e01575060009b9a5050505050505050505050565b80610e0b816113d6565b915050610c10565b5050508080610e21906113d6565b915050610a61565b50600198975050505050505050565b610e40611024565b606780546001600160a01b0319166001600160a01b0383169081179091556040517f1b98cb79e6f73020175fe87333f1b91ad6a881519c0afe30340c2599b2b4bde090600090a250565b606854604051637988d3a560e01b81526001600160a01b0383811660048301526000921690637988d3a590602401602060405180830381865afa158015610ed5573d6000803e3d6000fd5b505050506040513d601f19601f8201168201806040525081019061050791906117bc565b610f01611024565b6001600160a01b038116610f665760405162461bcd60e51b815260206004820152602660248201527f4f776e61626c653a206e6577206f776e657220697320746865207a65726f206160448201526564647265737360d01b606482015260840161035e565b610f6f8161107e565b50565b600054610100900460ff16610f995760405162461bcd60e51b815260040161035e906117d9565b6106626111ce565b60006001600160a01b0382166110045760405162461bcd60e51b815260206004820152602260248201527f526f6c65733a206163636f756e7420697320746865207a65726f206164647265604482015261737360f01b606482015260840161035e565b506001600160a01b03166000908152602091909152604090205460ff1690565b6033546001600160a01b031633146106625760405162461bcd60e51b815260206004820181905260248201527f4f776e61626c653a2063616c6c6572206973206e6f7420746865206f776e6572604482015260640161035e565b603380546001600160a01b038381166001600160a01b0319831681179093556040519116919082907f8be0079c531659141344cd1fd0a4f28419497f9722a3daafe3b4186f6b6457e090600090a35050565b6110da8282610fa1565b156111275760405162461bcd60e51b815260206004820152601f60248201527f526f6c65733a206163636f756e7420616c72656164792068617320726f6c6500604482015260640161035e565b6001600160a01b0316600090815260209190915260409020805460ff19166001179055565b6111568282610fa1565b6111ac5760405162461bcd60e51b815260206004820152602160248201527f526f6c65733a206163636f756e7420646f6573206e6f74206861766520726f6c6044820152606560f81b606482015260840161035e565b6001600160a01b0316600090815260209190915260409020805460ff19169055565b600054610100900460ff166111f55760405162461bcd60e51b815260040161035e906117d9565b6106623361107e565b6001600160a01b0381168114610f6f57600080fd5b60008060006060848603121561122857600080fd5b8335611233816111fe565b92506020840135611243816111fe565b91506040840135611253816111fe565b809150509250925092565b60006020828403121561127057600080fd5b813561127b816111fe565b9392505050565b60008083601f84011261129457600080fd5b50813567ffffffffffffffff8111156112ac57600080fd5b6020830191508360208260051b85010111156112c757600080fd5b9250929050565b600080600080604085870312156112e457600080fd5b843567ffffffffffffffff808211156112fc57600080fd5b61130888838901611282565b9096509450602087013591508082111561132157600080fd5b5061132e87828801611282565b95989497509550505050565b6000806040838503121561134d57600080fd5b8235611358816111fe565b91506020830135611368816111fe565b809150509250929050565b6020808252601f908201527f696e76616c696420617267756d656e74202d207a65726f206164647265737300604082015260600190565b634e487b7160e01b600052603260045260246000fd5b634e487b7160e01b600052601160045260246000fd5b6000600182016113e8576113e86113c0565b5060010190565b6020808252602e908201527f4167656e74526f6c653a2063616c6c657220646f6573206e6f7420686176652060408201526d746865204167656e7420726f6c6560901b606082015260800190565b634e487b7160e01b600052604160045260246000fd5b604051601f8201601f1916810167ffffffffffffffff8111828210171561147c5761147c61143d565b604052919050565b600067ffffffffffffffff82111561149e5761149e61143d565b5060051b60200190565b600060208083850312156114bb57600080fd5b825167ffffffffffffffff8111156114d257600080fd5b8301601f810185136114e357600080fd5b80516114f66114f182611484565b611453565b81815260059190911b8201830190838101908783111561151557600080fd5b928401925b828410156115335783518252928401929084019061151a565b979650505050505050565b6000602080838503121561155157600080fd5b825167ffffffffffffffff81111561156857600080fd5b8301601f8101851361157957600080fd5b80516115876114f182611484565b81815260059190911b820183019083810190878311156115a657600080fd5b928401925b828410156115335783516115be816111fe565b825292840192908401906115ab565b60005b838110156115e85781810151838201526020016115d0565b50506000910152565b600067ffffffffffffffff83111561160b5761160b61143d565b61161e601f8401601f1916602001611453565b905082815283838301111561163257600080fd5b61127b8360208301846115cd565b600082601f83011261165157600080fd5b61127b838351602085016115f1565b60008060008060008060c0878903121561167957600080fd5b86519550602087015194506040870151611692816111fe565b606088015190945067ffffffffffffffff808211156116b057600080fd5b6116bc8a838b01611640565b945060808901519150808211156116d257600080fd5b6116de8a838b01611640565b935060a08901519150808211156116f457600080fd5b508701601f8101891361170657600080fd5b611715898251602084016115f1565b9150509295509295509295565b6000815180845261173a8160208601602086016115cd565b601f01601f19169290920160200192915050565b60018060a01b03851681528360208201526080604082015260006117756080830185611722565b82810360608401526115338185611722565b60006020828403121561179957600080fd5b8151801515811461127b57600080fd5b81810381811115610507576105076113c0565b6000602082840312156117ce57600080fd5b815161127b816111fe565b6020808252602b908201527f496e697469616c697a61626c653a20636f6e7472616374206973206e6f74206960408201526a6e697469616c697a696e6760a81b60608201526080019056fea2646970667358221220c5da55ad4f6e2ae7a5607737d610d70a3a8339b983247a0bfad8f0a164e4ef3764736f6c63430008110033",
  "linkReferences": {},
  "deployedLinkReferences": {}
}