{
  "_format": "hh-sol-artifact-1",
  "contractName": "VerifierUser",
  "sourceName": "contracts/ONCHAINID/_testContracts/VerifierUser.sol",
  "abi": [
    {
      "inputs": [],
      "stateMutability": "nonpayable",
      "type": "constructor"
    },
    {
      "anonymous": false,
      "inputs": [
        {
          "indexed": true,
          "internalType": "uint256",
          "name": "claimTopic",
          "type": "uint256"
        }
      ],
      "name": "ClaimTopicAdded",
      "type": "event"
    },
    {
      "anonymous": false,
      "inputs": [
        {
          "indexed": true,
          "internalType": "uint256",
          "name": "claimTopic",
          "type": "uint256"
        }
      ],
      "name": "ClaimTopicRemoved",
      "type": "event"
    },
    {
      "anonymous": false,
      "inputs": [
        {
          "indexed": true,
          "internalType": "contract IClaimIssuer",
          "name": "trustedIssuer",
          "type": "address"
        },
        {
          "indexed": false,
          "internalType": "uint256[]",
          "name": "claimTopics",
          "type": "uint256[]"
        }
      ],
      "name": "ClaimTopicsUpdated",
      "type": "event"
    },
    {
      "anonymous": false,
      "inputs": [
        {
          "indexed": true,
          "internalType": "address",
          "name": "previousOwner",
          "type": "address"
        },
        {
          "indexed": true,
          "internalType": "address",
          "name": "newOwner",
          "type": "address"
        }
      ],
      "name": "OwnershipTransferred",
      "type": "event"
    },
    {
      "anonymous": false,
      "inputs": [
        {
          "indexed": true,
          "internalType": "contract IClaimIssuer",
          "name": "trustedIssuer",
          "type": "address"
        },
        {
          "indexed": false,
          "internalType": "uint256[]",
          "name": "claimTopics",
          "type": "uint256[]"
        }
      ],
      "name": "TrustedIssuerAdded",
      "type": "event"
    },
    {
      "anonymous": false,
      "inputs": [
        {
          "indexed": true,
          "internalType": "contract IClaimIssuer",
          "name": "trustedIssuer",
          "type": "address"
        }
      ],
      "name": "TrustedIssuerRemoved",
      "type": "event"
    },
    {
      "inputs": [
        {
          "internalType": "uint256",
          "name": "claimTopic",
          "type": "uint256"
        }
      ],
      "name": "addClaimTopic",
      "outputs": [],
      "stateMutability": "nonpayable",
      "type": "function"
    },
    {
      "inputs": [
        {
          "internalType": "contract IClaimIssuer",
          "name": "trustedIssuer",
          "type": "address"
        },
        {
          "internalType": "uint256[]",
          "name": "claimTopics",
          "type": "uint256[]"
        }
      ],
      "name": "addTrustedIssuer",
      "outputs": [],
      "stateMutability": "nonpayable",
      "type": "function"
    },
    {
      "inputs": [
        {
          "internalType": "uint256",
          "name": "",
          "type": "uint256"
        },
        {
          "internalType": "uint256",
          "name": "",
          "type": "uint256"
        }
      ],
      "name": "claimTopicsToTrustedIssuers",
      "outputs": [
        {
          "internalType": "contract IClaimIssuer",
          "name": "",
          "type": "address"
        }
      ],
      "stateMutability": "view",
      "type": "function"
    },
    {
      "inputs": [],
      "name": "doSomething",
      "outputs": [],
      "stateMutability": "nonpayable",
      "type": "function"
    },
    {
      "inputs": [
        {
          "internalType": "contract IClaimIssuer",
          "name": "trustedIssuer",
          "type": "address"
        }
      ],
      "name": "getTrustedIssuerClaimTopics",
      "outputs": [
        {
          "internalType": "uint256[]",
          "name": "",
          "type": "uint256[]"
        }
      ],
      "stateMutability": "view",
      "type": "function"
    },
    {
      "inputs": [],
      "name": "getTrustedIssuers",
      "outputs": [
        {
          "internalType": "contract IClaimIssuer[]",
          "name": "",
          "type": "address[]"
        }
      ],
      "stateMutability": "view",
      "type": "function"
    },
    {
      "inputs": [
        {
          "internalType": "uint256",
          "name": "claimTopic",
          "type": "uint256"
        }
      ],
      "name": "getTrustedIssuersForClaimTopic",
      "outputs": [
        {
          "internalType": "contract IClaimIssuer[]",
          "name": "",
          "type": "address[]"
        }
      ],
      "stateMutability": "view",
      "type": "function"
    },
    {
      "inputs": [
        {
          "internalType": "address",
          "name": "issuer",
          "type": "address"
        },
        {
          "internalType": "uint256",
          "name": "claimTopic",
          "type": "uint256"
        }
      ],
      "name": "hasClaimTopic",
      "outputs": [
        {
          "internalType": "bool",
          "name": "",
          "type": "bool"
        }
      ],
      "stateMutability": "view",
      "type": "function"
    },
    {
      "inputs": [
        {
          "internalType": "uint256",
          "name": "claimTopic",
          "type": "uint256"
        }
      ],
      "name": "isClaimTopicRequired",
      "outputs": [
        {
          "internalType": "bool",
          "name": "",
          "type": "bool"
        }
      ],
      "stateMutability": "view",
      "type": "function"
    },
    {
      "inputs": [
        {
          "internalType": "address",
          "name": "issuer",
          "type": "address"
        }
      ],
      "name": "isTrustedIssuer",
      "outputs": [
        {
          "internalType": "bool",
          "name": "",
          "type": "bool"
        }
      ],
      "stateMutability": "view",
      "type": "function"
    },
    {
      "inputs": [],
      "name": "owner",
      "outputs": [
        {
          "internalType": "address",
          "name": "",
          "type": "address"
        }
      ],
      "stateMutability": "view",
      "type": "function"
    },
    {
      "inputs": [
        {
          "internalType": "uint256",
          "name": "claimTopic",
          "type": "uint256"
        }
      ],
      "name": "removeClaimTopic",
      "outputs": [],
      "stateMutability": "nonpayable",
      "type": "function"
    },
    {
      "inputs": [
        {
          "internalType": "contract IClaimIssuer",
          "name": "trustedIssuer",
          "type": "address"
        }
      ],
      "name": "removeTrustedIssuer",
      "outputs": [],
      "stateMutability": "nonpayable",
      "type": "function"
    },
    {
      "inputs": [],
      "name": "renounceOwnership",
      "outputs": [],
      "stateMutability": "nonpayable",
      "type": "function"
    },
    {
      "inputs": [
        {
          "internalType": "uint256",
          "name": "",
          "type": "uint256"
        }
      ],
      "name": "requiredClaimTopics",
      "outputs": [
        {
          "internalType": "uint256",
          "name": "",
          "type": "uint256"
        }
      ],
      "stateMutability": "view",
      "type": "function"
    },
    {
      "inputs": [
        {
          "internalType": "address",
          "name": "newOwner",
          "type": "address"
        }
      ],
      "name": "transferOwnership",
      "outputs": [],
      "stateMutability": "nonpayable",
      "type": "function"
    },
    {
      "inputs": [
        {
          "internalType": "address",
          "name": "",
          "type": "address"
        },
        {
          "internalType": "uint256",
          "name": "",
          "type": "uint256"
        }
      ],
      "name": "trustedIssuerClaimTopics",
      "outputs": [
        {
          "internalType": "uint256",
          "name": "",
          "type": "uint256"
        }
      ],
      "stateMutability": "view",
      "type": "function"
    },
    {
      "inputs": [
        {
          "internalType": "uint256",
          "name": "",
          "type": "uint256"
        }
      ],
      "name": "trustedIssuers",
      "outputs": [
        {
          "internalType": "contract IClaimIssuer",
          "name": "",
          "type": "address"
        }
      ],
      "stateMutability": "view",
      "type": "function"
    },
    {
      "inputs": [
        {
          "internalType": "contract IClaimIssuer",
          "name": "trustedIssuer",
          "type": "address"
        },
        {
          "internalType": "uint256[]",
          "name": "newClaimTopics",
          "type": "uint256[]"
        }
      ],
      "name": "updateIssuerClaimTopics",
      "outputs": [],
      "stateMutability": "nonpayable",
      "type": "function"
    },
    {
      "inputs": [
        {
          "internalType": "address",
          "name": "identity",
          "type": "address"
        }
      ],
      "name": "verify",
      "outputs": [
        {
          "internalType": "bool",
          "name": "isVerified",
          "type": "bool"
        }
      ],
      "stateMutability": "view",
      "type": "function"
    }
  ],
  "bytecode": "0x608060405234801561001057600080fd5b5061001a3361001f565b61006f565b600080546001600160a01b038381166001600160a01b0319831681178455604051919092169283917f8be0079c531659141344cd1fd0a4f28419497f9722a3daafe3b4186f6b6457e09190a35050565b611e4b8061007e6000396000f3fe608060405234801561001057600080fd5b506004361061012c5760003560e01c8063b5fa8693116100ad578063c7b2255111610071578063c7b2255114610289578063c801dd401461029c578063d9dd24c5146102af578063ef2ed1a4146102b7578063f2fde38b146102ca57600080fd5b8063b5fa86931461020f578063b93d28eb14610230578063ba64c34114610243578063be36359f14610256578063c28fb2781461026957600080fd5b8063715018a6116100f4578063715018a6146101b457806382692679146101bc5780638da5cb5b146101c457806393e9f801146101e95780639f63ea98146101fc57600080fd5b806304bc7e8414610131578063082978461461014657806334a899871461015957806352c111d11461018157806363a9c3d7146101a1575b600080fd5b61014461013f36600461187a565b6102dd565b005b610144610154366004611902565b610679565b61016c61016736600461191b565b610769565b60405190151581526020015b60405180910390f35b61019461018f366004611902565b610828565b6040516101789190611947565b61016c6101af366004611994565b610894565b610144610c7f565b610144610c93565b6000546001600160a01b03165b6040516001600160a01b039091168152602001610178565b6101d16101f73660046119b8565b610ce1565b61014461020a36600461187a565b610d19565b61022261021d366004611902565b610fa0565b604051908152602001610178565b61014461023e366004611994565b610fc1565b61022261025136600461191b565b611362565b61016c610264366004611902565b611393565b61027c610277366004611994565b6113ed565b60405161017891906119da565b610144610297366004611902565b6114bf565b6101d16102aa366004611902565b61160e565b610194611638565b61016c6102c5366004611994565b61169a565b6101446102d8366004611994565b6116c8565b6102e5611741565b6001600160a01b0383166103145760405162461bcd60e51b815260040161030b90611a12565b60405180910390fd5b6001600160a01b03831660009081526003602052604081205490036103725760405162461bcd60e51b81526020600482015260146024820152732727aa1030903a393ab9ba32b21034b9b9bab2b960611b604482015260640161030b565b600f8111156103935760405162461bcd60e51b815260040161030b90611a49565b806103e05760405162461bcd60e51b815260206004820152601c60248201527f636c61696d20746f706963732063616e6e6f7420626520656d70747900000000604482015260640161030b565b60005b6001600160a01b038416600090815260036020526040902054811015610594576001600160a01b038416600090815260036020526040812080548390811061042d5761042d611a8e565b600091825260208083209091015480835260049091526040822054909250905b8181101561057e57600083815260046020526040902080546001600160a01b03891691908390811061048157610481611a8e565b6000918252602090912001546001600160a01b03160361056c5760008381526004602052604090206104b4600184611aba565b815481106104c4576104c4611a8e565b60009182526020808320909101548583526004909152604090912080546001600160a01b0390921691839081106104fd576104fd611a8e565b600091825260208083209190910180546001600160a01b0319166001600160a01b03949094169390931790925584815260049091526040902080548061054557610545611acd565b600082815260209020810160001990810180546001600160a01b031916905501905561057e565b8061057681611ae3565b91505061044d565b505050808061058c90611ae3565b9150506103e3565b506001600160a01b03831660009081526003602052604090206105b89083836117eb565b5060005b8181101561063057600460008484848181106105da576105da611a8e565b6020908102929092013583525081810192909252604001600090812080546001810182559082529190200180546001600160a01b0319166001600160a01b0386161790558061062881611ae3565b9150506105bc565b50826001600160a01b03167fec753cfc52044f61676f18a11e500093a9f2b1cd5e4942bc476f2b0438159bcf838360405161066c929190611afc565b60405180910390a2505050565b610681611741565b60015460005b818110156107645782600182815481106106a3576106a3611a8e565b9060005260206000200154036107525760016106bf8184611aba565b815481106106cf576106cf611a8e565b9060005260206000200154600182815481106106ed576106ed611a8e565b600091825260209091200155600180548061070a5761070a611acd565b60019003818190600052602060002001600090559055827f0b1381093c776453c1bbe54fd68be1b235c65db61d099cb50d194b2991e0eec560405160405180910390a2505050565b8061075c81611ae3565b915050610687565b505050565b6001600160a01b0382166000908152600360209081526040808320805482518185028101850190935280835284938301828280156107c657602002820191906000526020600020905b8154815260200190600101908083116107b2575b505083519394506000925050505b8181101561081a57848382815181106107ef576107ef611a8e565b6020026020010151036108085760019350505050610822565b8061081281611ae3565b9150506107d4565b506000925050505b92915050565b60008181526004602090815260409182902080548351818402810184019094528084526060939283018282801561088857602002820191906000526020600020905b81546001600160a01b0316815260019091019060200180831161086a575b50505050509050919050565b60015460009081036108a857506001919050565b600080600060608060005b600154811015610c71576000306001600160a01b03166352c111d1600184815481106108e1576108e1611a8e565b90600052602060002001546040518263ffffffff1660e01b815260040161090a91815260200190565b600060405180830381865afa158015610927573d6000803e3d6000fd5b505050506040513d6000823e601f3d908101601f1916820160405261094f9190810190611b7c565b905080516000036109695750600098975050505050505050565b6000815167ffffffffffffffff81111561098557610985611b35565b6040519080825280602002602001820160405280156109ae578160200160208202803683370190505b50905060005b8251811015610a5f578281815181106109cf576109cf611a8e565b6020026020010151600185815481106109ea576109ea611a8e565b9060005260206000200154604051602001610a1a9291906001600160a01b03929092168252602082015260400190565b60405160208183030381529060405280519060200120828281518110610a4257610a42611a8e565b602090810291909101015280610a5781611ae3565b9150506109b4565b5060005b8151811015610c5b578a6001600160a01b031663c9100bcb838381518110610a8d57610a8d611a8e565b60200260200101516040518263ffffffff1660e01b8152600401610ab391815260200190565b600060405180830381865afa158015610ad0573d6000803e3d6000fd5b505050506040513d6000823e601f3d908101601f19168201604052610af89190810190611cc1565b5060018054959e50939c50919a50985096509085908110610b1b57610b1b611a8e565b90600052602060002001548903610c2457866001600160a01b031663c0969a6e8c60018781548110610b4f57610b4f611a8e565b906000526020600020015489896040518563ffffffff1660e01b8152600401610b7b9493929190611daf565b602060405180830381865afa925050508015610bb4575060408051601f3d908101601f19168201909252610bb191810190611df3565b60015b610be25760018251610bc69190611aba565b8103610bdd575060009a9950505050505050505050565b610c49565b8015610bed57825191505b80158015610c07575060018351610c049190611aba565b82145b15610c1e575060009b9a5050505050505050505050565b50610c49565b60018251610c329190611aba565b8103610c49575060009a9950505050505050505050565b80610c5381611ae3565b915050610a63565b5050508080610c6990611ae3565b9150506108b3565b506001979650505050505050565b610c87611741565b610c91600061179b565b565b610c9c33610894565b610c915760405162461bcd60e51b81526020600482015260166024820152751cd95b99195c881a5cc81b9bdd081d995c9a599a595960521b604482015260640161030b565b60046020528160005260406000208181548110610cfd57600080fd5b6000918252602090912001546001600160a01b03169150829050565b610d21611741565b6001600160a01b038316610d475760405162461bcd60e51b815260040161030b90611a12565b6001600160a01b03831660009081526003602052604090205415610dad5760405162461bcd60e51b815260206004820152601d60248201527f747275737465642049737375657220616c726561647920657869737473000000604482015260640161030b565b80610e065760405162461bcd60e51b8152602060048201526024808201527f7472757374656420636c61696d20746f706963732063616e6e6f7420626520656044820152636d70747960e01b606482015260840161030b565b600f811115610e275760405162461bcd60e51b815260040161030b90611a49565b600254603211610e8a5760405162461bcd60e51b815260206004820152602860248201527f63616e6e6f742068617665206d6f7265207468616e2035302074727573746564604482015267206973737565727360c01b606482015260840161030b565b60028054600181019091557f405787fa12a823e0f2b7631cc41b3ba8828b3321ca811111fa75cd3aa3bb5ace0180546001600160a01b0319166001600160a01b0385169081179091556000908152600360205260409020610eec9083836117eb565b5060005b81811015610f645760046000848484818110610f0e57610f0e611a8e565b6020908102929092013583525081810192909252604001600090812080546001810182559082529190200180546001600160a01b0319166001600160a01b03861617905580610f5c81611ae3565b915050610ef0565b50826001600160a01b03167ffedc33fd34859594822c0ff6f3f4f9fc279cc6d5cae53068f706a088e4500872838360405161066c929190611afc565b60018181548110610fb057600080fd5b600091825260209091200154905081565b610fc9611741565b6001600160a01b038116610fef5760405162461bcd60e51b815260040161030b90611a12565b6001600160a01b038116600090815260036020526040812054900361104d5760405162461bcd60e51b81526020600482015260146024820152732727aa1030903a393ab9ba32b21034b9b9bab2b960611b604482015260640161030b565b60025460005b8181101561115357826001600160a01b03166002828154811061107857611078611a8e565b6000918252602090912001546001600160a01b03160361114157600261109f600184611aba565b815481106110af576110af611a8e565b600091825260209091200154600280546001600160a01b0390921691839081106110db576110db611a8e565b9060005260206000200160006101000a8154816001600160a01b0302191690836001600160a01b03160217905550600280548061111a5761111a611acd565b600082815260209020810160001990810180546001600160a01b0319169055019055611153565b8061114b81611ae3565b915050611053565b5060005b6001600160a01b038316600090815260036020526040902054811015611308576001600160a01b03831660009081526003602052604081208054839081106111a1576111a1611a8e565b600091825260208083209091015480835260049091526040822054909250905b818110156112f257600083815260046020526040902080546001600160a01b0388169190839081106111f5576111f5611a8e565b6000918252602090912001546001600160a01b0316036112e0576000838152600460205260409020611228600184611aba565b8154811061123857611238611a8e565b60009182526020808320909101548583526004909152604090912080546001600160a01b03909216918390811061127157611271611a8e565b600091825260208083209190910180546001600160a01b0319166001600160a01b0394909416939093179092558481526004909152604090208054806112b9576112b9611acd565b600082815260209020810160001990810180546001600160a01b03191690550190556112f2565b806112ea81611ae3565b9150506111c1565b505050808061130090611ae3565b915050611157565b506001600160a01b038216600090815260036020526040812061132a91611836565b6040516001600160a01b038316907f2214ded40113cc3fb63fc206cafee88270b0a903dac7245d54efdde30ebb032190600090a25050565b6003602052816000526040600020818154811061137e57600080fd5b90600052602060002001600091509150505481565b600154600090815b818110156113e35783600182815481106113b7576113b7611a8e565b9060005260206000200154036113d1575060019392505050565b806113db81611ae3565b91505061139b565b5060009392505050565b6001600160a01b038116600090815260036020526040812054606091036114565760405162461bcd60e51b815260206004820152601c60248201527f747275737465642049737375657220646f65736e277420657869737400000000604482015260640161030b565b6001600160a01b0382166000908152600360209081526040918290208054835181840281018401909452808452909183018282801561088857602002820191906000526020600020905b8154815260200190600101908083116114a05750505050509050919050565b6114c7611741565b600154600f81106115255760405162461bcd60e51b815260206004820152602260248201527f63616e6e6f742072657175697265206d6f7265207468616e20313520746f7069604482015261637360f01b606482015260840161030b565b60005b818110156115ae57826001828154811061154457611544611a8e565b90600052602060002001540361159c5760405162461bcd60e51b815260206004820152601960248201527f636c61696d546f70696320616c72656164792065786973747300000000000000604482015260640161030b565b806115a681611ae3565b915050611528565b5060018054808201825560009182527fb10e2d527612073b26eecdfd717e6a320cf44b4afac2b0732d9fcbe2b7fa0cf60183905560405183917f01c928b7f7ade2949e92366aa9454dbef3a416b731cf6ec786ba9595bbd814d691a25050565b6002818154811061161e57600080fd5b6000918252602090912001546001600160a01b0316905081565b6060600280548060200260200160405190810160405280929190818152602001828054801561169057602002820191906000526020600020905b81546001600160a01b03168152600190910190602001808311611672575b5050505050905090565b6001600160a01b038116600090815260036020526040812054156116c057506001919050565b506000919050565b6116d0611741565b6001600160a01b0381166117355760405162461bcd60e51b815260206004820152602660248201527f4f776e61626c653a206e6577206f776e657220697320746865207a65726f206160448201526564647265737360d01b606482015260840161030b565b61173e8161179b565b50565b6000546001600160a01b03163314610c915760405162461bcd60e51b815260206004820181905260248201527f4f776e61626c653a2063616c6c6572206973206e6f7420746865206f776e6572604482015260640161030b565b600080546001600160a01b038381166001600160a01b0319831681178455604051919092169283917f8be0079c531659141344cd1fd0a4f28419497f9722a3daafe3b4186f6b6457e09190a35050565b828054828255906000526020600020908101928215611826579160200282015b8281111561182657823582559160200191906001019061180b565b50611832929150611850565b5090565b508054600082559060005260206000209081019061173e91905b5b808211156118325760008155600101611851565b6001600160a01b038116811461173e57600080fd5b60008060006040848603121561188f57600080fd5b833561189a81611865565b9250602084013567ffffffffffffffff808211156118b757600080fd5b818601915086601f8301126118cb57600080fd5b8135818111156118da57600080fd5b8760208260051b85010111156118ef57600080fd5b6020830194508093505050509250925092565b60006020828403121561191457600080fd5b5035919050565b6000806040838503121561192e57600080fd5b823561193981611865565b946020939093013593505050565b6020808252825182820181905260009190848201906040850190845b818110156119885783516001600160a01b031683529284019291840191600101611963565b50909695505050505050565b6000602082840312156119a657600080fd5b81356119b181611865565b9392505050565b600080604083850312156119cb57600080fd5b50508035926020909101359150565b6020808252825182820181905260009190848201906040850190845b81811015611988578351835292840192918401916001016119f6565b6020808252601f908201527f696e76616c696420617267756d656e74202d207a65726f206164647265737300604082015260600190565b60208082526025908201527f63616e6e6f742068617665206d6f7265207468616e20313520636c61696d20746040820152646f7069637360d81b606082015260800190565b634e487b7160e01b600052603260045260246000fd5b634e487b7160e01b600052601160045260246000fd5b8181038181111561082257610822611aa4565b634e487b7160e01b600052603160045260246000fd5b600060018201611af557611af5611aa4565b5060010190565b6020808252810182905260006001600160fb1b03831115611b1c57600080fd5b8260051b80856040850137919091016040019392505050565b634e487b7160e01b600052604160045260246000fd5b604051601f8201601f1916810167ffffffffffffffff81118282101715611b7457611b74611b35565b604052919050565b60006020808385031215611b8f57600080fd5b825167ffffffffffffffff80821115611ba757600080fd5b818501915085601f830112611bbb57600080fd5b815181811115611bcd57611bcd611b35565b8060051b9150611bde848301611b4b565b8181529183018401918481019088841115611bf857600080fd5b938501935b83851015611c225784519250611c1283611865565b8282529385019390850190611bfd565b98975050505050505050565b60005b83811015611c49578181015183820152602001611c31565b50506000910152565b600067ffffffffffffffff831115611c6c57611c6c611b35565b611c7f601f8401601f1916602001611b4b565b9050828152838383011115611c9357600080fd5b6119b1836020830184611c2e565b600082601f830112611cb257600080fd5b6119b183835160208501611c52565b60008060008060008060c08789031215611cda57600080fd5b86519550602087015194506040870151611cf381611865565b606088015190945067ffffffffffffffff80821115611d1157600080fd5b611d1d8a838b01611ca1565b94506080890151915080821115611d3357600080fd5b611d3f8a838b01611ca1565b935060a0890151915080821115611d5557600080fd5b508701601f81018913611d6757600080fd5b611d7689825160208401611c52565b9150509295509295509295565b60008151808452611d9b816020860160208601611c2e565b601f01601f19169290920160200192915050565b60018060a01b0385168152836020820152608060408201526000611dd66080830185611d83565b8281036060840152611de88185611d83565b979650505050505050565b600060208284031215611e0557600080fd5b815180151581146119b157600080fdfea26469706673582212201d73a326ef8ff666ad20b327cfaf4dcf4fdb2e0947090b828d08af08a0dae40664736f6c63430008110033",
  "linkReferences": {},
  "deployedLinkReferences": {}
}