{
  "_format": "hh-sol-artifact-1",
  "contractName": "TREXFactory",
  "sourceName": "contracts/TREX/factory/TREXFactory.sol",
  "abi": [
    {
      "inputs": [
        {
          "internalType": "address",
          "name": "implementationAuthority_",
          "type": "address"
        },
        {
          "internalType": "address",
          "name": "idFactory_",
          "type": "address"
        },
        {
          "components": [
            {
              "internalType": "address[]",
              "name": "irAgents",
              "type": "address[]"
            },
            {
              "internalType": "address[]",
              "name": "tokenAgents",
              "type": "address[]"
            },
            {
              "internalType": "address[]",
              "name": "dblAgents",
              "type": "address[]"
            }
          ],
          "internalType": "struct ITREXFactory.AgentDetails",
          "name": "_agentDetails",
          "type": "tuple"
        }
      ],
      "stateMutability": "nonpayable",
      "type": "constructor"
    },
    {
      "anonymous": false,
      "inputs": [
        {
          "indexed": false,
          "internalType": "address[]",
          "name": "_irAgents",
          "type": "address[]"
        },
        {
          "indexed": false,
          "internalType": "address[]",
          "name": "_tokenAgents",
          "type": "address[]"
        },
        {
          "indexed": false,
          "internalType": "address[]",
          "name": "_dblAgents",
          "type": "address[]"
        }
      ],
      "name": "AgentsSet",
      "type": "event"
    },
    {
      "anonymous": false,
      "inputs": [
        {
          "indexed": true,
          "internalType": "address",
          "name": "_agent",
          "type": "address"
        }
      ],
      "name": "DBLAgentAdded",
      "type": "event"
    },
    {
      "anonymous": false,
      "inputs": [
        {
          "indexed": true,
          "internalType": "address",
          "name": "_agent",
          "type": "address"
        }
      ],
      "name": "DBLAgentRemoved",
      "type": "event"
    },
    {
      "anonymous": false,
      "inputs": [
        {
          "indexed": true,
          "internalType": "address",
          "name": "_addr",
          "type": "address"
        }
      ],
      "name": "Deployed",
      "type": "event"
    },
    {
      "anonymous": false,
      "inputs": [
        {
          "indexed": false,
          "internalType": "address",
          "name": "_idFactory",
          "type": "address"
        }
      ],
      "name": "IdFactorySet",
      "type": "event"
    },
    {
      "anonymous": false,
      "inputs": [
        {
          "indexed": true,
          "internalType": "address",
          "name": "_agent",
          "type": "address"
        }
      ],
      "name": "IdentityAgentAdded",
      "type": "event"
    },
    {
      "anonymous": false,
      "inputs": [
        {
          "indexed": true,
          "internalType": "address",
          "name": "_agent",
          "type": "address"
        }
      ],
      "name": "IdentityAgentRemoved",
      "type": "event"
    },
    {
      "anonymous": false,
      "inputs": [
        {
          "indexed": false,
          "internalType": "address",
          "name": "_implementationAuthority",
          "type": "address"
        }
      ],
      "name": "ImplementationAuthoritySet",
      "type": "event"
    },
    {
      "anonymous": false,
      "inputs": [
        {
          "indexed": true,
          "internalType": "address",
          "name": "_owner",
          "type": "address"
        }
      ],
      "name": "OwnerSet",
      "type": "event"
    },
    {
      "anonymous": false,
      "inputs": [
        {
          "indexed": true,
          "internalType": "address",
          "name": "previousOwner",
          "type": "address"
        },
        {
          "indexed": true,
          "internalType": "address",
          "name": "newOwner",
          "type": "address"
        }
      ],
      "name": "OwnershipTransferred",
      "type": "event"
    },
    {
      "anonymous": false,
      "inputs": [
        {
          "indexed": true,
          "internalType": "address",
          "name": "_token",
          "type": "address"
        },
        {
          "indexed": false,
          "internalType": "address",
          "name": "_mc",
          "type": "address"
        },
        {
          "indexed": true,
          "internalType": "string",
          "name": "_salt",
          "type": "string"
        }
      ],
      "name": "TREXSuiteDeployed",
      "type": "event"
    },
    {
      "anonymous": false,
      "inputs": [
        {
          "indexed": true,
          "internalType": "address",
          "name": "_agent",
          "type": "address"
        }
      ],
      "name": "TokenAgentAdded",
      "type": "event"
    },
    {
      "anonymous": false,
      "inputs": [
        {
          "indexed": true,
          "internalType": "address",
          "name": "_agent",
          "type": "address"
        }
      ],
      "name": "TokenAgentRemoved",
      "type": "event"
    },
    {
      "inputs": [
        {
          "internalType": "address",
          "name": "_agent",
          "type": "address"
        }
      ],
      "name": "addDBLAgent",
      "outputs": [],
      "stateMutability": "nonpayable",
      "type": "function"
    },
    {
      "inputs": [
        {
          "internalType": "address",
          "name": "_agent",
          "type": "address"
        }
      ],
      "name": "addIdentityAgent",
      "outputs": [],
      "stateMutability": "nonpayable",
      "type": "function"
    },
    {
      "inputs": [
        {
          "internalType": "address",
          "name": "_agent",
          "type": "address"
        }
      ],
      "name": "addTokenAgent",
      "outputs": [],
      "stateMutability": "nonpayable",
      "type": "function"
    },
    {
      "inputs": [
        {
          "internalType": "string",
          "name": "_salt",
          "type": "string"
        },
        {
          "components": [
            {
              "internalType": "address",
              "name": "owner",
              "type": "address"
            },
            {
              "internalType": "string",
              "name": "name",
              "type": "string"
            },
            {
              "internalType": "string",
              "name": "symbol",
              "type": "string"
            },
            {
              "internalType": "uint8",
              "name": "decimals",
              "type": "uint8"
            },
            {
              "internalType": "address[]",
              "name": "complianceModules",
              "type": "address[]"
            },
            {
              "internalType": "bytes[]",
              "name": "complianceSettings",
              "type": "bytes[]"
            }
          ],
          "internalType": "struct ITREXFactory.TokenDetails",
          "name": "_tokenDetails",
          "type": "tuple"
        }
      ],
      "name": "deployTREXSuite",
      "outputs": [],
      "stateMutability": "nonpayable",
      "type": "function"
    },
    {
      "inputs": [
        {
          "internalType": "uint256",
          "name": "",
          "type": "uint256"
        }
      ],
      "name": "deployedTokens",
      "outputs": [
        {
          "internalType": "string",
          "name": "",
          "type": "string"
        }
      ],
      "stateMutability": "view",
      "type": "function"
    },
    {
      "inputs": [],
      "name": "getClaimTopicsRegistry",
      "outputs": [
        {
          "internalType": "address",
          "name": "",
          "type": "address"
        }
      ],
      "stateMutability": "view",
      "type": "function"
    },
    {
      "inputs": [],
      "name": "getDBLAgents",
      "outputs": [
        {
          "internalType": "address[]",
          "name": "",
          "type": "address[]"
        }
      ],
      "stateMutability": "view",
      "type": "function"
    },
    {
      "inputs": [],
      "name": "getIdFactory",
      "outputs": [
        {
          "internalType": "address",
          "name": "",
          "type": "address"
        }
      ],
      "stateMutability": "view",
      "type": "function"
    },
    {
      "inputs": [],
      "name": "getIdentityRegistry",
      "outputs": [
        {
          "internalType": "address",
          "name": "",
          "type": "address"
        }
      ],
      "stateMutability": "view",
      "type": "function"
    },
    {
      "inputs": [],
      "name": "getIdentityTokenAgents",
      "outputs": [
        {
          "internalType": "address[]",
          "name": "",
          "type": "address[]"
        }
      ],
      "stateMutability": "view",
      "type": "function"
    },
    {
      "inputs": [],
      "name": "getImplementationAuthority",
      "outputs": [
        {
          "internalType": "address",
          "name": "",
          "type": "address"
        }
      ],
      "stateMutability": "view",
      "type": "function"
    },
    {
      "inputs": [],
      "name": "getModularCompliance",
      "outputs": [
        {
          "internalType": "address",
          "name": "",
          "type": "address"
        }
      ],
      "stateMutability": "view",
      "type": "function"
    },
    {
      "inputs": [
        {
          "internalType": "string",
          "name": "_salt",
          "type": "string"
        }
      ],
      "name": "getToken",
      "outputs": [
        {
          "internalType": "address",
          "name": "",
          "type": "address"
        }
      ],
      "stateMutability": "view",
      "type": "function"
    },
    {
      "inputs": [],
      "name": "getTokenAgents",
      "outputs": [
        {
          "internalType": "address[]",
          "name": "",
          "type": "address[]"
        }
      ],
      "stateMutability": "view",
      "type": "function"
    },
    {
      "inputs": [],
      "name": "getTokens",
      "outputs": [
        {
          "internalType": "string[]",
          "name": "",
          "type": "string[]"
        }
      ],
      "stateMutability": "view",
      "type": "function"
    },
    {
      "inputs": [],
      "name": "getTrustedIssuersRegistry",
      "outputs": [
        {
          "internalType": "address",
          "name": "",
          "type": "address"
        }
      ],
      "stateMutability": "view",
      "type": "function"
    },
    {
      "inputs": [
        {
          "internalType": "address",
          "name": "_agent",
          "type": "address"
        }
      ],
      "name": "isDBLAgent",
      "outputs": [
        {
          "internalType": "bool",
          "name": "",
          "type": "bool"
        }
      ],
      "stateMutability": "view",
      "type": "function"
    },
    {
      "inputs": [
        {
          "internalType": "address",
          "name": "_agent",
          "type": "address"
        }
      ],
      "name": "isIdentityAgent",
      "outputs": [
        {
          "internalType": "bool",
          "name": "",
          "type": "bool"
        }
      ],
      "stateMutability": "view",
      "type": "function"
    },
    {
      "inputs": [
        {
          "internalType": "address",
          "name": "_agent",
          "type": "address"
        }
      ],
      "name": "isTokenAgent",
      "outputs": [
        {
          "internalType": "bool",
          "name": "",
          "type": "bool"
        }
      ],
      "stateMutability": "view",
      "type": "function"
    },
    {
      "inputs": [],
      "name": "owner",
      "outputs": [
        {
          "internalType": "address",
          "name": "",
          "type": "address"
        }
      ],
      "stateMutability": "view",
      "type": "function"
    },
    {
      "inputs": [
        {
          "internalType": "address",
          "name": "_contract",
          "type": "address"
        },
        {
          "internalType": "address",
          "name": "_newOwner",
          "type": "address"
        }
      ],
      "name": "recoverContractOwnership",
      "outputs": [],
      "stateMutability": "nonpayable",
      "type": "function"
    },
    {
      "inputs": [
        {
          "internalType": "address",
          "name": "_agent",
          "type": "address"
        }
      ],
      "name": "removeDBLAgent",
      "outputs": [],
      "stateMutability": "nonpayable",
      "type": "function"
    },
    {
      "inputs": [
        {
          "internalType": "address",
          "name": "_agent",
          "type": "address"
        }
      ],
      "name": "removeIdentityAgent",
      "outputs": [],
      "stateMutability": "nonpayable",
      "type": "function"
    },
    {
      "inputs": [
        {
          "internalType": "address",
          "name": "_agent",
          "type": "address"
        }
      ],
      "name": "removeTokenAgent",
      "outputs": [],
      "stateMutability": "nonpayable",
      "type": "function"
    },
    {
      "inputs": [],
      "name": "renounceOwnership",
      "outputs": [],
      "stateMutability": "nonpayable",
      "type": "function"
    },
    {
      "inputs": [
        {
          "internalType": "address",
          "name": "idFactory_",
          "type": "address"
        }
      ],
      "name": "setIdFactory",
      "outputs": [],
      "stateMutability": "nonpayable",
      "type": "function"
    },
    {
      "inputs": [
        {
          "internalType": "address",
          "name": "implementationAuthority_",
          "type": "address"
        }
      ],
      "name": "setImplementationAuthority",
      "outputs": [],
      "stateMutability": "nonpayable",
      "type": "function"
    },
    {
      "inputs": [
        {
          "internalType": "address",
          "name": "_adm",
          "type": "address"
        }
      ],
      "name": "setOwner",
      "outputs": [],
      "stateMutability": "nonpayable",
      "type": "function"
    },
    {
      "inputs": [
        {
          "internalType": "string",
          "name": "",
          "type": "string"
        }
      ],
      "name": "tokenDeployed",
      "outputs": [
        {
          "internalType": "address",
          "name": "",
          "type": "address"
        }
      ],
      "stateMutability": "view",
      "type": "function"
    },
    {
      "inputs": [
        {
          "internalType": "address",
          "name": "",
          "type": "address"
        }
      ],
      "name": "tokens",
      "outputs": [
        {
          "internalType": "bool",
          "name": "",
          "type": "bool"
        }
      ],
      "stateMutability": "view",
      "type": "function"
    },
    {
      "inputs": [
        {
          "internalType": "address",
          "name": "newOwner",
          "type": "address"
        }
      ],
      "name": "transferOwnership",
      "outputs": [],
      "stateMutability": "nonpayable",
      "type": "function"
    }
  ],
  "bytecode": "0x60806040523480156200001157600080fd5b506040516200894138038062008941833981016040819052620000349162001482565b6200003f3362000612565b6200004a8362000662565b620000558262000a69565b60408051808201909152600780825266666163746f727960c81b6020830152546000916200008c916001600160a01b031662000b09565b60408051808201909152600780825266666163746f727960c81b602083015254919250600091620000c791906001600160a01b031662000b99565b60408051808201909152600780825266666163746f727960c81b6020830152549192506000916200010291906001600160a01b031662000bae565b60408051808201909152600780825266666163746f727960c81b6020830152549192506000916200013d91906001600160a01b031662000bc3565b60408051808201909152600780825266666163746f727960c81b6020830152549192506000916200017b91906001600160a01b031687878662000bd8565b60405163690a49f960e01b81526001600160a01b0380831660048301529192509083169063690a49f990602401600060405180830381600087803b158015620001c357600080fd5b505af1158015620001d8573d6000803e3d6000fd5b5050600980546001600160a01b03199081166001600160a01b0386811691909117909255600a80548216898416179055600b805482168a8416179055600c80548216888416179055600d805490911691861691909117905550600090505b865151811015620002875762000272876000015182815181106200025e576200025e6200156c565b602002602001015162000c8060201b60201c565b806200027e8162001582565b91505062000236565b5060005b866020015151811015620002df57620002ca87602001518281518110620002b657620002b66200156c565b602002602001015162000d0460201b60201c565b80620002d68162001582565b9150506200028b565b5060005b866040015151811015620003375762000322876040015182815181106200030e576200030e6200156c565b602002602001015162000e6760201b60201c565b806200032e8162001582565b915050620002e3565b507fed1724a72eda3028f924aa1ba391b63451132fe140b27c9ad61d619323c859bf8660000151876020015188604001516040516200037993929190620015f0565b60405180910390a1600b546001600160a01b031663f2fde38b620003a56000546001600160a01b031690565b6040516001600160e01b031960e084901b1681526001600160a01b039091166004820152602401600060405180830381600087803b158015620003e757600080fd5b505af1158015620003fc573d6000803e3d6000fd5b5050600a546001600160a01b0316915063f2fde38b9050620004266000546001600160a01b031690565b6040516001600160e01b031960e084901b1681526001600160a01b039091166004820152602401600060405180830381600087803b1580156200046857600080fd5b505af11580156200047d573d6000803e3d6000fd5b5050600c546001600160a01b0316915063f2fde38b9050620004a76000546001600160a01b031690565b6040516001600160e01b031960e084901b1681526001600160a01b039091166004820152602401600060405180830381600087803b158015620004e957600080fd5b505af1158015620004fe573d6000803e3d6000fd5b5050600d546001600160a01b0316915063f2fde38b9050620005286000546001600160a01b031690565b6040516001600160e01b031960e084901b1681526001600160a01b039091166004820152602401600060405180830381600087803b1580156200056a57600080fd5b505af11580156200057f573d6000803e3d6000fd5b50506009546001600160a01b0316915063f2fde38b9050620005a96000546001600160a01b031690565b6040516001600160e01b031960e084901b1681526001600160a01b039091166004820152602401600060405180830381600087803b158015620005eb57600080fd5b505af115801562000600573d6000803e3d6000fd5b50505050505050505050505062001707565b600080546001600160a01b038381166001600160a01b0319831681178455604051919092169283917f8be0079c531659141344cd1fd0a4f28419497f9722a3daafe3b4186f6b6457e09190a35050565b6200066c62000f4b565b6001600160a01b038116620006b75760405162461bcd60e51b815260206004820152601f60248201526000805160206200892183398151915260448201526064015b60405180910390fd5b60006001600160a01b0316816001600160a01b031663709bc7f36040518163ffffffff1660e01b8152600401602060405180830381865afa15801562000701573d6000803e3d6000fd5b505050506040513d601f19601f820116820180604052508101906200072791906200162f565b6001600160a01b031614158015620007b6575060006001600160a01b0316816001600160a01b0316636ff6e83f6040518163ffffffff1660e01b8152600401602060405180830381865afa15801562000784573d6000803e3d6000fd5b505050506040513d601f19601f82011682018060405250810190620007aa91906200162f565b6001600160a01b031614155b80156200083a575060006001600160a01b0316816001600160a01b0316631ee9ce8b6040518163ffffffff1660e01b8152600401602060405180830381865afa15801562000808573d6000803e3d6000fd5b505050506040513d601f19601f820116820180604052508101906200082e91906200162f565b6001600160a01b031614155b8015620008be575060006001600160a01b0316816001600160a01b0316639e3e7bb96040518163ffffffff1660e01b8152600401602060405180830381865afa1580156200088c573d6000803e3d6000fd5b505050506040513d601f19601f82011682018060405250810190620008b291906200162f565b6001600160a01b031614155b801562000942575060006001600160a01b0316816001600160a01b03166361f898256040518163ffffffff1660e01b8152600401602060405180830381865afa15801562000910573d6000803e3d6000fd5b505050506040513d601f19601f820116820180604052508101906200093691906200162f565b6001600160a01b031614155b8015620009c6575060006001600160a01b0316816001600160a01b031663fedcc0526040518163ffffffff1660e01b8152600401602060405180830381865afa15801562000994573d6000803e3d6000fd5b505050506040513d601f19601f82011682018060405250810190620009ba91906200162f565b6001600160a01b031614155b62000a145760405162461bcd60e51b815260206004820181905260248201527f696e76616c696420496d706c656d656e746174696f6e20417574686f726974796044820152606401620006ae565b600780546001600160a01b0319166001600160a01b0383169081179091556040519081527f3b1074392ed8e8424715d0dda2197eede67080b377fc8370e26f3e882207f6b8906020015b60405180910390a150565b62000a7362000f4b565b6001600160a01b03811662000aba5760405162461bcd60e51b815260206004820152601f6024820152600080516020620089218339815191526044820152606401620006ae565b600880546001600160a01b0319166001600160a01b0383169081179091556040519081527fae81f4fee1b2d830e39ae449967642aaa0e5a1771aa200d0a50853010992242c9060200162000a5e565b6000806040518060200162000b1e9062001331565b601f1982820381018352601f9091011660408181526001600160a01b03861660208301529192506000910160405160208183030381529060405290506000828260405160200162000b719291906200167a565b60408051601f19818403018152919052905062000b8f868262000fa9565b9695505050505050565b6000806040518060200162000b1e906200133f565b6000806040518060200162000b1e906200134d565b6000806040518060200162000b1e906200135b565b6000806040518060200162000bed9062001369565b601f1982820381018352601f9091011660408181526001600160a01b03898116602084015288811682840152878116606084015286166080808401919091528151808403909101815260a0830190915291925060009062000c55908490849060c0016200167a565b60408051601f19818403018152919052905062000c73898262000fa9565b9998505050505050505050565b62000c8a62000f4b565b62000ca0816200103160201b62001cb41760201c565b600954604051634273cc2160e11b81526001600160a01b038381166004830152909116906384e7984290602401600060405180830381600087803b15801562000ce857600080fd5b505af115801562000cfd573d6000803e3d6000fd5b5050505050565b62000d0e62000f4b565b62000d24816200111560201b62001d6c1760201c565b60005b60105481101562000e635762000dee6010828154811062000d4c5762000d4c6200156c565b90600052602060002001805462000d6390620016ad565b80601f016020809104026020016040519081016040528092919081815260200182805462000d9190620016ad565b801562000de25780601f1062000db65761010080835404028352916020019162000de2565b820191906000526020600020905b81548152906001019060200180831162000dc457829003601f168201915b5050620011f992505050565b604051634273cc2160e11b81526001600160a01b03848116600483015291909116906384e7984290602401600060405180830381600087803b15801562000e3457600080fd5b505af115801562000e49573d6000803e3d6000fd5b50505050808062000e5a9062001582565b91505062000d27565b5050565b62000e7162000f4b565b6001600160a01b03811662000eb85760405162461bcd60e51b815260206004820152601f6024820152600080516020620089218339815191526044820152606401620006ae565b62000ed38160036200122c60201b62001e241790919060201c565b6006805460018101825560009182527ff652222313e28459528d920b65115c16c04f3efc82aaedc97be59f3f377c0d3f0180546001600160a01b0319166001600160a01b03841690811790915560405190917ff976f4369df3600a69520c7ed19f0dbe3ffe452dac39ded1442919cc90686ac691a250565b6000546001600160a01b0316331462000fa75760405162461bcd60e51b815260206004820181905260248201527f4f776e61626c653a2063616c6c6572206973206e6f7420746865206f776e65726044820152606401620006ae565b565b6000808360405160200162000fbf9190620016e9565b60405160208183030381529060405280519060200120905060008360200184518381836000f592505050803b62000ff557600080fd5b6040516001600160a01b038216907ff40fcec21964ffb566044d083b4073f29f7f7929110ea19e1b3ebe375d89055e90600090a2949350505050565b6200103b62000f4b565b6001600160a01b038116620010825760405162461bcd60e51b815260206004820152601f6024820152600080516020620089218339815191526044820152606401620006ae565b6200109d8160016200122c60201b62001e241790919060201c565b6004805460018101825560009182527f8a35acfbc15ff81a39ae7d344fd709f28e8600b4aa8c65c6b64bfe7fe36bd19b0180546001600160a01b0319166001600160a01b03841690811790915560405190917f696087291b62548d0679080bd59b807905f1ccdb636f87cc3991a619b144b42f91a250565b6200111f62000f4b565b6001600160a01b038116620011665760405162461bcd60e51b815260206004820152601f6024820152600080516020620089218339815191526044820152606401620006ae565b620011818160026200122c60201b62001e241790919060201c565b6005805460018101825560009182527f036b6384b5eca791c62761152d0c79bb0604c104a5fb6f4eb0703f3154bb3db00180546001600160a01b0319166001600160a01b03841690811790915560405190917fd62c45e13ac30396aceb3ad37c89bd1ba9048032fe61679000e92eb93dbfd67d91a250565b6000600e826040516200120d9190620016e9565b908152604051908190036020019020546001600160a01b031692915050565b620012388282620012ac565b15620012875760405162461bcd60e51b815260206004820152601f60248201527f526f6c65733a206163636f756e7420616c72656164792068617320726f6c65006044820152606401620006ae565b6001600160a01b0316600090815260209190915260409020805460ff19166001179055565b60006001600160a01b038216620013115760405162461bcd60e51b815260206004820152602260248201527f526f6c65733a206163636f756e7420697320746865207a65726f206164647265604482015261737360f01b6064820152608401620006ae565b506001600160a01b03166000908152602091909152604090205460ff1690565b6108fc8062005b7283390190565b6108fc806200646e83390190565b6108fc8062006d6a83390190565b6108fc806200766683390190565b6109bf8062007f6283390190565b80516001600160a01b03811681146200138f57600080fd5b919050565b634e487b7160e01b600052604160045260246000fd5b604051606081016001600160401b0381118282101715620013cf57620013cf62001394565b60405290565b600082601f830112620013e757600080fd5b815160206001600160401b038083111562001406576200140662001394565b8260051b604051601f19603f830116810181811084821117156200142e576200142e62001394565b6040529384528581018301938381019250878511156200144d57600080fd5b83870191505b848210156200147757620014678262001377565b8352918301919083019062001453565b979650505050505050565b6000806000606084860312156200149857600080fd5b620014a38462001377565b9250620014b36020850162001377565b60408501519092506001600160401b0380821115620014d157600080fd5b9085019060608288031215620014e657600080fd5b620014f0620013aa565b8251828111156200150057600080fd5b6200150e89828601620013d5565b8252506020830151828111156200152457600080fd5b6200153289828601620013d5565b6020830152506040830151828111156200154b57600080fd5b6200155989828601620013d5565b6040830152508093505050509250925092565b634e487b7160e01b600052603260045260246000fd5b600060018201620015a357634e487b7160e01b600052601160045260246000fd5b5060010190565b600081518084526020808501945080840160005b83811015620015e55781516001600160a01b031687529582019590820190600101620015be565b509495945050505050565b606081526000620016056060830186620015aa565b8281036020840152620016198186620015aa565b9050828103604084015262000b8f8185620015aa565b6000602082840312156200164257600080fd5b6200164d8262001377565b9392505050565b60005b838110156200167157818101518382015260200162001657565b50506000910152565b600083516200168e81846020880162001654565b835190830190620016a481836020880162001654565b01949350505050565b600181811c90821680620016c257607f821691505b602082108103620016e357634e487b7160e01b600052602260045260246000fd5b50919050565b60008251620016fd81846020870162001654565b9190910192915050565b61445b80620017176000396000f3fe60806040523480156200001157600080fd5b50600436106200020d5760003560e01c8063a783a10d1162000125578063e486033911620000af578063f5f15939116200007a578063f5f15939146200048f578063f6fecd4214620004a6578063fb88d79c14620004b0578063ff3e695414620004e757600080fd5b8063e48603391462000415578063ec81aadb146200043b578063f2fde38b1462000461578063f49342cd146200047857600080fd5b8063bc4d861b11620000f0578063bc4d861b14620003be578063c1733f6814620003d0578063ccd41cce14620003e7578063cdde293214620003fe57600080fd5b8063a783a10d1462000360578063aa6ca8081462000377578063ab89f42f1462000390578063b81d753b14620003a757600080fd5b806350b0183811620001a75780638da5cb5b11620001725780638da5cb5b146200031457806392dd9d6514620003265780639f07c959146200033d578063a531fa46146200035657600080fd5b806350b0183814620002cf5780635f2773a514620002e6578063715018a614620002f857806382492c3b146200030257600080fd5b80631eb5bba511620001e85780631eb5bba5146200026c5780632993063c146200027e5780632d5f11871462000295578063346531fa14620002a757600080fd5b8063132eb65f146200021257806313af4035146200023c57806319166b5c1462000255575b600080fd5b600c546001600160a01b03165b6040516001600160a01b0390911681526020015b60405180910390f35b620002536200024d3660046200259e565b620004fe565b005b62000253620002663660046200259e565b6200066f565b600b546001600160a01b03166200021f565b620002536200028f3660046200259e565b620006e9565b6007546001600160a01b03166200021f565b620002be620002b83660046200259e565b620007a1565b604051901515815260200162000233565b62000253620002e0366004620025c5565b620007b6565b6008546001600160a01b03166200021f565b6200025362000821565b600a546001600160a01b03166200021f565b6000546001600160a01b03166200021f565b62000253620003373660046200259e565b62000839565b6200034762000c1e565b60405162000233919062002603565b6200034762000c82565b620002be620003713660046200259e565b62000ce4565b6200038162000cf3565b604051620002339190620026a6565b62000253620003a13660046200259e565b62000dd6565b620002be620003b83660046200259e565b62000e1e565b6009546001600160a01b03166200021f565b6200021f620003e13660046200270c565b62000e2d565b62000253620003f83660046200259e565b62000e64565b620002536200040f3660046200259e565b62000ee6565b620002be620004263660046200259e565b600f6020526000908152604090205460ff1681565b620004526200044c36600462002783565b6200103d565b6040516200023391906200279d565b62000253620004723660046200259e565b620010f2565b620002536200048936600462002873565b62001171565b62000253620004a03660046200259e565b62001a0d565b6200034762001ba0565b6200021f620004c1366004620028d9565b8051602081830181018051600e825292820191909301209152546001600160a01b031681565b62000253620004f83660046200259e565b62001c02565b6200050862001ea4565b6001600160a01b0381166200053a5760405162461bcd60e51b815260040162000531906200291a565b60405180910390fd5b6200054760018262001e24565b600480546001810182556000919091527f8a35acfbc15ff81a39ae7d344fd709f28e8600b4aa8c65c6b64bfe7fe36bd19b0180546001600160a01b0319166001600160a01b0383161790556200059f60038262001e24565b600680546001810182556000919091527ff652222313e28459528d920b65115c16c04f3efc82aaedc97be59f3f377c0d3f0180546001600160a01b0319166001600160a01b038316179055620005f760028262001e24565b6005805460018101825560009182527f036b6384b5eca791c62761152d0c79bb0604c104a5fb6f4eb0703f3154bb3db00180546001600160a01b0319166001600160a01b03841690811790915560405190917f50146d0e3c60aa1d17a70635b05494f864e86144a2201275021014fbf08bafe291a250565b6200067962001ea4565b620006848162001cb4565b600954604051634273cc2160e11b81526001600160a01b038381166004830152909116906384e79842906024015b600060405180830381600087803b158015620006cd57600080fd5b505af1158015620006e2573d6000803e3d6000fd5b5050505050565b620006f362001ea4565b6001600160a01b0381166200071c5760405162461bcd60e51b815260040162000531906200291a565b6200072960038262001e24565b6006805460018101825560009182527ff652222313e28459528d920b65115c16c04f3efc82aaedc97be59f3f377c0d3f0180546001600160a01b0319166001600160a01b03841690811790915560405190917ff976f4369df3600a69520c7ed19f0dbe3ffe452dac39ded1442919cc90686ac691a250565b6000620007b060028362001f00565b92915050565b620007c062001ea4565b60405163f2fde38b60e01b81526001600160a01b03828116600483015283169063f2fde38b90602401600060405180830381600087803b1580156200080457600080fd5b505af115801562000819573d6000803e3d6000fd5b505050505050565b6200082b62001ea4565b62000837600062001f85565b565b6200084362001ea4565b6001600160a01b0381166200086c5760405162461bcd60e51b815260040162000531906200291a565b60006001600160a01b0316816001600160a01b031663709bc7f36040518163ffffffff1660e01b8152600401602060405180830381865afa158015620008b6573d6000803e3d6000fd5b505050506040513d601f19601f82011682018060405250810190620008dc919062002951565b6001600160a01b0316141580156200096b575060006001600160a01b0316816001600160a01b0316636ff6e83f6040518163ffffffff1660e01b8152600401602060405180830381865afa15801562000939573d6000803e3d6000fd5b505050506040513d601f19601f820116820180604052508101906200095f919062002951565b6001600160a01b031614155b8015620009ef575060006001600160a01b0316816001600160a01b0316631ee9ce8b6040518163ffffffff1660e01b8152600401602060405180830381865afa158015620009bd573d6000803e3d6000fd5b505050506040513d601f19601f82011682018060405250810190620009e3919062002951565b6001600160a01b031614155b801562000a73575060006001600160a01b0316816001600160a01b0316639e3e7bb96040518163ffffffff1660e01b8152600401602060405180830381865afa15801562000a41573d6000803e3d6000fd5b505050506040513d601f19601f8201168201806040525081019062000a67919062002951565b6001600160a01b031614155b801562000af7575060006001600160a01b0316816001600160a01b03166361f898256040518163ffffffff1660e01b8152600401602060405180830381865afa15801562000ac5573d6000803e3d6000fd5b505050506040513d601f19601f8201168201806040525081019062000aeb919062002951565b6001600160a01b031614155b801562000b7b575060006001600160a01b0316816001600160a01b031663fedcc0526040518163ffffffff1660e01b8152600401602060405180830381865afa15801562000b49573d6000803e3d6000fd5b505050506040513d601f19601f8201168201806040525081019062000b6f919062002951565b6001600160a01b031614155b62000bc95760405162461bcd60e51b815260206004820181905260248201527f696e76616c696420496d706c656d656e746174696f6e20417574686f72697479604482015260640162000531565b600780546001600160a01b0319166001600160a01b0383169081179091556040519081527f3b1074392ed8e8424715d0dda2197eede67080b377fc8370e26f3e882207f6b8906020015b60405180910390a150565b6060600480548060200260200160405190810160405280929190818152602001828054801562000c7857602002820191906000526020600020905b81546001600160a01b0316815260019091019060200180831162000c59575b5050505050905090565b6060600580548060200260200160405190810160405280929190818152602001828054801562000c78576020028201919060005260206000209081546001600160a01b0316815260019091019060200180831162000c59575050505050905090565b6000620007b060038362001f00565b60606010805480602002602001604051908101604052809291908181526020016000905b8282101562000dcd57838290600052602060002001805462000d399062002971565b80601f016020809104026020016040519081016040528092919081815260200182805462000d679062002971565b801562000db85780601f1062000d8c5761010080835404028352916020019162000db8565b820191906000526020600020905b81548152906001019060200180831162000d9a57829003601f168201915b50505050508152602001906001019062000d17565b50505050905090565b62000de062001ea4565b62000deb8162001fd5565b600954604051634bd313c760e11b81526001600160a01b038381166004830152909116906397a6278e90602401620006b2565b6000620007b060018362001f00565b6000600e838360405162000e43929190620029ad565b908152604051908190036020019020546001600160a01b0316905092915050565b62000e6e62001ea4565b6001600160a01b03811662000e975760405162461bcd60e51b815260040162000531906200291a565b600880546001600160a01b0319166001600160a01b0383169081179091556040519081527fae81f4fee1b2d830e39ae449967642aaa0e5a1771aa200d0a50853010992242c9060200162000c13565b62000ef062001ea4565b62000efb8162002168565b60005b601054811015620010395762000fc46010828154811062000f235762000f23620029bd565b90600052602060002001805462000f3a9062002971565b80601f016020809104026020016040519081016040528092919081815260200182805462000f689062002971565b801562000fb95780601f1062000f8d5761010080835404028352916020019162000fb9565b820191906000526020600020905b81548152906001019060200180831162000f9b57829003601f168201915b5050505050620022fb565b604051634bd313c760e11b81526001600160a01b03848116600483015291909116906397a6278e90602401600060405180830381600087803b1580156200100a57600080fd5b505af11580156200101f573d6000803e3d6000fd5b5050505080806200103090620029e9565b91505062000efe565b5050565b601081815481106200104e57600080fd5b9060005260206000200160009150905080546200106b9062002971565b80601f0160208091040260200160405190810160405280929190818152602001828054620010999062002971565b8015620010ea5780601f10620010be57610100808354040283529160200191620010ea565b820191906000526020600020905b815481529060010190602001808311620010cc57829003601f168201915b505050505081565b620010fc62001ea4565b6001600160a01b038116620011635760405162461bcd60e51b815260206004820152602660248201527f4f776e61626c653a206e6577206f776e657220697320746865207a65726f206160448201526564647265737360d01b606482015260840162000531565b6200116e8162001f85565b50565b6200117c33620007a1565b620011e65760405162461bcd60e51b815260206004820152603360248201527f546f6b656e4167656e74526f6c653a2063616c6c657220646f6573206e6f74206044820152726861766520746865204167656e7420726f6c6560681b606482015260840162000531565b60006001600160a01b0316600e8360405162001203919062002a05565b908152604051908190036020019020546001600160a01b031614620012645760405162461bcd60e51b81526020600482015260166024820152751d1bdad95b88185b1c9958591e4819195c1b1bde595960521b604482015260640162000531565b601e62001275608083018362002a23565b90501115620012d35760405162461bcd60e51b815260206004820152602360248201527f6d6178203330206d6f64756c6520616374696f6e73206174206465706c6f796d604482015262195b9d60ea1b606482015260840162000531565b620012e260a082018262002a23565b9050620012f3608083018362002a23565b90501015620013455760405162461bcd60e51b815260206004820152601a60248201527f696e76616c696420636f6d706c69616e6365207061747465726e000000000000604482015260640162000531565b600754600090620013619084906001600160a01b03166200232e565b600754600954919250600091620014249186916001600160a01b0391821691168562001391602089018962002a77565b8080601f016020809104026020016040519081016040528093929190818152602001838380828437600092019190915250620013d59250505060408a018a62002a77565b8080601f0160208091040260200160405190810160405280939291908181526020018383808284376000920191909152506200141c9250505060808b0160608c0162002ac1565b6000620023bd565b6008549091506000906001600160a01b0316633d56ff66836200144f6000546001600160a01b031690565b886040518463ffffffff1660e01b8152600401620014709392919062002ae6565b6020604051808303816000875af115801562001490573d6000803e3d6000fd5b505050506040513d601f19601f82011682018060405250810190620014b6919062002951565b604051633d1ddc5b60e01b81526001600160a01b03808316600483015291925090831690633d1ddc5b90602401600060405180830381600087803b158015620014fe57600080fd5b505af115801562001513573d6000803e3d6000fd5b505050506000306001600160a01b031663a531fa466040518163ffffffff1660e01b8152600401600060405180830381865afa15801562001558573d6000803e3d6000fd5b505050506040513d6000823e601f3d908101601f1916820160405262001582919081019062002b1d565b905060005b81518110156200163357836001600160a01b03166384e79842838381518110620015b557620015b5620029bd565b60200260200101516040518263ffffffff1660e01b8152600401620015e991906001600160a01b0391909116815260200190565b600060405180830381600087803b1580156200160457600080fd5b505af115801562001619573d6000803e3d6000fd5b5050505080806200162a90620029e9565b91505062001587565b5060005b62001646608087018762002a23565b9050811015620018ad576001600160a01b03851663a446d49f6200166e608089018962002a23565b84818110620016815762001681620029bd565b90506020020160208101906200169891906200259e565b6040516001600160e01b031960e084901b1681526001600160a01b039091166004820152602401602060405180830381865afa158015620016dd573d6000803e3d6000fd5b505050506040513d601f19601f8201168201806040525081019062001703919062002bdc565b620017ac576001600160a01b038516631ed86f1962001726608089018962002a23565b84818110620017395762001739620029bd565b90506020020160208101906200175091906200259e565b6040516001600160e01b031960e084901b1681526001600160a01b039091166004820152602401600060405180830381600087803b1580156200179257600080fd5b505af1158015620017a7573d6000803e3d6000fd5b505050505b620017bb60a087018762002a23565b905081101562001898576001600160a01b03851663efb22d33620017e360a089018962002a23565b84818110620017f657620017f6620029bd565b90506020028101906200180a919062002a77565b6200181960808b018b62002a23565b868181106200182c576200182c620029bd565b90506020020160208101906200184391906200259e565b6040518463ffffffff1660e01b8152600401620018639392919062002c00565b600060405180830381600087803b1580156200187e57600080fd5b505af115801562001893573d6000803e3d6000fd5b505050505b80620018a481620029e9565b91505062001637565b5082600e87604051620018c1919062002a05565b90815260405190819003602001902080546001600160a01b03929092166001600160a01b0319909216919091179055601080546001810182556000919091527f1b6847dc741a1b0cd08d278845f9d819d87b734759afb55fe2de5cb82a9ae672016200192e878262002c90565b50826001600160a01b031663f2fde38b620019516000546001600160a01b031690565b6040516001600160e01b031960e084901b1681526001600160a01b039091166004820152602401600060405180830381600087803b1580156200199357600080fd5b505af1158015620019a8573d6000803e3d6000fd5b5050505085604051620019bc919062002a05565b6040519081900381206001600160a01b0386811683529091908516907f385395394cfb59281c5628fd89f736b8b7bd26ee28e6d1559f97f6f95c3805fa9060200160405180910390a3505050505050565b62001a1762001ea4565b6001600160a01b03811662001a405760405162461bcd60e51b815260040162000531906200291a565b62001a4d6003826200245e565b60065460005b8181101562001b6757826001600160a01b03166006828154811062001a7c5762001a7c620029bd565b6000918252602090912001546001600160a01b03160362001b5257600662001aa660018462002d5d565b8154811062001ab95762001ab9620029bd565b600091825260209091200154600680546001600160a01b03909216918390811062001ae85762001ae8620029bd565b9060005260206000200160006101000a8154816001600160a01b0302191690836001600160a01b03160217905550600680548062001b2a5762001b2a62002d73565b600082815260209020810160001990810180546001600160a01b031916905501905562001b67565b8062001b5e81620029e9565b91505062001a53565b506040516001600160a01b038316907f3b405ce90aad13cee431c26a2e99105918c4a53ae37fce623114438012058d4490600090a25050565b6060600680548060200260200160405190810160405280929190818152602001828054801562000c78576020028201919060005260206000209081546001600160a01b0316815260019091019060200180831162000c59575050505050905090565b62001c0c62001ea4565b62001c178162001d6c565b60005b601054811015620010395762001c3f6010828154811062000f235762000f23620029bd565b604051634273cc2160e11b81526001600160a01b03848116600483015291909116906384e7984290602401600060405180830381600087803b15801562001c8557600080fd5b505af115801562001c9a573d6000803e3d6000fd5b50505050808062001cab90620029e9565b91505062001c1a565b62001cbe62001ea4565b6001600160a01b03811662001ce75760405162461bcd60e51b815260040162000531906200291a565b62001cf460018262001e24565b6004805460018101825560009182527f8a35acfbc15ff81a39ae7d344fd709f28e8600b4aa8c65c6b64bfe7fe36bd19b0180546001600160a01b0319166001600160a01b03841690811790915560405190917f696087291b62548d0679080bd59b807905f1ccdb636f87cc3991a619b144b42f91a250565b62001d7662001ea4565b6001600160a01b03811662001d9f5760405162461bcd60e51b815260040162000531906200291a565b62001dac60028262001e24565b6005805460018101825560009182527f036b6384b5eca791c62761152d0c79bb0604c104a5fb6f4eb0703f3154bb3db00180546001600160a01b0319166001600160a01b03841690811790915560405190917fd62c45e13ac30396aceb3ad37c89bd1ba9048032fe61679000e92eb93dbfd67d91a250565b62001e30828262001f00565b1562001e7f5760405162461bcd60e51b815260206004820152601f60248201527f526f6c65733a206163636f756e7420616c72656164792068617320726f6c6500604482015260640162000531565b6001600160a01b0316600090815260209190915260409020805460ff19166001179055565b6000546001600160a01b03163314620008375760405162461bcd60e51b815260206004820181905260248201527f4f776e61626c653a2063616c6c6572206973206e6f7420746865206f776e6572604482015260640162000531565b60006001600160a01b03821662001f655760405162461bcd60e51b815260206004820152602260248201527f526f6c65733a206163636f756e7420697320746865207a65726f206164647265604482015261737360f01b606482015260840162000531565b506001600160a01b03166000908152602091909152604090205460ff1690565b600080546001600160a01b038381166001600160a01b0319831681178455604051919092169283917f8be0079c531659141344cd1fd0a4f28419497f9722a3daafe3b4186f6b6457e09190a35050565b62001fdf62001ea4565b6001600160a01b038116620020085760405162461bcd60e51b815260040162000531906200291a565b620020156001826200245e565b60045460005b818110156200212f57826001600160a01b031660048281548110620020445762002044620029bd565b6000918252602090912001546001600160a01b0316036200211a5760046200206e60018462002d5d565b81548110620020815762002081620029bd565b600091825260209091200154600480546001600160a01b039092169183908110620020b057620020b0620029bd565b9060005260206000200160006101000a8154816001600160a01b0302191690836001600160a01b031602179055506004805480620020f257620020f262002d73565b600082815260209020810160001990810180546001600160a01b03191690550190556200212f565b806200212681620029e9565b9150506200201b565b506040516001600160a01b038316907f3a06c0ed6e940a5a843d99477b116cf07b2e8a9b17294fc42fea8dad29beccab90600090a25050565b6200217262001ea4565b6001600160a01b0381166200219b5760405162461bcd60e51b815260040162000531906200291a565b620021a86002826200245e565b60055460005b81811015620022c257826001600160a01b031660058281548110620021d757620021d7620029bd565b6000918252602090912001546001600160a01b031603620022ad5760056200220160018462002d5d565b81548110620022145762002214620029bd565b600091825260209091200154600580546001600160a01b039092169183908110620022435762002243620029bd565b9060005260206000200160006101000a8154816001600160a01b0302191690836001600160a01b03160217905550600580548062002285576200228562002d73565b600082815260209020810160001990810180546001600160a01b0319169055019055620022c2565b80620022b981620029e9565b915050620021ae565b506040516001600160a01b038316907f6a659bb87bb23efbdc295f8eed8ae8c4379bfb77660ced2ef0f3d7d26b05c6a690600090a25050565b6000600e826040516200230f919062002a05565b908152604051908190036020019020546001600160a01b031692915050565b6000806040518060200162002343906200256c565b601f1982820381018352601f9091011660408181526001600160a01b0386166020830152919250600091016040516020818303038152906040529050600082826040516020016200239692919062002d89565b6040516020818303038152906040529050620023b38682620024e4565b9695505050505050565b60008060405180602001620023d2906200257a565b6020820181038252601f19601f82011660405250905060008989898989898960405160200162002409979695949392919062002dbc565b6040516020818303038152906040529050600082826040516020016200243192919062002d89565b60405160208183030381529060405290506200244e8c82620024e4565b9c9b505050505050505050505050565b6200246a828262001f00565b620024c25760405162461bcd60e51b815260206004820152602160248201527f526f6c65733a206163636f756e7420646f6573206e6f74206861766520726f6c6044820152606560f81b606482015260840162000531565b6001600160a01b0316600090815260209190915260409020805460ff19169055565b60008083604051602001620024fa919062002a05565b60405160208183030381529060405280519060200120905060008360200184518381836000f592505050803b6200253057600080fd5b6040516001600160a01b038216907ff40fcec21964ffb566044d083b4073f29f7f7929110ea19e1b3ebe375d89055e90600090a2949350505050565b6108fc8062002e2583390190565b610d05806200372183390190565b6001600160a01b03811681146200116e57600080fd5b600060208284031215620025b157600080fd5b8135620025be8162002588565b9392505050565b60008060408385031215620025d957600080fd5b8235620025e68162002588565b91506020830135620025f88162002588565b809150509250929050565b6020808252825182820181905260009190848201906040850190845b81811015620026465783516001600160a01b0316835292840192918401916001016200261f565b50909695505050505050565b60005b838110156200266f57818101518382015260200162002655565b50506000910152565b600081518084526200269281602086016020860162002652565b601f01601f19169290920160200192915050565b6000602080830181845280855180835260408601915060408160051b870101925083870160005b82811015620026ff57603f19888603018452620026ec85835162002678565b94509285019290850190600101620026cd565b5092979650505050505050565b600080602083850312156200272057600080fd5b823567ffffffffffffffff808211156200273957600080fd5b818501915085601f8301126200274e57600080fd5b8135818111156200275e57600080fd5b8660208285010111156200277157600080fd5b60209290920196919550909350505050565b6000602082840312156200279657600080fd5b5035919050565b602081526000620025be602083018462002678565b634e487b7160e01b600052604160045260246000fd5b604051601f8201601f1916810167ffffffffffffffff81118282101715620027f457620027f4620027b2565b604052919050565b600082601f8301126200280e57600080fd5b813567ffffffffffffffff8111156200282b576200282b620027b2565b62002840601f8201601f1916602001620027c8565b8181528460208386010111156200285657600080fd5b816020850160208301376000918101602001919091529392505050565b600080604083850312156200288757600080fd5b823567ffffffffffffffff80821115620028a057600080fd5b620028ae86838701620027fc565b93506020850135915080821115620028c557600080fd5b50830160c08186031215620025f857600080fd5b600060208284031215620028ec57600080fd5b813567ffffffffffffffff8111156200290457600080fd5b6200291284828501620027fc565b949350505050565b6020808252601f908201527f696e76616c696420617267756d656e74202d207a65726f206164647265737300604082015260600190565b6000602082840312156200296457600080fd5b8151620025be8162002588565b600181811c908216806200298657607f821691505b602082108103620029a757634e487b7160e01b600052602260045260246000fd5b50919050565b8183823760009101908152919050565b634e487b7160e01b600052603260045260246000fd5b634e487b7160e01b600052601160045260246000fd5b600060018201620029fe57620029fe620029d3565b5060010190565b6000825162002a1981846020870162002652565b9190910192915050565b6000808335601e1984360301811262002a3b57600080fd5b83018035915067ffffffffffffffff82111562002a5757600080fd5b6020019150600581901b360382131562002a7057600080fd5b9250929050565b6000808335601e1984360301811262002a8f57600080fd5b83018035915067ffffffffffffffff82111562002aab57600080fd5b60200191503681900382131562002a7057600080fd5b60006020828403121562002ad457600080fd5b813560ff81168114620025be57600080fd5b6001600160a01b0384811682528316602082015260606040820181905260009062002b149083018462002678565b95945050505050565b6000602080838503121562002b3157600080fd5b825167ffffffffffffffff8082111562002b4a57600080fd5b818501915085601f83011262002b5f57600080fd5b81518181111562002b745762002b74620027b2565b8060051b915062002b87848301620027c8565b818152918301840191848101908884111562002ba257600080fd5b938501935b8385101562002bd0578451925062002bbf8362002588565b828252938501939085019062002ba7565b98975050505050505050565b60006020828403121562002bef57600080fd5b81518015158114620025be57600080fd5b6040815282604082015282846060830137600060608483018101919091526001600160a01b03929092166020820152601f909201601f191690910101919050565b601f82111562002c8b57600081815260208120601f850160051c8101602086101562002c6a5750805b601f850160051c820191505b81811015620008195782815560010162002c76565b505050565b815167ffffffffffffffff81111562002cad5762002cad620027b2565b62002cc58162002cbe845462002971565b8462002c41565b602080601f83116001811462002cfd576000841562002ce45750858301515b600019600386901b1c1916600185901b17855562000819565b600085815260208120601f198616915b8281101562002d2e5788860151825594840194600190910190840162002d0d565b508582101562002d4d5787850151600019600388901b60f8161c191681555b5050505050600190811b01905550565b81810381811115620007b057620007b0620029d3565b634e487b7160e01b600052603160045260246000fd5b6000835162002d9d81846020880162002652565b83519083019062002db381836020880162002652565b01949350505050565b600060018060a01b03808a1683528089166020840152808816604084015260e0606084015262002df060e084018862002678565b838103608085015262002e04818862002678565b60ff9690961660a0850152509290921660c090910152509594505050505056fe608060405234801561001057600080fd5b506040516108fc3803806108fc83398101604081905261002f9161022a565b6001600160a01b03811661008a5760405162461bcd60e51b815260206004820152601f60248201527f696e76616c696420617267756d656e74202d207a65726f20616464726573730060448201526064015b60405180910390fd5b6100a0816000805160206108dc83398151915255565b6040516001600160a01b038216907f3b1074392ed8e8424715d0dda2197eede67080b377fc8370e26f3e882207f6b890600090a260006100ec6000805160206108dc8339815191525490565b6001600160a01b03166361f898256040518163ffffffff1660e01b8152600401602060405180830381865afa158015610129573d6000803e3d6000fd5b505050506040513d601f19601f8201168201806040525081019061014d919061022a565b60408051600481526024810182526020810180516001600160e01b03166370e39c9560e11b17905290519192506000916001600160a01b038416916101919161025a565b600060405180830381855af49150503d80600081146101cc576040519150601f19603f3d011682016040523d82523d6000602084013e6101d1565b606091505b50509050806102225760405162461bcd60e51b815260206004820152601660248201527f496e697469616c697a6174696f6e206661696c65642e000000000000000000006044820152606401610081565b505050610289565b60006020828403121561023c57600080fd5b81516001600160a01b038116811461025357600080fd5b9392505050565b6000825160005b8181101561027b5760208186018101518583015201610261565b506000920191825250919050565b610644806102986000396000f3fe6080604052600436106100295760003560e01c80632d5f1187146100cf57806392dd9d6514610108575b60006100416000805160206105ef8339815191525490565b6001600160a01b03166361f898256040518163ffffffff1660e01b8152600401602060405180830381865afa15801561007e573d6000803e3d6000fd5b505050506040513d601f19601f820116820180604052508101906100a291906105ad565b90503660008037600080366000846127105a03f43d806000803e8180156100c857816000f35b816000fd5b005b3480156100db57600080fd5b506000805160206105ef833981519152546040516001600160a01b03909116815260200160405180910390f35b34801561011457600080fd5b506100cd6101233660046105d1565b6000805160206105ef833981519152546001600160a01b0316336001600160a01b0316146101ae5760405162461bcd60e51b815260206004820152602d60248201527f6f6e6c792063757272656e7420696d706c656d656e746174696f6e417574686f60448201526c1c9a5d1e4818d85b8818d85b1b609a1b60648201526084015b60405180910390fd5b6001600160a01b0381166102045760405162461bcd60e51b815260206004820152601f60248201527f696e76616c696420617267756d656e74202d207a65726f20616464726573730060448201526064016101a5565b60006001600160a01b0316816001600160a01b031663709bc7f36040518163ffffffff1660e01b8152600401602060405180830381865afa15801561024d573d6000803e3d6000fd5b505050506040513d601f19601f8201168201806040525081019061027191906105ad565b6001600160a01b0316141580156102fc575060006001600160a01b0316816001600160a01b0316636ff6e83f6040518163ffffffff1660e01b8152600401602060405180830381865afa1580156102cc573d6000803e3d6000fd5b505050506040513d601f19601f820116820180604052508101906102f091906105ad565b6001600160a01b031614155b801561037c575060006001600160a01b0316816001600160a01b0316631ee9ce8b6040518163ffffffff1660e01b8152600401602060405180830381865afa15801561034c573d6000803e3d6000fd5b505050506040513d601f19601f8201168201806040525081019061037091906105ad565b6001600160a01b031614155b80156103fc575060006001600160a01b0316816001600160a01b0316639e3e7bb96040518163ffffffff1660e01b8152600401602060405180830381865afa1580156103cc573d6000803e3d6000fd5b505050506040513d601f19601f820116820180604052508101906103f091906105ad565b6001600160a01b031614155b801561047c575060006001600160a01b0316816001600160a01b03166361f898256040518163ffffffff1660e01b8152600401602060405180830381865afa15801561044c573d6000803e3d6000fd5b505050506040513d601f19601f8201168201806040525081019061047091906105ad565b6001600160a01b031614155b80156104fc575060006001600160a01b0316816001600160a01b031663fedcc0526040518163ffffffff1660e01b8152600401602060405180830381865afa1580156104cc573d6000803e3d6000fd5b505050506040513d601f19601f820116820180604052508101906104f091906105ad565b6001600160a01b031614155b6105485760405162461bcd60e51b815260206004820181905260248201527f696e76616c696420496d706c656d656e746174696f6e20417574686f7269747960448201526064016101a5565b61055e816000805160206105ef83398151915255565b6040516001600160a01b038216907f3b1074392ed8e8424715d0dda2197eede67080b377fc8370e26f3e882207f6b890600090a250565b6001600160a01b03811681146105aa57600080fd5b50565b6000602082840312156105bf57600080fd5b81516105ca81610595565b9392505050565b6000602082840312156105e357600080fd5b81356105ca8161059556fe821f3e4d3d679f19eacc940c87acf846ea6eae24a63058ea750304437a62aafca2646970667358221220093376a252ca2b1ee418691d7130544ea3de9ca5ddaa4eff7f23ea7f37d3406264736f6c63430008110033821f3e4d3d679f19eacc940c87acf846ea6eae24a63058ea750304437a62aafc60806040523480156200001157600080fd5b5060405162000d0538038062000d058339810160408190526200003491620004dd565b6001600160a01b038716158015906200005557506001600160a01b03861615155b80156200006a57506001600160a01b03851615155b620000bc5760405162461bcd60e51b815260206004820152601f60248201527f696e76616c696420617267756d656e74202d207a65726f20616464726573730060448201526064015b60405180910390fd5b604051602001620000d890602080825260009082015260400190565b6040516020818303038152906040528051906020012084604051602001620001019190620005da565b60405160208183030381529060405280519060200120141580156200017f57506040516020016200013d90602080825260009082015260400190565b6040516020818303038152906040528051906020012083604051602001620001669190620005da565b6040516020818303038152906040528051906020012014155b620001cd5760405162461bcd60e51b815260206004820152601f60248201527f696e76616c696420617267756d656e74202d20656d70747920737472696e67006044820152606401620000b3565b60128260ff161115620002235760405162461bcd60e51b815260206004820152601960248201527f646563696d616c73206265747765656e203020616e64203138000000000000006044820152606401620000b3565b6200023b8760008051602062000ce583398151915255565b6040516001600160a01b038816907f3b1074392ed8e8424715d0dda2197eede67080b377fc8370e26f3e882207f6b890600090a260006200028960008051602062000ce58339815191525490565b6001600160a01b031663709bc7f36040518163ffffffff1660e01b8152600401602060405180830381865afa158015620002c7573d6000803e3d6000fd5b505050506040513d601f19601f82011682018060405250810190620002ed9190620005f6565b90506000816001600160a01b0316888888888888604051602401620003189695949392919062000614565b60408051601f198184030181529181526020820180516001600160e01b0316633e46d86760e21b179052516200034f919062000673565b600060405180830381855af49150503d80600081146200038c576040519150601f19603f3d011682016040523d82523d6000602084013e62000391565b606091505b5050905080620003e45760405162461bcd60e51b815260206004820152601660248201527f496e697469616c697a6174696f6e206661696c65642e000000000000000000006044820152606401620000b3565b50505050505050505062000691565b80516001600160a01b03811681146200040b57600080fd5b919050565b634e487b7160e01b600052604160045260246000fd5b60005b838110156200044357818101518382015260200162000429565b50506000910152565b600082601f8301126200045e57600080fd5b81516001600160401b03808211156200047b576200047b62000410565b604051601f8301601f19908116603f01168101908282118183101715620004a657620004a662000410565b81604052838152866020858801011115620004c057600080fd5b620004d384602083016020890162000426565b9695505050505050565b600080600080600080600060e0888a031215620004f957600080fd5b6200050488620003f3565b96506200051460208901620003f3565b95506200052460408901620003f3565b60608901519095506001600160401b03808211156200054257600080fd5b620005508b838c016200044c565b955060808a01519150808211156200056757600080fd5b50620005768a828b016200044c565b93505060a088015160ff811681146200058e57600080fd5b91506200059e60c08901620003f3565b905092959891949750929550565b60008151808452620005c681602086016020860162000426565b601f01601f19169290920160200192915050565b602081526000620005ef6020830184620005ac565b9392505050565b6000602082840312156200060957600080fd5b620005ef82620003f3565b600060018060a01b038089168352808816602084015260c060408401526200064060c0840188620005ac565b8381036060850152620006548188620005ac565b60ff969096166080850152509290921660a09091015250949350505050565b600082516200068781846020870162000426565b9190910192915050565b61064480620006a16000396000f3fe6080604052600436106100295760003560e01c80632d5f1187146100cf57806392dd9d6514610108575b60006100416000805160206105ef8339815191525490565b6001600160a01b031663709bc7f36040518163ffffffff1660e01b8152600401602060405180830381865afa15801561007e573d6000803e3d6000fd5b505050506040513d601f19601f820116820180604052508101906100a291906105ad565b90503660008037600080366000846127105a03f43d806000803e8180156100c857816000f35b816000fd5b005b3480156100db57600080fd5b506000805160206105ef833981519152546040516001600160a01b03909116815260200160405180910390f35b34801561011457600080fd5b506100cd6101233660046105d1565b6000805160206105ef833981519152546001600160a01b0316336001600160a01b0316146101ae5760405162461bcd60e51b815260206004820152602d60248201527f6f6e6c792063757272656e7420696d706c656d656e746174696f6e417574686f60448201526c1c9a5d1e4818d85b8818d85b1b609a1b60648201526084015b60405180910390fd5b6001600160a01b0381166102045760405162461bcd60e51b815260206004820152601f60248201527f696e76616c696420617267756d656e74202d207a65726f20616464726573730060448201526064016101a5565b60006001600160a01b0316816001600160a01b031663709bc7f36040518163ffffffff1660e01b8152600401602060405180830381865afa15801561024d573d6000803e3d6000fd5b505050506040513d601f19601f8201168201806040525081019061027191906105ad565b6001600160a01b0316141580156102fc575060006001600160a01b0316816001600160a01b0316636ff6e83f6040518163ffffffff1660e01b8152600401602060405180830381865afa1580156102cc573d6000803e3d6000fd5b505050506040513d601f19601f820116820180604052508101906102f091906105ad565b6001600160a01b031614155b801561037c575060006001600160a01b0316816001600160a01b0316631ee9ce8b6040518163ffffffff1660e01b8152600401602060405180830381865afa15801561034c573d6000803e3d6000fd5b505050506040513d601f19601f8201168201806040525081019061037091906105ad565b6001600160a01b031614155b80156103fc575060006001600160a01b0316816001600160a01b0316639e3e7bb96040518163ffffffff1660e01b8152600401602060405180830381865afa1580156103cc573d6000803e3d6000fd5b505050506040513d601f19601f820116820180604052508101906103f091906105ad565b6001600160a01b031614155b801561047c575060006001600160a01b0316816001600160a01b03166361f898256040518163ffffffff1660e01b8152600401602060405180830381865afa15801561044c573d6000803e3d6000fd5b505050506040513d601f19601f8201168201806040525081019061047091906105ad565b6001600160a01b031614155b80156104fc575060006001600160a01b0316816001600160a01b031663fedcc0526040518163ffffffff1660e01b8152600401602060405180830381865afa1580156104cc573d6000803e3d6000fd5b505050506040513d601f19601f820116820180604052508101906104f091906105ad565b6001600160a01b031614155b6105485760405162461bcd60e51b815260206004820181905260248201527f696e76616c696420496d706c656d656e746174696f6e20417574686f7269747960448201526064016101a5565b61055e816000805160206105ef83398151915255565b6040516001600160a01b038216907f3b1074392ed8e8424715d0dda2197eede67080b377fc8370e26f3e882207f6b890600090a250565b6001600160a01b03811681146105aa57600080fd5b50565b6000602082840312156105bf57600080fd5b81516105ca81610595565b9392505050565b6000602082840312156105e357600080fd5b81356105ca8161059556fe821f3e4d3d679f19eacc940c87acf846ea6eae24a63058ea750304437a62aafca2646970667358221220ad38bc63539a86868b4c79ef75f17c6c29e82cf940c57191ea47f40789734c5764736f6c63430008110033821f3e4d3d679f19eacc940c87acf846ea6eae24a63058ea750304437a62aafca264697066735822122082899fca9be560167050c9fd4d72df637052761cfdf27ba4bd534f535c7cd2f464736f6c63430008110033608060405234801561001057600080fd5b506040516108fc3803806108fc83398101604081905261002f9161022a565b6001600160a01b03811661008a5760405162461bcd60e51b815260206004820152601f60248201527f696e76616c696420617267756d656e74202d207a65726f20616464726573730060448201526064015b60405180910390fd5b6100a0816000805160206108dc83398151915255565b6040516001600160a01b038216907f3b1074392ed8e8424715d0dda2197eede67080b377fc8370e26f3e882207f6b890600090a260006100ec6000805160206108dc8339815191525490565b6001600160a01b031663fedcc0526040518163ffffffff1660e01b8152600401602060405180830381865afa158015610129573d6000803e3d6000fd5b505050506040513d601f19601f8201168201806040525081019061014d919061022a565b60408051600481526024810182526020810180516001600160e01b03166370e39c9560e11b17905290519192506000916001600160a01b038416916101919161025a565b600060405180830381855af49150503d80600081146101cc576040519150601f19603f3d011682016040523d82523d6000602084013e6101d1565b606091505b50509050806102225760405162461bcd60e51b815260206004820152601660248201527f496e697469616c697a6174696f6e206661696c65642e000000000000000000006044820152606401610081565b505050610289565b60006020828403121561023c57600080fd5b81516001600160a01b038116811461025357600080fd5b9392505050565b6000825160005b8181101561027b5760208186018101518583015201610261565b506000920191825250919050565b610644806102986000396000f3fe6080604052600436106100295760003560e01c80632d5f1187146100cf57806392dd9d6514610108575b60006100416000805160206105ef8339815191525490565b6001600160a01b031663fedcc0526040518163ffffffff1660e01b8152600401602060405180830381865afa15801561007e573d6000803e3d6000fd5b505050506040513d601f19601f820116820180604052508101906100a291906105ad565b90503660008037600080366000846127105a03f43d806000803e8180156100c857816000f35b816000fd5b005b3480156100db57600080fd5b506000805160206105ef833981519152546040516001600160a01b03909116815260200160405180910390f35b34801561011457600080fd5b506100cd6101233660046105d1565b6000805160206105ef833981519152546001600160a01b0316336001600160a01b0316146101ae5760405162461bcd60e51b815260206004820152602d60248201527f6f6e6c792063757272656e7420696d706c656d656e746174696f6e417574686f60448201526c1c9a5d1e4818d85b8818d85b1b609a1b60648201526084015b60405180910390fd5b6001600160a01b0381166102045760405162461bcd60e51b815260206004820152601f60248201527f696e76616c696420617267756d656e74202d207a65726f20616464726573730060448201526064016101a5565b60006001600160a01b0316816001600160a01b031663709bc7f36040518163ffffffff1660e01b8152600401602060405180830381865afa15801561024d573d6000803e3d6000fd5b505050506040513d601f19601f8201168201806040525081019061027191906105ad565b6001600160a01b0316141580156102fc575060006001600160a01b0316816001600160a01b0316636ff6e83f6040518163ffffffff1660e01b8152600401602060405180830381865afa1580156102cc573d6000803e3d6000fd5b505050506040513d601f19601f820116820180604052508101906102f091906105ad565b6001600160a01b031614155b801561037c575060006001600160a01b0316816001600160a01b0316631ee9ce8b6040518163ffffffff1660e01b8152600401602060405180830381865afa15801561034c573d6000803e3d6000fd5b505050506040513d601f19601f8201168201806040525081019061037091906105ad565b6001600160a01b031614155b80156103fc575060006001600160a01b0316816001600160a01b0316639e3e7bb96040518163ffffffff1660e01b8152600401602060405180830381865afa1580156103cc573d6000803e3d6000fd5b505050506040513d601f19601f820116820180604052508101906103f091906105ad565b6001600160a01b031614155b801561047c575060006001600160a01b0316816001600160a01b03166361f898256040518163ffffffff1660e01b8152600401602060405180830381865afa15801561044c573d6000803e3d6000fd5b505050506040513d601f19601f8201168201806040525081019061047091906105ad565b6001600160a01b031614155b80156104fc575060006001600160a01b0316816001600160a01b031663fedcc0526040518163ffffffff1660e01b8152600401602060405180830381865afa1580156104cc573d6000803e3d6000fd5b505050506040513d601f19601f820116820180604052508101906104f091906105ad565b6001600160a01b031614155b6105485760405162461bcd60e51b815260206004820181905260248201527f696e76616c696420496d706c656d656e746174696f6e20417574686f7269747960448201526064016101a5565b61055e816000805160206105ef83398151915255565b6040516001600160a01b038216907f3b1074392ed8e8424715d0dda2197eede67080b377fc8370e26f3e882207f6b890600090a250565b6001600160a01b03811681146105aa57600080fd5b50565b6000602082840312156105bf57600080fd5b81516105ca81610595565b9392505050565b6000602082840312156105e357600080fd5b81356105ca8161059556fe821f3e4d3d679f19eacc940c87acf846ea6eae24a63058ea750304437a62aafca26469706673582212204cdd5f0bfb60f8c688a8f9cf996e57558fc8be1c607b61d10e7ed136568b5c7164736f6c63430008110033821f3e4d3d679f19eacc940c87acf846ea6eae24a63058ea750304437a62aafc608060405234801561001057600080fd5b506040516108fc3803806108fc83398101604081905261002f9161022a565b6001600160a01b03811661008a5760405162461bcd60e51b815260206004820152601f60248201527f696e76616c696420617267756d656e74202d207a65726f20616464726573730060448201526064015b60405180910390fd5b6100a0816000805160206108dc83398151915255565b6040516001600160a01b038216907f3b1074392ed8e8424715d0dda2197eede67080b377fc8370e26f3e882207f6b890600090a260006100ec6000805160206108dc8339815191525490565b6001600160a01b0316636ff6e83f6040518163ffffffff1660e01b8152600401602060405180830381865afa158015610129573d6000803e3d6000fd5b505050506040513d601f19601f8201168201806040525081019061014d919061022a565b60408051600481526024810182526020810180516001600160e01b03166370e39c9560e11b17905290519192506000916001600160a01b038416916101919161025a565b600060405180830381855af49150503d80600081146101cc576040519150601f19603f3d011682016040523d82523d6000602084013e6101d1565b606091505b50509050806102225760405162461bcd60e51b815260206004820152601660248201527f496e697469616c697a6174696f6e206661696c65642e000000000000000000006044820152606401610081565b505050610289565b60006020828403121561023c57600080fd5b81516001600160a01b038116811461025357600080fd5b9392505050565b6000825160005b8181101561027b5760208186018101518583015201610261565b506000920191825250919050565b610644806102986000396000f3fe6080604052600436106100295760003560e01c80632d5f1187146100cf57806392dd9d6514610108575b60006100416000805160206105ef8339815191525490565b6001600160a01b0316636ff6e83f6040518163ffffffff1660e01b8152600401602060405180830381865afa15801561007e573d6000803e3d6000fd5b505050506040513d601f19601f820116820180604052508101906100a291906105ad565b90503660008037600080366000846127105a03f43d806000803e8180156100c857816000f35b816000fd5b005b3480156100db57600080fd5b506000805160206105ef833981519152546040516001600160a01b03909116815260200160405180910390f35b34801561011457600080fd5b506100cd6101233660046105d1565b6000805160206105ef833981519152546001600160a01b0316336001600160a01b0316146101ae5760405162461bcd60e51b815260206004820152602d60248201527f6f6e6c792063757272656e7420696d706c656d656e746174696f6e417574686f60448201526c1c9a5d1e4818d85b8818d85b1b609a1b60648201526084015b60405180910390fd5b6001600160a01b0381166102045760405162461bcd60e51b815260206004820152601f60248201527f696e76616c696420617267756d656e74202d207a65726f20616464726573730060448201526064016101a5565b60006001600160a01b0316816001600160a01b031663709bc7f36040518163ffffffff1660e01b8152600401602060405180830381865afa15801561024d573d6000803e3d6000fd5b505050506040513d601f19601f8201168201806040525081019061027191906105ad565b6001600160a01b0316141580156102fc575060006001600160a01b0316816001600160a01b0316636ff6e83f6040518163ffffffff1660e01b8152600401602060405180830381865afa1580156102cc573d6000803e3d6000fd5b505050506040513d601f19601f820116820180604052508101906102f091906105ad565b6001600160a01b031614155b801561037c575060006001600160a01b0316816001600160a01b0316631ee9ce8b6040518163ffffffff1660e01b8152600401602060405180830381865afa15801561034c573d6000803e3d6000fd5b505050506040513d601f19601f8201168201806040525081019061037091906105ad565b6001600160a01b031614155b80156103fc575060006001600160a01b0316816001600160a01b0316639e3e7bb96040518163ffffffff1660e01b8152600401602060405180830381865afa1580156103cc573d6000803e3d6000fd5b505050506040513d601f19601f820116820180604052508101906103f091906105ad565b6001600160a01b031614155b801561047c575060006001600160a01b0316816001600160a01b03166361f898256040518163ffffffff1660e01b8152600401602060405180830381865afa15801561044c573d6000803e3d6000fd5b505050506040513d601f19601f8201168201806040525081019061047091906105ad565b6001600160a01b031614155b80156104fc575060006001600160a01b0316816001600160a01b031663fedcc0526040518163ffffffff1660e01b8152600401602060405180830381865afa1580156104cc573d6000803e3d6000fd5b505050506040513d601f19601f820116820180604052508101906104f091906105ad565b6001600160a01b031614155b6105485760405162461bcd60e51b815260206004820181905260248201527f696e76616c696420496d706c656d656e746174696f6e20417574686f7269747960448201526064016101a5565b61055e816000805160206105ef83398151915255565b6040516001600160a01b038216907f3b1074392ed8e8424715d0dda2197eede67080b377fc8370e26f3e882207f6b890600090a250565b6001600160a01b03811681146105aa57600080fd5b50565b6000602082840312156105bf57600080fd5b81516105ca81610595565b9392505050565b6000602082840312156105e357600080fd5b81356105ca8161059556fe821f3e4d3d679f19eacc940c87acf846ea6eae24a63058ea750304437a62aafca2646970667358221220dbb2c78810ff75efeadb2e2b46755c68e2d4edd1e6da8627a7d6c95ba81b4fb564736f6c63430008110033821f3e4d3d679f19eacc940c87acf846ea6eae24a63058ea750304437a62aafc608060405234801561001057600080fd5b506040516108fc3803806108fc83398101604081905261002f9161022a565b6001600160a01b03811661008a5760405162461bcd60e51b815260206004820152601f60248201527f696e76616c696420617267756d656e74202d207a65726f20616464726573730060448201526064015b60405180910390fd5b6100a0816000805160206108dc83398151915255565b6040516001600160a01b038216907f3b1074392ed8e8424715d0dda2197eede67080b377fc8370e26f3e882207f6b890600090a260006100ec6000805160206108dc8339815191525490565b6001600160a01b03166361f898256040518163ffffffff1660e01b8152600401602060405180830381865afa158015610129573d6000803e3d6000fd5b505050506040513d601f19601f8201168201806040525081019061014d919061022a565b60408051600481526024810182526020810180516001600160e01b03166370e39c9560e11b17905290519192506000916001600160a01b038416916101919161025a565b600060405180830381855af49150503d80600081146101cc576040519150601f19603f3d011682016040523d82523d6000602084013e6101d1565b606091505b50509050806102225760405162461bcd60e51b815260206004820152601660248201527f496e697469616c697a6174696f6e206661696c65642e000000000000000000006044820152606401610081565b505050610289565b60006020828403121561023c57600080fd5b81516001600160a01b038116811461025357600080fd5b9392505050565b6000825160005b8181101561027b5760208186018101518583015201610261565b506000920191825250919050565b610644806102986000396000f3fe6080604052600436106100295760003560e01c80632d5f1187146100cf57806392dd9d6514610108575b60006100416000805160206105ef8339815191525490565b6001600160a01b03166361f898256040518163ffffffff1660e01b8152600401602060405180830381865afa15801561007e573d6000803e3d6000fd5b505050506040513d601f19601f820116820180604052508101906100a291906105ad565b90503660008037600080366000846127105a03f43d806000803e8180156100c857816000f35b816000fd5b005b3480156100db57600080fd5b506000805160206105ef833981519152546040516001600160a01b03909116815260200160405180910390f35b34801561011457600080fd5b506100cd6101233660046105d1565b6000805160206105ef833981519152546001600160a01b0316336001600160a01b0316146101ae5760405162461bcd60e51b815260206004820152602d60248201527f6f6e6c792063757272656e7420696d706c656d656e746174696f6e417574686f60448201526c1c9a5d1e4818d85b8818d85b1b609a1b60648201526084015b60405180910390fd5b6001600160a01b0381166102045760405162461bcd60e51b815260206004820152601f60248201527f696e76616c696420617267756d656e74202d207a65726f20616464726573730060448201526064016101a5565b60006001600160a01b0316816001600160a01b031663709bc7f36040518163ffffffff1660e01b8152600401602060405180830381865afa15801561024d573d6000803e3d6000fd5b505050506040513d601f19601f8201168201806040525081019061027191906105ad565b6001600160a01b0316141580156102fc575060006001600160a01b0316816001600160a01b0316636ff6e83f6040518163ffffffff1660e01b8152600401602060405180830381865afa1580156102cc573d6000803e3d6000fd5b505050506040513d601f19601f820116820180604052508101906102f091906105ad565b6001600160a01b031614155b801561037c575060006001600160a01b0316816001600160a01b0316631ee9ce8b6040518163ffffffff1660e01b8152600401602060405180830381865afa15801561034c573d6000803e3d6000fd5b505050506040513d601f19601f8201168201806040525081019061037091906105ad565b6001600160a01b031614155b80156103fc575060006001600160a01b0316816001600160a01b0316639e3e7bb96040518163ffffffff1660e01b8152600401602060405180830381865afa1580156103cc573d6000803e3d6000fd5b505050506040513d601f19601f820116820180604052508101906103f091906105ad565b6001600160a01b031614155b801561047c575060006001600160a01b0316816001600160a01b03166361f898256040518163ffffffff1660e01b8152600401602060405180830381865afa15801561044c573d6000803e3d6000fd5b505050506040513d601f19601f8201168201806040525081019061047091906105ad565b6001600160a01b031614155b80156104fc575060006001600160a01b0316816001600160a01b031663fedcc0526040518163ffffffff1660e01b8152600401602060405180830381865afa1580156104cc573d6000803e3d6000fd5b505050506040513d601f19601f820116820180604052508101906104f091906105ad565b6001600160a01b031614155b6105485760405162461bcd60e51b815260206004820181905260248201527f696e76616c696420496d706c656d656e746174696f6e20417574686f7269747960448201526064016101a5565b61055e816000805160206105ef83398151915255565b6040516001600160a01b038216907f3b1074392ed8e8424715d0dda2197eede67080b377fc8370e26f3e882207f6b890600090a250565b6001600160a01b03811681146105aa57600080fd5b50565b6000602082840312156105bf57600080fd5b81516105ca81610595565b9392505050565b6000602082840312156105e357600080fd5b81356105ca8161059556fe821f3e4d3d679f19eacc940c87acf846ea6eae24a63058ea750304437a62aafca2646970667358221220093376a252ca2b1ee418691d7130544ea3de9ca5ddaa4eff7f23ea7f37d3406264736f6c63430008110033821f3e4d3d679f19eacc940c87acf846ea6eae24a63058ea750304437a62aafc608060405234801561001057600080fd5b506040516108fc3803806108fc83398101604081905261002f9161022a565b6001600160a01b03811661008a5760405162461bcd60e51b815260206004820152601f60248201527f696e76616c696420617267756d656e74202d207a65726f20616464726573730060448201526064015b60405180910390fd5b6100a0816000805160206108dc83398151915255565b6040516001600160a01b038216907f3b1074392ed8e8424715d0dda2197eede67080b377fc8370e26f3e882207f6b890600090a260006100ec6000805160206108dc8339815191525490565b6001600160a01b0316639e3e7bb96040518163ffffffff1660e01b8152600401602060405180830381865afa158015610129573d6000803e3d6000fd5b505050506040513d601f19601f8201168201806040525081019061014d919061022a565b60408051600481526024810182526020810180516001600160e01b03166370e39c9560e11b17905290519192506000916001600160a01b038416916101919161025a565b600060405180830381855af49150503d80600081146101cc576040519150601f19603f3d011682016040523d82523d6000602084013e6101d1565b606091505b50509050806102225760405162461bcd60e51b815260206004820152601660248201527f496e697469616c697a6174696f6e206661696c65642e000000000000000000006044820152606401610081565b505050610289565b60006020828403121561023c57600080fd5b81516001600160a01b038116811461025357600080fd5b9392505050565b6000825160005b8181101561027b5760208186018101518583015201610261565b506000920191825250919050565b610644806102986000396000f3fe6080604052600436106100295760003560e01c80632d5f1187146100cf57806392dd9d6514610108575b60006100416000805160206105ef8339815191525490565b6001600160a01b0316639e3e7bb96040518163ffffffff1660e01b8152600401602060405180830381865afa15801561007e573d6000803e3d6000fd5b505050506040513d601f19601f820116820180604052508101906100a291906105ad565b90503660008037600080366000846127105a03f43d806000803e8180156100c857816000f35b816000fd5b005b3480156100db57600080fd5b506000805160206105ef833981519152546040516001600160a01b03909116815260200160405180910390f35b34801561011457600080fd5b506100cd6101233660046105d1565b6000805160206105ef833981519152546001600160a01b0316336001600160a01b0316146101ae5760405162461bcd60e51b815260206004820152602d60248201527f6f6e6c792063757272656e7420696d706c656d656e746174696f6e417574686f60448201526c1c9a5d1e4818d85b8818d85b1b609a1b60648201526084015b60405180910390fd5b6001600160a01b0381166102045760405162461bcd60e51b815260206004820152601f60248201527f696e76616c696420617267756d656e74202d207a65726f20616464726573730060448201526064016101a5565b60006001600160a01b0316816001600160a01b031663709bc7f36040518163ffffffff1660e01b8152600401602060405180830381865afa15801561024d573d6000803e3d6000fd5b505050506040513d601f19601f8201168201806040525081019061027191906105ad565b6001600160a01b0316141580156102fc575060006001600160a01b0316816001600160a01b0316636ff6e83f6040518163ffffffff1660e01b8152600401602060405180830381865afa1580156102cc573d6000803e3d6000fd5b505050506040513d601f19601f820116820180604052508101906102f091906105ad565b6001600160a01b031614155b801561037c575060006001600160a01b0316816001600160a01b0316631ee9ce8b6040518163ffffffff1660e01b8152600401602060405180830381865afa15801561034c573d6000803e3d6000fd5b505050506040513d601f19601f8201168201806040525081019061037091906105ad565b6001600160a01b031614155b80156103fc575060006001600160a01b0316816001600160a01b0316639e3e7bb96040518163ffffffff1660e01b8152600401602060405180830381865afa1580156103cc573d6000803e3d6000fd5b505050506040513d601f19601f820116820180604052508101906103f091906105ad565b6001600160a01b031614155b801561047c575060006001600160a01b0316816001600160a01b03166361f898256040518163ffffffff1660e01b8152600401602060405180830381865afa15801561044c573d6000803e3d6000fd5b505050506040513d601f19601f8201168201806040525081019061047091906105ad565b6001600160a01b031614155b80156104fc575060006001600160a01b0316816001600160a01b031663fedcc0526040518163ffffffff1660e01b8152600401602060405180830381865afa1580156104cc573d6000803e3d6000fd5b505050506040513d601f19601f820116820180604052508101906104f091906105ad565b6001600160a01b031614155b6105485760405162461bcd60e51b815260206004820181905260248201527f696e76616c696420496d706c656d656e746174696f6e20417574686f7269747960448201526064016101a5565b61055e816000805160206105ef83398151915255565b6040516001600160a01b038216907f3b1074392ed8e8424715d0dda2197eede67080b377fc8370e26f3e882207f6b890600090a250565b6001600160a01b03811681146105aa57600080fd5b50565b6000602082840312156105bf57600080fd5b81516105ca81610595565b9392505050565b6000602082840312156105e357600080fd5b81356105ca8161059556fe821f3e4d3d679f19eacc940c87acf846ea6eae24a63058ea750304437a62aafca264697066735822122055138ab2b51920d6c46fda3782cbb999e9868a5263e8d915c832047115bf197364736f6c63430008110033821f3e4d3d679f19eacc940c87acf846ea6eae24a63058ea750304437a62aafc608060405234801561001057600080fd5b506040516109bf3803806109bf83398101604081905261002f916102a7565b6001600160a01b0384161580159061004f57506001600160a01b03831615155b801561006357506001600160a01b03821615155b801561007757506001600160a01b03811615155b6100c85760405162461bcd60e51b815260206004820152601f60248201527f696e76616c696420617267756d656e74202d207a65726f20616464726573730060448201526064015b60405180910390fd5b6100de8460008051602061099f83398151915255565b6040516001600160a01b038516907f3b1074392ed8e8424715d0dda2197eede67080b377fc8370e26f3e882207f6b890600090a2600061012a60008051602061099f8339815191525490565b6001600160a01b0316631ee9ce8b6040518163ffffffff1660e01b8152600401602060405180830381865afa158015610167573d6000803e3d6000fd5b505050506040513d601f19601f8201168201806040525081019061018b91906102fb565b6040516001600160a01b0386811660248301528581166044830152848116606483015291925060009183169060840160408051601f198184030181529181526020820180516001600160e01b031663184b955960e01b179052516101ef919061031d565b600060405180830381855af49150503d806000811461022a576040519150601f19603f3d011682016040523d82523d6000602084013e61022f565b606091505b50509050806102805760405162461bcd60e51b815260206004820152601660248201527f496e697469616c697a6174696f6e206661696c65642e0000000000000000000060448201526064016100bf565b50505050505061034c565b80516001600160a01b03811681146102a257600080fd5b919050565b600080600080608085870312156102bd57600080fd5b6102c68561028b565b93506102d46020860161028b565b92506102e26040860161028b565b91506102f06060860161028b565b905092959194509250565b60006020828403121561030d57600080fd5b6103168261028b565b9392505050565b6000825160005b8181101561033e5760208186018101518583015201610324565b506000920191825250919050565b6106448061035b6000396000f3fe6080604052600436106100295760003560e01c80632d5f1187146100cf57806392dd9d6514610108575b60006100416000805160206105ef8339815191525490565b6001600160a01b0316631ee9ce8b6040518163ffffffff1660e01b8152600401602060405180830381865afa15801561007e573d6000803e3d6000fd5b505050506040513d601f19601f820116820180604052508101906100a291906105ad565b90503660008037600080366000846127105a03f43d806000803e8180156100c857816000f35b816000fd5b005b3480156100db57600080fd5b506000805160206105ef833981519152546040516001600160a01b03909116815260200160405180910390f35b34801561011457600080fd5b506100cd6101233660046105d1565b6000805160206105ef833981519152546001600160a01b0316336001600160a01b0316146101ae5760405162461bcd60e51b815260206004820152602d60248201527f6f6e6c792063757272656e7420696d706c656d656e746174696f6e417574686f60448201526c1c9a5d1e4818d85b8818d85b1b609a1b60648201526084015b60405180910390fd5b6001600160a01b0381166102045760405162461bcd60e51b815260206004820152601f60248201527f696e76616c696420617267756d656e74202d207a65726f20616464726573730060448201526064016101a5565b60006001600160a01b0316816001600160a01b031663709bc7f36040518163ffffffff1660e01b8152600401602060405180830381865afa15801561024d573d6000803e3d6000fd5b505050506040513d601f19601f8201168201806040525081019061027191906105ad565b6001600160a01b0316141580156102fc575060006001600160a01b0316816001600160a01b0316636ff6e83f6040518163ffffffff1660e01b8152600401602060405180830381865afa1580156102cc573d6000803e3d6000fd5b505050506040513d601f19601f820116820180604052508101906102f091906105ad565b6001600160a01b031614155b801561037c575060006001600160a01b0316816001600160a01b0316631ee9ce8b6040518163ffffffff1660e01b8152600401602060405180830381865afa15801561034c573d6000803e3d6000fd5b505050506040513d601f19601f8201168201806040525081019061037091906105ad565b6001600160a01b031614155b80156103fc575060006001600160a01b0316816001600160a01b0316639e3e7bb96040518163ffffffff1660e01b8152600401602060405180830381865afa1580156103cc573d6000803e3d6000fd5b505050506040513d601f19601f820116820180604052508101906103f091906105ad565b6001600160a01b031614155b801561047c575060006001600160a01b0316816001600160a01b03166361f898256040518163ffffffff1660e01b8152600401602060405180830381865afa15801561044c573d6000803e3d6000fd5b505050506040513d601f19601f8201168201806040525081019061047091906105ad565b6001600160a01b031614155b80156104fc575060006001600160a01b0316816001600160a01b031663fedcc0526040518163ffffffff1660e01b8152600401602060405180830381865afa1580156104cc573d6000803e3d6000fd5b505050506040513d601f19601f820116820180604052508101906104f091906105ad565b6001600160a01b031614155b6105485760405162461bcd60e51b815260206004820181905260248201527f696e76616c696420496d706c656d656e746174696f6e20417574686f7269747960448201526064016101a5565b61055e816000805160206105ef83398151915255565b6040516001600160a01b038216907f3b1074392ed8e8424715d0dda2197eede67080b377fc8370e26f3e882207f6b890600090a250565b6001600160a01b03811681146105aa57600080fd5b50565b6000602082840312156105bf57600080fd5b81516105ca81610595565b9392505050565b6000602082840312156105e357600080fd5b81356105ca8161059556fe821f3e4d3d679f19eacc940c87acf846ea6eae24a63058ea750304437a62aafca2646970667358221220e213bb27bc5aa933869a50f8f9af5622e7667bc48ef6f03b5c34fd2fef95195a64736f6c63430008110033821f3e4d3d679f19eacc940c87acf846ea6eae24a63058ea750304437a62aafc696e76616c696420617267756d656e74202d207a65726f206164647265737300",
  "linkReferences": {},
  "deployedLinkReferences": {}
}