{
  "_format": "hh-sol-artifact-1",
  "contractName": "IdentityRegistryStorage",
  "sourceName": "contracts/TREX/registry/implementation/IdentityRegistryStorage.sol",
  "abi": [
    {
      "anonymous": false,
      "inputs": [
        {
          "indexed": true,
          "internalType": "address",
          "name": "_agent",
          "type": "address"
        }
      ],
      "name": "AgentAdded",
      "type": "event"
    },
    {
      "anonymous": false,
      "inputs": [
        {
          "indexed": true,
          "internalType": "address",
          "name": "_agent",
          "type": "address"
        }
      ],
      "name": "AgentRemoved",
      "type": "event"
    },
    {
      "anonymous": false,
      "inputs": [
        {
          "indexed": true,
          "internalType": "contract IIdentity",
          "name": "oldIdentity",
          "type": "address"
        },
        {
          "indexed": true,
          "internalType": "contract IIdentity",
          "name": "newIdentity",
          "type": "address"
        }
      ],
      "name": "IdentityModified",
      "type": "event"
    },
    {
      "anonymous": false,
      "inputs": [
        {
          "indexed": true,
          "internalType": "address",
          "name": "identityRegistry",
          "type": "address"
        }
      ],
      "name": "IdentityRegistryBound",
      "type": "event"
    },
    {
      "anonymous": false,
      "inputs": [
        {
          "indexed": true,
          "internalType": "address",
          "name": "identityRegistry",
          "type": "address"
        }
      ],
      "name": "IdentityRegistryUnbound",
      "type": "event"
    },
    {
      "anonymous": false,
      "inputs": [
        {
          "indexed": true,
          "internalType": "address",
          "name": "investorAddress",
          "type": "address"
        },
        {
          "indexed": true,
          "internalType": "contract IIdentity",
          "name": "identity",
          "type": "address"
        }
      ],
      "name": "IdentityStored",
      "type": "event"
    },
    {
      "anonymous": false,
      "inputs": [
        {
          "indexed": true,
          "internalType": "address",
          "name": "investorAddress",
          "type": "address"
        },
        {
          "indexed": true,
          "internalType": "contract IIdentity",
          "name": "identity",
          "type": "address"
        }
      ],
      "name": "IdentityUnstored",
      "type": "event"
    },
    {
      "anonymous": false,
      "inputs": [
        {
          "indexed": false,
          "internalType": "uint8",
          "name": "version",
          "type": "uint8"
        }
      ],
      "name": "Initialized",
      "type": "event"
    },
    {
      "anonymous": false,
      "inputs": [
        {
          "indexed": true,
          "internalType": "address",
          "name": "previousOwner",
          "type": "address"
        },
        {
          "indexed": true,
          "internalType": "address",
          "name": "newOwner",
          "type": "address"
        }
      ],
      "name": "OwnershipTransferred",
      "type": "event"
    },
    {
      "inputs": [
        {
          "internalType": "address",
          "name": "_agent",
          "type": "address"
        }
      ],
      "name": "addAgent",
      "outputs": [],
      "stateMutability": "nonpayable",
      "type": "function"
    },
    {
      "inputs": [
        {
          "internalType": "address",
          "name": "_userAddress",
          "type": "address"
        },
        {
          "internalType": "contract IIdentity",
          "name": "_identity",
          "type": "address"
        }
      ],
      "name": "addIdentityToStorage",
      "outputs": [],
      "stateMutability": "nonpayable",
      "type": "function"
    },
    {
      "inputs": [
        {
          "internalType": "address",
          "name": "_identityRegistry",
          "type": "address"
        }
      ],
      "name": "bindIdentityRegistry",
      "outputs": [],
      "stateMutability": "nonpayable",
      "type": "function"
    },
    {
      "inputs": [],
      "name": "init",
      "outputs": [],
      "stateMutability": "nonpayable",
      "type": "function"
    },
    {
      "inputs": [
        {
          "internalType": "address",
          "name": "_agent",
          "type": "address"
        }
      ],
      "name": "isAgent",
      "outputs": [
        {
          "internalType": "bool",
          "name": "",
          "type": "bool"
        }
      ],
      "stateMutability": "view",
      "type": "function"
    },
    {
      "inputs": [],
      "name": "linkedIdentityRegistries",
      "outputs": [
        {
          "internalType": "address[]",
          "name": "",
          "type": "address[]"
        }
      ],
      "stateMutability": "view",
      "type": "function"
    },
    {
      "inputs": [
        {
          "internalType": "address",
          "name": "_userAddress",
          "type": "address"
        },
        {
          "internalType": "contract IIdentity",
          "name": "_identity",
          "type": "address"
        }
      ],
      "name": "modifyStoredIdentity",
      "outputs": [],
      "stateMutability": "nonpayable",
      "type": "function"
    },
    {
      "inputs": [],
      "name": "owner",
      "outputs": [
        {
          "internalType": "address",
          "name": "",
          "type": "address"
        }
      ],
      "stateMutability": "view",
      "type": "function"
    },
    {
      "inputs": [
        {
          "internalType": "address",
          "name": "_agent",
          "type": "address"
        }
      ],
      "name": "removeAgent",
      "outputs": [],
      "stateMutability": "nonpayable",
      "type": "function"
    },
    {
      "inputs": [
        {
          "internalType": "address",
          "name": "_userAddress",
          "type": "address"
        }
      ],
      "name": "removeIdentityFromStorage",
      "outputs": [],
      "stateMutability": "nonpayable",
      "type": "function"
    },
    {
      "inputs": [],
      "name": "renounceOwnership",
      "outputs": [],
      "stateMutability": "nonpayable",
      "type": "function"
    },
    {
      "inputs": [
        {
          "internalType": "address",
          "name": "_userAddress",
          "type": "address"
        }
      ],
      "name": "storedIdentity",
      "outputs": [
        {
          "internalType": "contract IIdentity",
          "name": "",
          "type": "address"
        }
      ],
      "stateMutability": "view",
      "type": "function"
    },
    {
      "inputs": [
        {
          "internalType": "address",
          "name": "newOwner",
          "type": "address"
        }
      ],
      "name": "transferOwnership",
      "outputs": [],
      "stateMutability": "nonpayable",
      "type": "function"
    },
    {
      "inputs": [
        {
          "internalType": "address",
          "name": "_identityRegistry",
          "type": "address"
        }
      ],
      "name": "unbindIdentityRegistry",
      "outputs": [],
      "stateMutability": "nonpayable",
      "type": "function"
    }
  ],
  "bytecode": "0x608060405234801561001057600080fd5b50610fe2806100206000396000f3fe608060405234801561001057600080fd5b50600436106100ea5760003560e01c806397a6278e1161008c578063e1c7392a11610066578063e1c7392a146101ea578063e805cf86146101f2578063f18eadf814610205578063f2fde38b1461021857600080fd5b806397a6278e146101af578063bf9eb959146101c2578063cf191bcd146101d757600080fd5b80637988d3a5116100c85780637988d3a51461013457806384e79842146101785780638da5cb5b1461018b57806397a012f71461019c57600080fd5b80631ffbb064146100ef578063690a49f914610117578063715018a61461012c575b600080fd5b6101026100fd366004610dc4565b61022b565b60405190151581526020015b60405180910390f35b61012a610125366004610dc4565b61023e565b005b61012a61034f565b610160610142366004610dc4565b6001600160a01b039081166000908152606660205260409020541690565b6040516001600160a01b03909116815260200161010e565b61012a610186366004610dc4565b610363565b6033546001600160a01b0316610160565b61012a6101aa366004610dc4565b6103d3565b61012a6101bd366004610dc4565b610590565b6101ca610600565b60405161010e9190610de8565b61012a6101e5366004610dc4565b610662565b61012a610766565b61012a610200366004610e35565b610877565b61012a610213366004610e35565b61099a565b61012a610226366004610dc4565b610ab2565b6000610238606583610b28565b92915050565b6001600160a01b03811661026d5760405162461bcd60e51b815260040161026490610e6e565b60405180910390fd5b60675461012c116102ce5760405162461bcd60e51b815260206004820152602560248201527f63616e6e6f742062696e64206d6f7265207468616e2033303020495220746f20604482015264312049525360d81b6064820152608401610264565b6102d781610363565b6067805460018101825560009182527f9787eeb91fe3101235e4a76063c7023ecb40f923f97916639c598592fa30d6ae0180546001600160a01b0319166001600160a01b03841690811790915560405190917f500c250171aa20e861b680f93502547b9d436eda7d4c537fc360db6e0c6eedfb91a250565b610357610bab565b6103616000610c05565b565b61036b610bab565b6001600160a01b0381166103915760405162461bcd60e51b815260040161026490610e6e565b61039c606582610c57565b6040516001600160a01b038216907ff68e73cec97f2d70aa641fb26e87a4383686e2efacb648f2165aeb02ac562ec590600090a250565b6001600160a01b0381166103f95760405162461bcd60e51b815260040161026490610e6e565b6067546104485760405162461bcd60e51b815260206004820152601f60248201527f6964656e74697479207265676973747279206973206e6f742073746f726564006044820152606401610264565b60675460005b8181101561054e57826001600160a01b03166067828154811061047357610473610ea5565b6000918252602090912001546001600160a01b03160361053c57606761049a600184610ed1565b815481106104aa576104aa610ea5565b600091825260209091200154606780546001600160a01b0390921691839081106104d6576104d6610ea5565b9060005260206000200160006101000a8154816001600160a01b0302191690836001600160a01b03160217905550606780548061051557610515610ee4565b600082815260209020810160001990810180546001600160a01b031916905501905561054e565b8061054681610efa565b91505061044e565b5061055882610590565b6040516001600160a01b038316907f51f353eb5801583fdf2706e43c045b62fdf6b1566820b349390616363ecf72c990600090a25050565b610598610bab565b6001600160a01b0381166105be5760405162461bcd60e51b815260040161026490610e6e565b6105c9606582610cd3565b6040516001600160a01b038216907fed9c8ad8d5a0a66898ea49d2956929c93ae2e8bd50281b2ed897c5d1a6737e0b90600090a250565b6060606780548060200260200160405190810160405280929190818152602001828054801561065857602002820191906000526020600020905b81546001600160a01b0316815260019091019060200180831161063a575b5050505050905090565b61066b3361022b565b6106875760405162461bcd60e51b815260040161026490610f13565b6001600160a01b0381166106ad5760405162461bcd60e51b815260040161026490610e6e565b6001600160a01b038181166000908152606660205260409020541661070d5760405162461bcd60e51b81526020600482015260166024820152751859191c995cdcc81b9bdd081cdd1bdc9959081e595d60521b6044820152606401610264565b6001600160a01b0380821660008181526066602052604080822080546001600160a01b0319811690915590519316928392917fca6a4c3370b859312246e7f086284076e557997e10d856b716c23ab67067790b91a35050565b600054610100900460ff16158080156107865750600054600160ff909116105b806107a05750303b1580156107a0575060005460ff166001145b6108035760405162461bcd60e51b815260206004820152602e60248201527f496e697469616c697a61626c653a20636f6e747261637420697320616c72656160448201526d191e481a5b9a5d1a585b1a5e995960921b6064820152608401610264565b6000805460ff191660011790558015610826576000805461ff0019166101001790555b61082e610d55565b8015610874576000805461ff0019169055604051600181527f7f26b83ff96e1f2b6a682f133852f6798a09c465da95921460cefb38474024989060200160405180910390a15b50565b6108803361022b565b61089c5760405162461bcd60e51b815260040161026490610f13565b6001600160a01b038216158015906108bc57506001600160a01b03811615155b6108d85760405162461bcd60e51b815260040161026490610e6e565b6001600160a01b03828116600090815260666020526040902054166109385760405162461bcd60e51b81526020600482015260166024820152751859191c995cdcc81b9bdd081cdd1bdc9959081e595d60521b6044820152606401610264565b6001600160a01b0380831660009081526066602052604080822080548585166001600160a01b031982168117909255915191909316929183917f556ce885dfcea52155c773f1ed2e58781c51945c13030ab8f793c61f51d1b8089190a3505050565b6109a33361022b565b6109bf5760405162461bcd60e51b815260040161026490610f13565b6001600160a01b038216158015906109df57506001600160a01b03811615155b6109fb5760405162461bcd60e51b815260040161026490610e6e565b6001600160a01b038281166000908152606660205260409020541615610a5c5760405162461bcd60e51b8152602060048201526016602482015275616464726573732073746f72656420616c726561647960501b6044820152606401610264565b6001600160a01b0382811660008181526066602052604080822080546001600160a01b0319169486169485179055517e30dea7e9c9afaa2e3c9810f2fc9b5181f1bad74ca5a8db85f746a33585e7479190a35050565b610aba610bab565b6001600160a01b038116610b1f5760405162461bcd60e51b815260206004820152602660248201527f4f776e61626c653a206e6577206f776e657220697320746865207a65726f206160448201526564647265737360d01b6064820152608401610264565b61087481610c05565b60006001600160a01b038216610b8b5760405162461bcd60e51b815260206004820152602260248201527f526f6c65733a206163636f756e7420697320746865207a65726f206164647265604482015261737360f01b6064820152608401610264565b506001600160a01b03166000908152602091909152604090205460ff1690565b6033546001600160a01b031633146103615760405162461bcd60e51b815260206004820181905260248201527f4f776e61626c653a2063616c6c6572206973206e6f7420746865206f776e65726044820152606401610264565b603380546001600160a01b038381166001600160a01b0319831681179093556040519116919082907f8be0079c531659141344cd1fd0a4f28419497f9722a3daafe3b4186f6b6457e090600090a35050565b610c618282610b28565b15610cae5760405162461bcd60e51b815260206004820152601f60248201527f526f6c65733a206163636f756e7420616c72656164792068617320726f6c65006044820152606401610264565b6001600160a01b0316600090815260209190915260409020805460ff19166001179055565b610cdd8282610b28565b610d335760405162461bcd60e51b815260206004820152602160248201527f526f6c65733a206163636f756e7420646f6573206e6f74206861766520726f6c6044820152606560f81b6064820152608401610264565b6001600160a01b0316600090815260209190915260409020805460ff19169055565b600054610100900460ff16610d7c5760405162461bcd60e51b815260040161026490610f61565b610361600054610100900460ff16610da65760405162461bcd60e51b815260040161026490610f61565b61036133610c05565b6001600160a01b038116811461087457600080fd5b600060208284031215610dd657600080fd5b8135610de181610daf565b9392505050565b6020808252825182820181905260009190848201906040850190845b81811015610e295783516001600160a01b031683529284019291840191600101610e04565b50909695505050505050565b60008060408385031215610e4857600080fd5b8235610e5381610daf565b91506020830135610e6381610daf565b809150509250929050565b6020808252601f908201527f696e76616c696420617267756d656e74202d207a65726f206164647265737300604082015260600190565b634e487b7160e01b600052603260045260246000fd5b634e487b7160e01b600052601160045260246000fd5b8181038181111561023857610238610ebb565b634e487b7160e01b600052603160045260246000fd5b600060018201610f0c57610f0c610ebb565b5060010190565b6020808252602e908201527f4167656e74526f6c653a2063616c6c657220646f6573206e6f7420686176652060408201526d746865204167656e7420726f6c6560901b606082015260800190565b6020808252602b908201527f496e697469616c697a61626c653a20636f6e7472616374206973206e6f74206960408201526a6e697469616c697a696e6760a81b60608201526080019056fea26469706673582212203446253cb718bb704bc86126f9360495d0c9277f64c90be4fd9de5c01401785064736f6c63430008110033",
  "linkReferences": {},
  "deployedLinkReferences": {}
}