{
  "_format": "hh-sol-artifact-1",
  "contractName": "FactoryStorage",
  "sourceName": "contracts/TREX/factory/storage/FactoryStorage.sol",
  "abi": [
    {
      "inputs": [
        {
          "internalType": "uint256",
          "name": "",
          "type": "uint256"
        }
      ],
      "name": "deployedTokens",
      "outputs": [
        {
          "internalType": "string",
          "name": "",
          "type": "string"
        }
      ],
      "stateMutability": "view",
      "type": "function"
    },
    {
      "inputs": [
        {
          "internalType": "string",
          "name": "",
          "type": "string"
        }
      ],
      "name": "tokenDeployed",
      "outputs": [
        {
          "internalType": "address",
          "name": "",
          "type": "address"
        }
      ],
      "stateMutability": "view",
      "type": "function"
    }
  ],
  "bytecode": "0x608060405234801561001057600080fd5b506102fa806100206000396000f3fe608060405234801561001057600080fd5b50600436106100365760003560e01c8063ec81aadb1461003b578063fb88d79c14610064575b600080fd5b61004e61004936600461015c565b6100b0565b60405161005b9190610175565b60405180910390f35b6100986100723660046101d9565b80516020818301810180516006825292820191909301209152546001600160a01b031681565b6040516001600160a01b03909116815260200161005b565b600781815481106100c057600080fd5b9060005260206000200160009150905080546100db9061028a565b80601f01602080910402602001604051908101604052809291908181526020018280546101079061028a565b80156101545780601f1061012957610100808354040283529160200191610154565b820191906000526020600020905b81548152906001019060200180831161013757829003601f168201915b505050505081565b60006020828403121561016e57600080fd5b5035919050565b600060208083528351808285015260005b818110156101a257858101830151858201604001528201610186565b506000604082860101526040601f19601f8301168501019250505092915050565b634e487b7160e01b600052604160045260246000fd5b6000602082840312156101eb57600080fd5b813567ffffffffffffffff8082111561020357600080fd5b818401915084601f83011261021757600080fd5b813581811115610229576102296101c3565b604051601f8201601f19908116603f01168101908382118183101715610251576102516101c3565b8160405282815287602084870101111561026a57600080fd5b826020860160208301376000928101602001929092525095945050505050565b600181811c9082168061029e57607f821691505b6020821081036102be57634e487b7160e01b600052602260045260246000fd5b5091905056fea26469706673582212205e868f5a30657d069cd061547e7a604952d928008c5d7fc99b5d509a311b5c1d64736f6c63430008110033",
  "linkReferences": {},
  "deployedLinkReferences": {}
}