{
  "_format": "hh-sol-artifact-1",
  "contractName": "FactoryStorage",
  "sourceName": "contracts/TREX/factory/storage/FactoryStorage.sol",
  "abi": [
    {
      "inputs": [
        {
          "internalType": "uint256",
          "name": "",
          "type": "uint256"
        }
      ],
      "name": "deployedTokens",
      "outputs": [
        {
          "internalType": "string",
          "name": "",
          "type": "string"
        }
      ],
      "stateMutability": "view",
      "type": "function"
    },
    {
      "inputs": [
        {
          "internalType": "string",
          "name": "",
          "type": "string"
        }
      ],
      "name": "tokenDeployed",
      "outputs": [
        {
          "internalType": "address",
          "name": "",
          "type": "address"
        }
      ],
      "stateMutability": "view",
      "type": "function"
    },
    {
      "inputs": [
        {
          "internalType": "address",
          "name": "",
          "type": "address"
        }
      ],
      "name": "tokens",
      "outputs": [
        {
          "internalType": "bool",
          "name": "",
          "type": "bool"
        }
      ],
      "stateMutability": "view",
      "type": "function"
    }
  ],
  "bytecode": "0x608060405234801561001057600080fd5b50610364806100206000396000f3fe608060405234801561001057600080fd5b50600436106100415760003560e01c8063e486033914610046578063ec81aadb1461007e578063fb88d79c1461009e575b600080fd5b610069610054366004610196565b60086020526000908152604090205460ff1681565b60405190151581526020015b60405180910390f35b61009161008c3660046101c6565b6100ea565b60405161007591906101df565b6100d26100ac366004610243565b80516020818301810180516007825292820191909301209152546001600160a01b031681565b6040516001600160a01b039091168152602001610075565b600981815481106100fa57600080fd5b906000526020600020016000915090508054610115906102f4565b80601f0160208091040260200160405190810160405280929190818152602001828054610141906102f4565b801561018e5780601f106101635761010080835404028352916020019161018e565b820191906000526020600020905b81548152906001019060200180831161017157829003601f168201915b505050505081565b6000602082840312156101a857600080fd5b81356001600160a01b03811681146101bf57600080fd5b9392505050565b6000602082840312156101d857600080fd5b5035919050565b600060208083528351808285015260005b8181101561020c578581018301518582016040015282016101f0565b506000604082860101526040601f19601f8301168501019250505092915050565b634e487b7160e01b600052604160045260246000fd5b60006020828403121561025557600080fd5b813567ffffffffffffffff8082111561026d57600080fd5b818401915084601f83011261028157600080fd5b8135818111156102935761029361022d565b604051601f8201601f19908116603f011681019083821181831017156102bb576102bb61022d565b816040528281528760208487010111156102d457600080fd5b826020860160208301376000928101602001929092525095945050505050565b600181811c9082168061030857607f821691505b60208210810361032857634e487b7160e01b600052602260045260246000fd5b5091905056fea2646970667358221220a9ec0d6c169c36ebe1e0a718f69e1703d28a521859d0fbc98c9046e413ed3f0864736f6c63430008110033",
  "linkReferences": {},
  "deployedLinkReferences": {}
}