{
  "_format": "hh-sol-artifact-1",
  "contractName": "FactoryAgentRole",
  "sourceName": "contracts/TREX/roles/FactoryAgentRole.sol",
  "abi": [
    {
      "anonymous": false,
      "inputs": [
        {
          "indexed": true,
          "internalType": "address",
          "name": "_agent",
          "type": "address"
        }
      ],
      "name": "DBLAgentAdded",
      "type": "event"
    },
    {
      "anonymous": false,
      "inputs": [
        {
          "indexed": true,
          "internalType": "address",
          "name": "_agent",
          "type": "address"
        }
      ],
      "name": "DBLAgentRemoved",
      "type": "event"
    },
    {
      "anonymous": false,
      "inputs": [
        {
          "indexed": true,
          "internalType": "address",
          "name": "_agent",
          "type": "address"
        }
      ],
      "name": "IdentityAgentAdded",
      "type": "event"
    },
    {
      "anonymous": false,
      "inputs": [
        {
          "indexed": true,
          "internalType": "address",
          "name": "_agent",
          "type": "address"
        }
      ],
      "name": "IdentityAgentRemoved",
      "type": "event"
    },
    {
      "anonymous": false,
      "inputs": [
        {
          "indexed": true,
          "internalType": "address",
          "name": "_owner",
          "type": "address"
        }
      ],
      "name": "OwnerSet",
      "type": "event"
    },
    {
      "anonymous": false,
      "inputs": [
        {
          "indexed": true,
          "internalType": "address",
          "name": "previousOwner",
          "type": "address"
        },
        {
          "indexed": true,
          "internalType": "address",
          "name": "newOwner",
          "type": "address"
        }
      ],
      "name": "OwnershipTransferred",
      "type": "event"
    },
    {
      "anonymous": false,
      "inputs": [
        {
          "indexed": true,
          "internalType": "address",
          "name": "_agent",
          "type": "address"
        }
      ],
      "name": "TokenAgentAdded",
      "type": "event"
    },
    {
      "anonymous": false,
      "inputs": [
        {
          "indexed": true,
          "internalType": "address",
          "name": "_agent",
          "type": "address"
        }
      ],
      "name": "TokenAgentRemoved",
      "type": "event"
    },
    {
      "inputs": [
        {
          "internalType": "address",
          "name": "_agent",
          "type": "address"
        }
      ],
      "name": "addDBLAgent",
      "outputs": [],
      "stateMutability": "nonpayable",
      "type": "function"
    },
    {
      "inputs": [
        {
          "internalType": "address",
          "name": "_agent",
          "type": "address"
        }
      ],
      "name": "addIdentityAgent",
      "outputs": [],
      "stateMutability": "nonpayable",
      "type": "function"
    },
    {
      "inputs": [
        {
          "internalType": "address",
          "name": "_agent",
          "type": "address"
        }
      ],
      "name": "addTokenAgent",
      "outputs": [],
      "stateMutability": "nonpayable",
      "type": "function"
    },
    {
      "inputs": [],
      "name": "getDBLAgents",
      "outputs": [
        {
          "internalType": "address[]",
          "name": "",
          "type": "address[]"
        }
      ],
      "stateMutability": "view",
      "type": "function"
    },
    {
      "inputs": [],
      "name": "getIdentityTokenAgents",
      "outputs": [
        {
          "internalType": "address[]",
          "name": "",
          "type": "address[]"
        }
      ],
      "stateMutability": "view",
      "type": "function"
    },
    {
      "inputs": [],
      "name": "getTokenAgents",
      "outputs": [
        {
          "internalType": "address[]",
          "name": "",
          "type": "address[]"
        }
      ],
      "stateMutability": "view",
      "type": "function"
    },
    {
      "inputs": [
        {
          "internalType": "address",
          "name": "_agent",
          "type": "address"
        }
      ],
      "name": "isDBLAgent",
      "outputs": [
        {
          "internalType": "bool",
          "name": "",
          "type": "bool"
        }
      ],
      "stateMutability": "view",
      "type": "function"
    },
    {
      "inputs": [
        {
          "internalType": "address",
          "name": "_agent",
          "type": "address"
        }
      ],
      "name": "isIdentityAgent",
      "outputs": [
        {
          "internalType": "bool",
          "name": "",
          "type": "bool"
        }
      ],
      "stateMutability": "view",
      "type": "function"
    },
    {
      "inputs": [
        {
          "internalType": "address",
          "name": "_agent",
          "type": "address"
        }
      ],
      "name": "isTokenAgent",
      "outputs": [
        {
          "internalType": "bool",
          "name": "",
          "type": "bool"
        }
      ],
      "stateMutability": "view",
      "type": "function"
    },
    {
      "inputs": [],
      "name": "owner",
      "outputs": [
        {
          "internalType": "address",
          "name": "",
          "type": "address"
        }
      ],
      "stateMutability": "view",
      "type": "function"
    },
    {
      "inputs": [
        {
          "internalType": "address",
          "name": "_agent",
          "type": "address"
        }
      ],
      "name": "removeDBLAgent",
      "outputs": [],
      "stateMutability": "nonpayable",
      "type": "function"
    },
    {
      "inputs": [
        {
          "internalType": "address",
          "name": "_agent",
          "type": "address"
        }
      ],
      "name": "removeIdentityAgent",
      "outputs": [],
      "stateMutability": "nonpayable",
      "type": "function"
    },
    {
      "inputs": [
        {
          "internalType": "address",
          "name": "_agent",
          "type": "address"
        }
      ],
      "name": "removeTokenAgent",
      "outputs": [],
      "stateMutability": "nonpayable",
      "type": "function"
    },
    {
      "inputs": [],
      "name": "renounceOwnership",
      "outputs": [],
      "stateMutability": "nonpayable",
      "type": "function"
    },
    {
      "inputs": [
        {
          "internalType": "address",
          "name": "_adm",
          "type": "address"
        }
      ],
      "name": "setOwner",
      "outputs": [],
      "stateMutability": "nonpayable",
      "type": "function"
    },
    {
      "inputs": [
        {
          "internalType": "address",
          "name": "newOwner",
          "type": "address"
        }
      ],
      "name": "transferOwnership",
      "outputs": [],
      "stateMutability": "nonpayable",
      "type": "function"
    }
  ],
  "bytecode": "0x608060405234801561001057600080fd5b5061001a3361001f565b61006f565b600080546001600160a01b038381166001600160a01b0319831681178455604051919092169283917f8be0079c531659141344cd1fd0a4f28419497f9722a3daafe3b4186f6b6457e09190a35050565b610f758061007e6000396000f3fe608060405234801561001057600080fd5b50600436106101005760003560e01c8063a783a10d11610097578063f2fde38b11610066578063f2fde38b146101f4578063f5f1593914610207578063f6fecd421461021a578063ff3e69541461022257600080fd5b8063a783a10d146101a8578063ab89f42f146101bb578063b81d753b146101ce578063cdde2932146101e157600080fd5b8063715018a6116100d3578063715018a6146101685780638da5cb5b146101705780639f07c9591461018b578063a531fa46146101a057600080fd5b806313af40351461010557806319166b5c1461011a5780632993063c1461012d578063346531fa14610140575b600080fd5b610118610113366004610e1d565b610235565b005b610118610128366004610e1d565b61039b565b61011861013b366004610e1d565b61044c565b61015361014e366004610e1d565b6104fd565b60405190151581526020015b60405180910390f35b610118610510565b6000546040516001600160a01b03909116815260200161015f565b610193610524565b60405161015f9190610e4d565b610193610586565b6101536101b6366004610e1d565b6105e6565b6101186101c9366004610e1d565b6105f3565b6101536101dc366004610e1d565b61076b565b6101186101ef366004610e1d565b610778565b610118610202366004610e1d565b6108f0565b610118610215366004610e1d565b610969565b610193610ae1565b610118610230366004610e1d565b610b41565b61023d610bf2565b6001600160a01b03811661026c5760405162461bcd60e51b815260040161026390610e9a565b60405180910390fd5b610277600182610c4c565b600480546001810182556000919091527f8a35acfbc15ff81a39ae7d344fd709f28e8600b4aa8c65c6b64bfe7fe36bd19b0180546001600160a01b0319166001600160a01b0383161790556102cd600382610c4c565b600680546001810182556000919091527ff652222313e28459528d920b65115c16c04f3efc82aaedc97be59f3f377c0d3f0180546001600160a01b0319166001600160a01b038316179055610323600282610c4c565b6005805460018101825560009182527f036b6384b5eca791c62761152d0c79bb0604c104a5fb6f4eb0703f3154bb3db00180546001600160a01b0319166001600160a01b03841690811790915560405190917f50146d0e3c60aa1d17a70635b05494f864e86144a2201275021014fbf08bafe291a250565b6103a3610bf2565b6001600160a01b0381166103c95760405162461bcd60e51b815260040161026390610e9a565b6103d4600182610c4c565b6004805460018101825560009182527f8a35acfbc15ff81a39ae7d344fd709f28e8600b4aa8c65c6b64bfe7fe36bd19b0180546001600160a01b0319166001600160a01b03841690811790915560405190917f696087291b62548d0679080bd59b807905f1ccdb636f87cc3991a619b144b42f91a250565b610454610bf2565b6001600160a01b03811661047a5760405162461bcd60e51b815260040161026390610e9a565b610485600382610c4c565b6006805460018101825560009182527ff652222313e28459528d920b65115c16c04f3efc82aaedc97be59f3f377c0d3f0180546001600160a01b0319166001600160a01b03841690811790915560405190917ff976f4369df3600a69520c7ed19f0dbe3ffe452dac39ded1442919cc90686ac691a250565b600061050a600283610cc8565b92915050565b610518610bf2565b6105226000610d4b565b565b6060600480548060200260200160405190810160405280929190818152602001828054801561057c57602002820191906000526020600020905b81546001600160a01b0316815260019091019060200180831161055e575b5050505050905090565b6060600580548060200260200160405190810160405280929190818152602001828054801561057c576020028201919060005260206000209081546001600160a01b0316815260019091019060200180831161055e575050505050905090565b600061050a600383610cc8565b6105fb610bf2565b6001600160a01b0381166106215760405162461bcd60e51b815260040161026390610e9a565b61062c600182610d9b565b60045460005b8181101561073257826001600160a01b03166004828154811061065757610657610ed1565b6000918252602090912001546001600160a01b03160361072057600461067e600184610efd565b8154811061068e5761068e610ed1565b600091825260209091200154600480546001600160a01b0390921691839081106106ba576106ba610ed1565b9060005260206000200160006101000a8154816001600160a01b0302191690836001600160a01b0316021790555060048054806106f9576106f9610f10565b600082815260209020810160001990810180546001600160a01b0319169055019055610732565b8061072a81610f26565b915050610632565b506040516001600160a01b038316907f3a06c0ed6e940a5a843d99477b116cf07b2e8a9b17294fc42fea8dad29beccab90600090a25050565b600061050a600183610cc8565b610780610bf2565b6001600160a01b0381166107a65760405162461bcd60e51b815260040161026390610e9a565b6107b1600282610d9b565b60055460005b818110156108b757826001600160a01b0316600582815481106107dc576107dc610ed1565b6000918252602090912001546001600160a01b0316036108a5576005610803600184610efd565b8154811061081357610813610ed1565b600091825260209091200154600580546001600160a01b03909216918390811061083f5761083f610ed1565b9060005260206000200160006101000a8154816001600160a01b0302191690836001600160a01b03160217905550600580548061087e5761087e610f10565b600082815260209020810160001990810180546001600160a01b03191690550190556108b7565b806108af81610f26565b9150506107b7565b506040516001600160a01b038316907f6a659bb87bb23efbdc295f8eed8ae8c4379bfb77660ced2ef0f3d7d26b05c6a690600090a25050565b6108f8610bf2565b6001600160a01b03811661095d5760405162461bcd60e51b815260206004820152602660248201527f4f776e61626c653a206e6577206f776e657220697320746865207a65726f206160448201526564647265737360d01b6064820152608401610263565b61096681610d4b565b50565b610971610bf2565b6001600160a01b0381166109975760405162461bcd60e51b815260040161026390610e9a565b6109a2600382610d9b565b60065460005b81811015610aa857826001600160a01b0316600682815481106109cd576109cd610ed1565b6000918252602090912001546001600160a01b031603610a965760066109f4600184610efd565b81548110610a0457610a04610ed1565b600091825260209091200154600680546001600160a01b039092169183908110610a3057610a30610ed1565b9060005260206000200160006101000a8154816001600160a01b0302191690836001600160a01b031602179055506006805480610a6f57610a6f610f10565b600082815260209020810160001990810180546001600160a01b0319169055019055610aa8565b80610aa081610f26565b9150506109a8565b506040516001600160a01b038316907f3b405ce90aad13cee431c26a2e99105918c4a53ae37fce623114438012058d4490600090a25050565b6060600680548060200260200160405190810160405280929190818152602001828054801561057c576020028201919060005260206000209081546001600160a01b0316815260019091019060200180831161055e575050505050905090565b610b49610bf2565b6001600160a01b038116610b6f5760405162461bcd60e51b815260040161026390610e9a565b610b7a600282610c4c565b6005805460018101825560009182527f036b6384b5eca791c62761152d0c79bb0604c104a5fb6f4eb0703f3154bb3db00180546001600160a01b0319166001600160a01b03841690811790915560405190917fd62c45e13ac30396aceb3ad37c89bd1ba9048032fe61679000e92eb93dbfd67d91a250565b6000546001600160a01b031633146105225760405162461bcd60e51b815260206004820181905260248201527f4f776e61626c653a2063616c6c6572206973206e6f7420746865206f776e65726044820152606401610263565b610c568282610cc8565b15610ca35760405162461bcd60e51b815260206004820152601f60248201527f526f6c65733a206163636f756e7420616c72656164792068617320726f6c65006044820152606401610263565b6001600160a01b0316600090815260209190915260409020805460ff19166001179055565b60006001600160a01b038216610d2b5760405162461bcd60e51b815260206004820152602260248201527f526f6c65733a206163636f756e7420697320746865207a65726f206164647265604482015261737360f01b6064820152608401610263565b506001600160a01b03166000908152602091909152604090205460ff1690565b600080546001600160a01b038381166001600160a01b0319831681178455604051919092169283917f8be0079c531659141344cd1fd0a4f28419497f9722a3daafe3b4186f6b6457e09190a35050565b610da58282610cc8565b610dfb5760405162461bcd60e51b815260206004820152602160248201527f526f6c65733a206163636f756e7420646f6573206e6f74206861766520726f6c6044820152606560f81b6064820152608401610263565b6001600160a01b0316600090815260209190915260409020805460ff19169055565b600060208284031215610e2f57600080fd5b81356001600160a01b0381168114610e4657600080fd5b9392505050565b6020808252825182820181905260009190848201906040850190845b81811015610e8e5783516001600160a01b031683529284019291840191600101610e69565b50909695505050505050565b6020808252601f908201527f696e76616c696420617267756d656e74202d207a65726f206164647265737300604082015260600190565b634e487b7160e01b600052603260045260246000fd5b634e487b7160e01b600052601160045260246000fd5b8181038181111561050a5761050a610ee7565b634e487b7160e01b600052603160045260246000fd5b600060018201610f3857610f38610ee7565b506001019056fea2646970667358221220d2a93bcf5faf3d88193ee2ef714f61f6a4367f77465b0b0eb1f94ea4f1f0e74364736f6c63430008110033",
  "linkReferences": {},
  "deployedLinkReferences": {}
}