{
  "_format": "hh-sol-artifact-1",
  "contractName": "TimeTransfersLimitsModule",
  "sourceName": "contracts/TREX/compliance/modular/modules/TimeTransfersLimitsModule.sol",
  "abi": [
    {
      "inputs": [
        {
          "internalType": "address",
          "name": "compliance",
          "type": "address"
        },
        {
          "internalType": "uint256",
          "name": "arraySize",
          "type": "uint256"
        }
      ],
      "name": "LimitsArraySizeExceeded",
      "type": "error"
    },
    {
      "anonymous": false,
      "inputs": [
        {
          "indexed": false,
          "internalType": "address",
          "name": "previousAdmin",
          "type": "address"
        },
        {
          "indexed": false,
          "internalType": "address",
          "name": "newAdmin",
          "type": "address"
        }
      ],
      "name": "AdminChanged",
      "type": "event"
    },
    {
      "anonymous": false,
      "inputs": [
        {
          "indexed": true,
          "internalType": "address",
          "name": "beacon",
          "type": "address"
        }
      ],
      "name": "BeaconUpgraded",
      "type": "event"
    },
    {
      "anonymous": false,
      "inputs": [
        {
          "indexed": true,
          "internalType": "address",
          "name": "_compliance",
          "type": "address"
        }
      ],
      "name": "ComplianceBound",
      "type": "event"
    },
    {
      "anonymous": false,
      "inputs": [
        {
          "indexed": true,
          "internalType": "address",
          "name": "_compliance",
          "type": "address"
        }
      ],
      "name": "ComplianceUnbound",
      "type": "event"
    },
    {
      "anonymous": false,
      "inputs": [
        {
          "indexed": false,
          "internalType": "uint8",
          "name": "version",
          "type": "uint8"
        }
      ],
      "name": "Initialized",
      "type": "event"
    },
    {
      "anonymous": false,
      "inputs": [
        {
          "indexed": true,
          "internalType": "address",
          "name": "previousOwner",
          "type": "address"
        },
        {
          "indexed": true,
          "internalType": "address",
          "name": "newOwner",
          "type": "address"
        }
      ],
      "name": "OwnershipTransferred",
      "type": "event"
    },
    {
      "anonymous": false,
      "inputs": [
        {
          "indexed": true,
          "internalType": "address",
          "name": "compliance",
          "type": "address"
        },
        {
          "indexed": false,
          "internalType": "uint32",
          "name": "limitTime",
          "type": "uint32"
        },
        {
          "indexed": false,
          "internalType": "uint256",
          "name": "limitValue",
          "type": "uint256"
        }
      ],
      "name": "TimeTransferLimitUpdated",
      "type": "event"
    },
    {
      "anonymous": false,
      "inputs": [
        {
          "indexed": true,
          "internalType": "address",
          "name": "implementation",
          "type": "address"
        }
      ],
      "name": "Upgraded",
      "type": "event"
    },
    {
      "inputs": [
        {
          "internalType": "address",
          "name": "_compliance",
          "type": "address"
        }
      ],
      "name": "bindCompliance",
      "outputs": [],
      "stateMutability": "nonpayable",
      "type": "function"
    },
    {
      "inputs": [
        {
          "internalType": "address",
          "name": "",
          "type": "address"
        }
      ],
      "name": "canComplianceBind",
      "outputs": [
        {
          "internalType": "bool",
          "name": "",
          "type": "bool"
        }
      ],
      "stateMutability": "view",
      "type": "function"
    },
    {
      "inputs": [
        {
          "internalType": "address",
          "name": "_compliance",
          "type": "address"
        }
      ],
      "name": "getTimeTransferLimits",
      "outputs": [
        {
          "components": [
            {
              "internalType": "uint32",
              "name": "limitTime",
              "type": "uint32"
            },
            {
              "internalType": "uint256",
              "name": "limitValue",
              "type": "uint256"
            }
          ],
          "internalType": "struct TimeTransfersLimitsModule.Limit[]",
          "name": "limits",
          "type": "tuple[]"
        }
      ],
      "stateMutability": "view",
      "type": "function"
    },
    {
      "inputs": [],
      "name": "initialize",
      "outputs": [],
      "stateMutability": "nonpayable",
      "type": "function"
    },
    {
      "inputs": [
        {
          "internalType": "address",
          "name": "_compliance",
          "type": "address"
        }
      ],
      "name": "isComplianceBound",
      "outputs": [
        {
          "internalType": "bool",
          "name": "",
          "type": "bool"
        }
      ],
      "stateMutability": "view",
      "type": "function"
    },
    {
      "inputs": [],
      "name": "isPlugAndPlay",
      "outputs": [
        {
          "internalType": "bool",
          "name": "",
          "type": "bool"
        }
      ],
      "stateMutability": "pure",
      "type": "function"
    },
    {
      "inputs": [
        {
          "internalType": "address",
          "name": "",
          "type": "address"
        },
        {
          "internalType": "uint32",
          "name": "",
          "type": "uint32"
        }
      ],
      "name": "limitValues",
      "outputs": [
        {
          "internalType": "bool",
          "name": "attributedLimit",
          "type": "bool"
        },
        {
          "internalType": "uint8",
          "name": "limitIndex",
          "type": "uint8"
        }
      ],
      "stateMutability": "view",
      "type": "function"
    },
    {
      "inputs": [
        {
          "internalType": "address",
          "name": "_from",
          "type": "address"
        },
        {
          "internalType": "uint256",
          "name": "_value",
          "type": "uint256"
        }
      ],
      "name": "moduleBurnAction",
      "outputs": [],
      "stateMutability": "nonpayable",
      "type": "function"
    },
    {
      "inputs": [
        {
          "internalType": "address",
          "name": "_from",
          "type": "address"
        },
        {
          "internalType": "address",
          "name": "",
          "type": "address"
        },
        {
          "internalType": "uint256",
          "name": "_value",
          "type": "uint256"
        },
        {
          "internalType": "address",
          "name": "_compliance",
          "type": "address"
        }
      ],
      "name": "moduleCheck",
      "outputs": [
        {
          "internalType": "bool",
          "name": "",
          "type": "bool"
        }
      ],
      "stateMutability": "view",
      "type": "function"
    },
    {
      "inputs": [
        {
          "internalType": "address",
          "name": "_to",
          "type": "address"
        },
        {
          "internalType": "uint256",
          "name": "_value",
          "type": "uint256"
        }
      ],
      "name": "moduleMintAction",
      "outputs": [],
      "stateMutability": "nonpayable",
      "type": "function"
    },
    {
      "inputs": [
        {
          "internalType": "address",
          "name": "_from",
          "type": "address"
        },
        {
          "internalType": "address",
          "name": "",
          "type": "address"
        },
        {
          "internalType": "uint256",
          "name": "_value",
          "type": "uint256"
        }
      ],
      "name": "moduleTransferAction",
      "outputs": [],
      "stateMutability": "nonpayable",
      "type": "function"
    },
    {
      "inputs": [],
      "name": "name",
      "outputs": [
        {
          "internalType": "string",
          "name": "_name",
          "type": "string"
        }
      ],
      "stateMutability": "pure",
      "type": "function"
    },
    {
      "inputs": [],
      "name": "owner",
      "outputs": [
        {
          "internalType": "address",
          "name": "",
          "type": "address"
        }
      ],
      "stateMutability": "view",
      "type": "function"
    },
    {
      "inputs": [],
      "name": "proxiableUUID",
      "outputs": [
        {
          "internalType": "bytes32",
          "name": "",
          "type": "bytes32"
        }
      ],
      "stateMutability": "view",
      "type": "function"
    },
    {
      "inputs": [],
      "name": "renounceOwnership",
      "outputs": [],
      "stateMutability": "nonpayable",
      "type": "function"
    },
    {
      "inputs": [
        {
          "components": [
            {
              "internalType": "uint32",
              "name": "limitTime",
              "type": "uint32"
            },
            {
              "internalType": "uint256",
              "name": "limitValue",
              "type": "uint256"
            }
          ],
          "internalType": "struct TimeTransfersLimitsModule.Limit",
          "name": "_limit",
          "type": "tuple"
        }
      ],
      "name": "setTimeTransferLimit",
      "outputs": [],
      "stateMutability": "nonpayable",
      "type": "function"
    },
    {
      "inputs": [
        {
          "internalType": "address",
          "name": "",
          "type": "address"
        },
        {
          "internalType": "uint256",
          "name": "",
          "type": "uint256"
        }
      ],
      "name": "transferLimits",
      "outputs": [
        {
          "internalType": "uint32",
          "name": "limitTime",
          "type": "uint32"
        },
        {
          "internalType": "uint256",
          "name": "limitValue",
          "type": "uint256"
        }
      ],
      "stateMutability": "view",
      "type": "function"
    },
    {
      "inputs": [
        {
          "internalType": "address",
          "name": "newOwner",
          "type": "address"
        }
      ],
      "name": "transferOwnership",
      "outputs": [],
      "stateMutability": "nonpayable",
      "type": "function"
    },
    {
      "inputs": [
        {
          "internalType": "address",
          "name": "_compliance",
          "type": "address"
        }
      ],
      "name": "unbindCompliance",
      "outputs": [],
      "stateMutability": "nonpayable",
      "type": "function"
    },
    {
      "inputs": [
        {
          "internalType": "address",
          "name": "newImplementation",
          "type": "address"
        }
      ],
      "name": "upgradeTo",
      "outputs": [],
      "stateMutability": "nonpayable",
      "type": "function"
    },
    {
      "inputs": [
        {
          "internalType": "address",
          "name": "newImplementation",
          "type": "address"
        },
        {
          "internalType": "bytes",
          "name": "data",
          "type": "bytes"
        }
      ],
      "name": "upgradeToAndCall",
      "outputs": [],
      "stateMutability": "payable",
      "type": "function"
    },
    {
      "inputs": [
        {
          "internalType": "address",
          "name": "",
          "type": "address"
        },
        {
          "internalType": "address",
          "name": "",
          "type": "address"
        },
        {
          "internalType": "uint32",
          "name": "",
          "type": "uint32"
        }
      ],
      "name": "usersCounters",
      "outputs": [
        {
          "internalType": "uint256",
          "name": "value",
          "type": "uint256"
        },
        {
          "internalType": "uint256",
          "name": "timer",
          "type": "uint256"
        }
      ],
      "stateMutability": "view",
      "type": "function"
    }
  ],
  "bytecode": "0x60a06040523060805234801561001457600080fd5b50608051611fee61004c600039600081816108320152818161087201528181610b2001528181610b600152610bf30152611fee6000f3fe6080604052600436106101355760003560e01c80634f1ef286116100ab5780638da5cb5b1161006f5780638da5cb5b14610423578063bcc210531461044b578063d09b3be01461046c578063e6f5e8071461048c578063f104a8c9146102d4578063f2fde38b146104a057600080fd5b80634f1ef2861461038757806352d1902d1461039a57806353ccd57d146103bd578063715018a6146103f95780638129fc1c1461040e57600080fd5b80632f6bbc5d116100fd5780632f6bbc5d146102575780633659cfe6146102b4578063372491a2146102d4578063388ebb15146102f45780634a932544146103215780634cf4d2951461034157600080fd5b8063013b7ce41461013a5780630694a5fb1461016f57806306fdde0314610191578063189fa403146101dd5780632cb7e1ec14610237575b600080fd5b34801561014657600080fd5b5061015a6101553660046119c8565b6104c0565b60405190151581526020015b60405180910390f35b34801561017b57600080fd5b5061018f61018a366004611a1b565b6106b8565b005b34801561019d57600080fd5b50604080518082018252601981527f54696d655472616e73666572734c696d6974734d6f64756c6500000000000000602082015290516101669190611a63565b3480156101e957600080fd5b506102226101f8366004611aa8565b60cb6020908152600093845260408085208252928452828420905282529020805460019091015482565b60408051928352602083019190915201610166565b34801561024357600080fd5b5061018f610252366004611af3565b6107d8565b34801561026357600080fd5b5061029b610272366004611b34565b60c960209081526000928352604080842090915290825290205460ff8082169161010090041682565b60408051921515835260ff909116602083015201610166565b3480156102c057600080fd5b5061018f6102cf366004611a1b565b610828565b3480156102e057600080fd5b5061018f6102ef366004611b6d565b610907565b34801561030057600080fd5b5061031461030f366004611a1b565b61094b565b6040516101669190611b99565b34801561032d57600080fd5b5061018f61033c366004611a1b565b6109d3565b34801561034d57600080fd5b5061015a61035c366004611a1b565b6001600160a01b03166000908152600080516020611f99833981519152602052604090205460ff1690565b61018f610395366004611c04565b610b16565b3480156103a657600080fd5b506103af610be6565b604051908152602001610166565b3480156103c957600080fd5b506103dd6103d8366004611b6d565b610c99565b6040805163ffffffff9093168352602083019190915201610166565b34801561040557600080fd5b5061018f610cdc565b34801561041a57600080fd5b5061018f610cf0565b34801561042f57600080fd5b506033546040516001600160a01b039091168152602001610166565b34801561045757600080fd5b5061015a610466366004611a1b565b50600190565b34801561047857600080fd5b5061018f610487366004611cc8565b610e00565b34801561049857600080fd5b50600161015a565b3480156104ac57600080fd5b5061018f6104bb366004611a1b565b611058565b60006001600160a01b0385166104d8575060016106b0565b6104e282866110ce565b156104ef575060016106b0565b60006104fb83876111a7565b905060005b6001600160a01b038416600090815260ca60205260409020548110156106a9576001600160a01b038416600090815260ca6020526040902080548290811061054a5761054a611ce0565b90600052602060002090600202016001015485111561056e576000925050506106b0565b6105c5848360ca6000886001600160a01b03166001600160a01b0316815260200190815260200160002084815481106105a9576105a9611ce0565b600091825260209091206002909102015463ffffffff166112d8565b15801561068757506001600160a01b038416600090815260ca602052604090208054829081106105f7576105f7611ce0565b60009182526020808320600160029093020191909101546001600160a01b0380881680855260cb84526040808620928816865291845281852090855260ca9093528320805491938993929091908690811061065457610654611ce0565b6000918252602080832060029092029091015463ffffffff1683528201929092526040019020546106859190611d0c565b115b15610697576000925050506106b0565b806106a181611d1f565b915050610500565b5060019150505b949350505050565b336000908152600080516020611f99833981519152602081905260409091205460ff166107005760405162461bcd60e51b81526004016106f790611d38565b60405180910390fd5b600080516020611f998339815191526001600160a01b0383166107655760405162461bcd60e51b815260206004820152601f60248201527f696e76616c696420617267756d656e74202d207a65726f20616464726573730060448201526064016106f7565b336001600160a01b0384161461078d5760405162461bcd60e51b81526004016106f790611d6f565b6001600160a01b038316600081815260208390526040808220805460ff19169055517f408b49d9be1c914c52a0227e18a077e5a892dddf32a26cfa94a5d9708fad77189190a2505050565b336000908152600080516020611f99833981519152602081905260409091205460ff166108175760405162461bcd60e51b81526004016106f790611d38565b610822338584611318565b50505050565b6001600160a01b037f00000000000000000000000000000000000000000000000000000000000000001630036108705760405162461bcd60e51b81526004016106f790611db0565b7f00000000000000000000000000000000000000000000000000000000000000006001600160a01b03166108b9600080516020611f52833981519152546001600160a01b031690565b6001600160a01b0316146108df5760405162461bcd60e51b81526004016106f790611dfc565b6108e88161143c565b6040805160008082526020820190925261090491839190611444565b50565b336000908152600080516020611f99833981519152602081905260409091205460ff166109465760405162461bcd60e51b81526004016106f790611d38565b505050565b6001600160a01b038116600090815260ca60209081526040808320805482518185028101850190935280835260609492939192909184015b828210156109c85760008481526020908190206040805180820190915260028502909101805463ffffffff168252600190810154828401529083529092019101610983565b505050509050919050565b600080516020611f998339815191526001600160a01b038216610a385760405162461bcd60e51b815260206004820152601f60248201527f696e76616c696420617267756d656e74202d207a65726f20616464726573730060448201526064016106f7565b6001600160a01b03821660009081526020829052604090205460ff1615610aa15760405162461bcd60e51b815260206004820152601860248201527f636f6d706c69616e636520616c726561647920626f756e64000000000000000060448201526064016106f7565b336001600160a01b03831614610ac95760405162461bcd60e51b81526004016106f790611d6f565b6001600160a01b038216600081815260208390526040808220805460ff19166001179055517f1f7b76c58fb697eb53c6c7c1becb96911516a136e24d7ced386b2355358b75a39190a25050565b6001600160a01b037f0000000000000000000000000000000000000000000000000000000000000000163003610b5e5760405162461bcd60e51b81526004016106f790611db0565b7f00000000000000000000000000000000000000000000000000000000000000006001600160a01b0316610ba7600080516020611f52833981519152546001600160a01b031690565b6001600160a01b031614610bcd5760405162461bcd60e51b81526004016106f790611dfc565b610bd68261143c565b610be282826001611444565b5050565b6000306001600160a01b037f00000000000000000000000000000000000000000000000000000000000000001614610c865760405162461bcd60e51b815260206004820152603860248201527f555550535570677261646561626c653a206d757374206e6f742062652063616c60448201527f6c6564207468726f7567682064656c656761746563616c6c000000000000000060648201526084016106f7565b50600080516020611f5283398151915290565b60ca6020528160005260406000208181548110610cb557600080fd5b60009182526020909120600290910201805460019091015463ffffffff9091169250905082565b610ce46115af565b610cee6000611609565b565b600054610100900460ff1615808015610d105750600054600160ff909116105b80610d2a5750303b158015610d2a575060005460ff166001145b610d8d5760405162461bcd60e51b815260206004820152602e60248201527f496e697469616c697a61626c653a20636f6e747261637420697320616c72656160448201526d191e481a5b9a5d1a585b1a5e995960921b60648201526084016106f7565b6000805460ff191660011790558015610db0576000805461ff0019166101001790555b610db861165b565b8015610904576000805461ff0019169055604051600181527f7f26b83ff96e1f2b6a682f133852f6798a09c465da95921460cefb38474024989060200160405180910390a150565b336000908152600080516020611f99833981519152602081905260409091205460ff16610e3f5760405162461bcd60e51b81526004016106f790611d38565b33600090815260c9602090815260408220908290610e5f90860186611e48565b63ffffffff168152602080820192909252604090810160009081205433825260ca909352205460ff909116915081158015610e9e575060048160ff1610155b15610ec7576040516382f520a960e01b815233600482015260ff821660248201526044016106f7565b81158015610ed8575060048160ff16105b15610f885733600090815260ca60209081526040822080546001810182559083529120859160020201610f0b8282611e65565b50506040805180820182526001815260ff831660208083019190915233600090815260c98252928320919290610f4390880188611e48565b63ffffffff16815260208082019290925260400160002082518154939092015160ff166101000261ff00199215159290921661ffff1990931692909217179055611002565b33600090815260ca6020908152604080832060c9835290832087939192909190610fb490850185611e48565b63ffffffff168152602081019190915260400160002054815461010090910460ff16908110610fe557610fe5611ce0565b90600052602060002090600202018181610fff9190611e65565b50505b337f172f792abfbfd784dac801573197a4dc27fe914e9bb2756ff598a68a359c29c26110316020870187611e48565b6040805163ffffffff9092168252602080890135908301520160405180910390a250505050565b6110606115af565b6001600160a01b0381166110c55760405162461bcd60e51b815260206004820152602660248201527f4f776e61626c653a206e6577206f776e657220697320746865207a65726f206160448201526564647265737360d01b60648201526084016106f7565b61090481611609565b6000826001600160a01b0316636a3edf286040518163ffffffff1660e01b8152600401602060405180830381865afa15801561110e573d6000803e3d6000fd5b505050506040513d601f19601f820116820180604052508101906111329190611e92565b6040516307feec1960e21b81526001600160a01b0384811660048301529190911690631ffbb06490602401602060405180830381865afa15801561117a573d6000803e3d6000fd5b505050506040513d601f19601f8201168201806040525081019061119e9190611eaf565b90505b92915050565b6000826001600160a01b0316636a3edf286040518163ffffffff1660e01b8152600401602060405180830381865afa1580156111e7573d6000803e3d6000fd5b505050506040513d601f19601f8201168201806040525081019061120b9190611e92565b6001600160a01b031663134e18f46040518163ffffffff1660e01b8152600401602060405180830381865afa158015611248573d6000803e3d6000fd5b505050506040513d601f19601f8201168201806040525081019061126c9190611e92565b604051633c3ad79560e21b81526001600160a01b038481166004830152919091169063f0eb5e5490602401602060405180830381865afa1580156112b4573d6000803e3d6000fd5b505050506040513d601f19601f8201168201806040525081019061119e9190611e92565b6001600160a01b03928316600090815260cb6020908152604080832094909516825292835283812063ffffffff9290921681529152206001015442101590565b600061132484846111a7565b905060005b6001600160a01b038516600090815260ca6020526040902054811015611435576113a0858360ca6000896001600160a01b03166001600160a01b03168152602001908152602001600020848154811061138457611384611ce0565b600091825260209091206002909102015463ffffffff16611692565b6001600160a01b03808616600081815260cb60209081526040808320948716835293815283822092825260ca9052918220805486939190859081106113e7576113e7611ce0565b6000918252602080832060029092029091015463ffffffff1683528201929092526040018120805490919061141d908490611d0c565b9091555081905061142d81611d1f565b915050611329565b5050505050565b6109046115af565b7f4910fdfa16fed3260ed0e7147f7cc6da11a60208b5b9406d12a635614ffd91435460ff161561147757610946836116f1565b826001600160a01b03166352d1902d6040518163ffffffff1660e01b8152600401602060405180830381865afa9250505080156114d1575060408051601f3d908101601f191682019092526114ce91810190611ed1565b60015b6115345760405162461bcd60e51b815260206004820152602e60248201527f45524331393637557067726164653a206e657720696d706c656d656e7461746960448201526d6f6e206973206e6f74205555505360901b60648201526084016106f7565b600080516020611f5283398151915281146115a35760405162461bcd60e51b815260206004820152602960248201527f45524331393637557067726164653a20756e737570706f727465642070726f786044820152681a58589b195555525160ba1b60648201526084016106f7565b5061094683838361178d565b6033546001600160a01b03163314610cee5760405162461bcd60e51b815260206004820181905260248201527f4f776e61626c653a2063616c6c6572206973206e6f7420746865206f776e657260448201526064016106f7565b603380546001600160a01b038381166001600160a01b0319831681179093556040519116919082907f8be0079c531659141344cd1fd0a4f28419497f9722a3daafe3b4186f6b6457e090600090a35050565b600054610100900460ff166116825760405162461bcd60e51b81526004016106f790611eea565b61168a6117b2565b610cee6117e1565b61169d8383836112d8565b15610946576001600160a01b03808416600090815260cb60209081526040808320938616835292815282822063ffffffff85168084529152919020906116e39042611d0c565b600182015560009055505050565b6001600160a01b0381163b61175e5760405162461bcd60e51b815260206004820152602d60248201527f455243313936373a206e657720696d706c656d656e746174696f6e206973206e60448201526c1bdd08184818dbdb9d1c9858dd609a1b60648201526084016106f7565b600080516020611f5283398151915280546001600160a01b0319166001600160a01b0392909216919091179055565b61179683611808565b6000825111806117a35750805b15610946576108228383611848565b600054610100900460ff166117d95760405162461bcd60e51b81526004016106f790611eea565b610cee61186d565b600054610100900460ff16610cee5760405162461bcd60e51b81526004016106f790611eea565b611811816116f1565b6040516001600160a01b038216907fbc7cd75a20ee27fd9adebab32041f755214dbc6bffa90cc0225b39da2e5c2d3b90600090a250565b606061119e8383604051806060016040528060278152602001611f726027913961189d565b600054610100900460ff166118945760405162461bcd60e51b81526004016106f790611eea565b610cee33611609565b6060600080856001600160a01b0316856040516118ba9190611f35565b600060405180830381855af49150503d80600081146118f5576040519150601f19603f3d011682016040523d82523d6000602084013e6118fa565b606091505b509150915061190b86838387611915565b9695505050505050565b6060831561198457825160000361197d576001600160a01b0385163b61197d5760405162461bcd60e51b815260206004820152601d60248201527f416464726573733a2063616c6c20746f206e6f6e2d636f6e747261637400000060448201526064016106f7565b50816106b0565b6106b083838151156119995781518083602001fd5b8060405162461bcd60e51b81526004016106f79190611a63565b6001600160a01b038116811461090457600080fd5b600080600080608085870312156119de57600080fd5b84356119e9816119b3565b935060208501356119f9816119b3565b9250604085013591506060850135611a10816119b3565b939692955090935050565b600060208284031215611a2d57600080fd5b8135611a38816119b3565b9392505050565b60005b83811015611a5a578181015183820152602001611a42565b50506000910152565b6020815260008251806020840152611a82816040850160208701611a3f565b601f01601f19169190910160400192915050565b63ffffffff8116811461090457600080fd5b600080600060608486031215611abd57600080fd5b8335611ac8816119b3565b92506020840135611ad8816119b3565b91506040840135611ae881611a96565b809150509250925092565b600080600060608486031215611b0857600080fd5b8335611b13816119b3565b92506020840135611b23816119b3565b929592945050506040919091013590565b60008060408385031215611b4757600080fd5b8235611b52816119b3565b91506020830135611b6281611a96565b809150509250929050565b60008060408385031215611b8057600080fd5b8235611b8b816119b3565b946020939093013593505050565b602080825282518282018190526000919060409081850190868401855b82811015611be1578151805163ffffffff168552860151868501529284019290850190600101611bb6565b5091979650505050505050565b634e487b7160e01b600052604160045260246000fd5b60008060408385031215611c1757600080fd5b8235611c22816119b3565b9150602083013567ffffffffffffffff80821115611c3f57600080fd5b818501915085601f830112611c5357600080fd5b813581811115611c6557611c65611bee565b604051601f8201601f19908116603f01168101908382118183101715611c8d57611c8d611bee565b81604052828152886020848701011115611ca657600080fd5b8260208601602083013760006020848301015280955050505050509250929050565b600060408284031215611cda57600080fd5b50919050565b634e487b7160e01b600052603260045260246000fd5b634e487b7160e01b600052601160045260246000fd5b808201808211156111a1576111a1611cf6565b600060018201611d3157611d31611cf6565b5060010190565b6020808252601e908201527f6f6e6c7920626f756e6420636f6d706c69616e63652063616e2063616c6c0000604082015260600190565b60208082526021908201527f6f6e6c7920636f6d706c69616e636520636f6e74726163742063616e2063616c6040820152601b60fa1b606082015260800190565b6020808252602c908201527f46756e6374696f6e206d7573742062652063616c6c6564207468726f7567682060408201526b19195b1959d85d1958d85b1b60a21b606082015260800190565b6020808252602c908201527f46756e6374696f6e206d7573742062652063616c6c6564207468726f7567682060408201526b6163746976652070726f787960a01b606082015260800190565b600060208284031215611e5a57600080fd5b8135611a3881611a96565b8135611e7081611a96565b63ffffffff811663ffffffff1983541617825550602082013560018201555050565b600060208284031215611ea457600080fd5b8151611a38816119b3565b600060208284031215611ec157600080fd5b81518015158114611a3857600080fd5b600060208284031215611ee357600080fd5b5051919050565b6020808252602b908201527f496e697469616c697a61626c653a20636f6e7472616374206973206e6f74206960408201526a6e697469616c697a696e6760a81b606082015260800190565b60008251611f47818460208701611a3f565b919091019291505056fe360894a13ba1a3210667c828492db98dca3e2076cc3735a920a3ca505d382bbc416464726573733a206c6f772d6c6576656c2064656c65676174652063616c6c206661696c6564f6cc97de1266c180cd39f3b311632644143ce7873d2927755382ad4b39e8ae00a2646970667358221220d1dff08d4ce8c4d4bb5170c7494b81f2fb0e1b09f63a59d1e5cb07c148a9a3f164736f6c63430008110033",
  "linkReferences": {},
  "deployedLinkReferences": {}
}