{
  "_format": "hh-sol-artifact-1",
  "contractName": "CountryRestrictModule",
  "sourceName": "contracts/TREX/compliance/modular/modules/CountryRestrictModule.sol",
  "abi": [
    {
      "anonymous": false,
      "inputs": [
        {
          "indexed": true,
          "internalType": "address",
          "name": "_compliance",
          "type": "address"
        },
        {
          "indexed": false,
          "internalType": "uint16",
          "name": "_country",
          "type": "uint16"
        }
      ],
      "name": "AddedRestrictedCountry",
      "type": "event"
    },
    {
      "anonymous": false,
      "inputs": [
        {
          "indexed": false,
          "internalType": "address",
          "name": "previousAdmin",
          "type": "address"
        },
        {
          "indexed": false,
          "internalType": "address",
          "name": "newAdmin",
          "type": "address"
        }
      ],
      "name": "AdminChanged",
      "type": "event"
    },
    {
      "anonymous": false,
      "inputs": [
        {
          "indexed": true,
          "internalType": "address",
          "name": "beacon",
          "type": "address"
        }
      ],
      "name": "BeaconUpgraded",
      "type": "event"
    },
    {
      "anonymous": false,
      "inputs": [
        {
          "indexed": true,
          "internalType": "address",
          "name": "_compliance",
          "type": "address"
        }
      ],
      "name": "ComplianceBound",
      "type": "event"
    },
    {
      "anonymous": false,
      "inputs": [
        {
          "indexed": true,
          "internalType": "address",
          "name": "_compliance",
          "type": "address"
        }
      ],
      "name": "ComplianceUnbound",
      "type": "event"
    },
    {
      "anonymous": false,
      "inputs": [
        {
          "indexed": false,
          "internalType": "uint8",
          "name": "version",
          "type": "uint8"
        }
      ],
      "name": "Initialized",
      "type": "event"
    },
    {
      "anonymous": false,
      "inputs": [
        {
          "indexed": true,
          "internalType": "address",
          "name": "previousOwner",
          "type": "address"
        },
        {
          "indexed": true,
          "internalType": "address",
          "name": "newOwner",
          "type": "address"
        }
      ],
      "name": "OwnershipTransferred",
      "type": "event"
    },
    {
      "anonymous": false,
      "inputs": [
        {
          "indexed": true,
          "internalType": "address",
          "name": "_compliance",
          "type": "address"
        },
        {
          "indexed": false,
          "internalType": "uint16",
          "name": "_country",
          "type": "uint16"
        }
      ],
      "name": "RemovedRestrictedCountry",
      "type": "event"
    },
    {
      "anonymous": false,
      "inputs": [
        {
          "indexed": true,
          "internalType": "address",
          "name": "implementation",
          "type": "address"
        }
      ],
      "name": "Upgraded",
      "type": "event"
    },
    {
      "inputs": [
        {
          "internalType": "uint16",
          "name": "_country",
          "type": "uint16"
        }
      ],
      "name": "addCountryRestriction",
      "outputs": [],
      "stateMutability": "nonpayable",
      "type": "function"
    },
    {
      "inputs": [
        {
          "internalType": "uint16[]",
          "name": "_countries",
          "type": "uint16[]"
        }
      ],
      "name": "batchRestrictCountries",
      "outputs": [],
      "stateMutability": "nonpayable",
      "type": "function"
    },
    {
      "inputs": [
        {
          "internalType": "uint16[]",
          "name": "_countries",
          "type": "uint16[]"
        }
      ],
      "name": "batchUnrestrictCountries",
      "outputs": [],
      "stateMutability": "nonpayable",
      "type": "function"
    },
    {
      "inputs": [
        {
          "internalType": "address",
          "name": "_compliance",
          "type": "address"
        }
      ],
      "name": "bindCompliance",
      "outputs": [],
      "stateMutability": "nonpayable",
      "type": "function"
    },
    {
      "inputs": [
        {
          "internalType": "address",
          "name": "",
          "type": "address"
        }
      ],
      "name": "canComplianceBind",
      "outputs": [
        {
          "internalType": "bool",
          "name": "",
          "type": "bool"
        }
      ],
      "stateMutability": "view",
      "type": "function"
    },
    {
      "inputs": [],
      "name": "initialize",
      "outputs": [],
      "stateMutability": "nonpayable",
      "type": "function"
    },
    {
      "inputs": [
        {
          "internalType": "address",
          "name": "_compliance",
          "type": "address"
        }
      ],
      "name": "isComplianceBound",
      "outputs": [
        {
          "internalType": "bool",
          "name": "",
          "type": "bool"
        }
      ],
      "stateMutability": "view",
      "type": "function"
    },
    {
      "inputs": [
        {
          "internalType": "address",
          "name": "_compliance",
          "type": "address"
        },
        {
          "internalType": "uint16",
          "name": "_country",
          "type": "uint16"
        }
      ],
      "name": "isCountryRestricted",
      "outputs": [
        {
          "internalType": "bool",
          "name": "",
          "type": "bool"
        }
      ],
      "stateMutability": "view",
      "type": "function"
    },
    {
      "inputs": [],
      "name": "isPlugAndPlay",
      "outputs": [
        {
          "internalType": "bool",
          "name": "",
          "type": "bool"
        }
      ],
      "stateMutability": "pure",
      "type": "function"
    },
    {
      "inputs": [
        {
          "internalType": "address",
          "name": "_from",
          "type": "address"
        },
        {
          "internalType": "uint256",
          "name": "_value",
          "type": "uint256"
        }
      ],
      "name": "moduleBurnAction",
      "outputs": [],
      "stateMutability": "nonpayable",
      "type": "function"
    },
    {
      "inputs": [
        {
          "internalType": "address",
          "name": "",
          "type": "address"
        },
        {
          "internalType": "address",
          "name": "_to",
          "type": "address"
        },
        {
          "internalType": "uint256",
          "name": "",
          "type": "uint256"
        },
        {
          "internalType": "address",
          "name": "_compliance",
          "type": "address"
        }
      ],
      "name": "moduleCheck",
      "outputs": [
        {
          "internalType": "bool",
          "name": "",
          "type": "bool"
        }
      ],
      "stateMutability": "view",
      "type": "function"
    },
    {
      "inputs": [
        {
          "internalType": "address",
          "name": "_to",
          "type": "address"
        },
        {
          "internalType": "uint256",
          "name": "_value",
          "type": "uint256"
        }
      ],
      "name": "moduleMintAction",
      "outputs": [],
      "stateMutability": "nonpayable",
      "type": "function"
    },
    {
      "inputs": [
        {
          "internalType": "address",
          "name": "_from",
          "type": "address"
        },
        {
          "internalType": "address",
          "name": "_to",
          "type": "address"
        },
        {
          "internalType": "uint256",
          "name": "_value",
          "type": "uint256"
        }
      ],
      "name": "moduleTransferAction",
      "outputs": [],
      "stateMutability": "nonpayable",
      "type": "function"
    },
    {
      "inputs": [],
      "name": "name",
      "outputs": [
        {
          "internalType": "string",
          "name": "_name",
          "type": "string"
        }
      ],
      "stateMutability": "pure",
      "type": "function"
    },
    {
      "inputs": [],
      "name": "owner",
      "outputs": [
        {
          "internalType": "address",
          "name": "",
          "type": "address"
        }
      ],
      "stateMutability": "view",
      "type": "function"
    },
    {
      "inputs": [],
      "name": "proxiableUUID",
      "outputs": [
        {
          "internalType": "bytes32",
          "name": "",
          "type": "bytes32"
        }
      ],
      "stateMutability": "view",
      "type": "function"
    },
    {
      "inputs": [
        {
          "internalType": "uint16",
          "name": "_country",
          "type": "uint16"
        }
      ],
      "name": "removeCountryRestriction",
      "outputs": [],
      "stateMutability": "nonpayable",
      "type": "function"
    },
    {
      "inputs": [],
      "name": "renounceOwnership",
      "outputs": [],
      "stateMutability": "nonpayable",
      "type": "function"
    },
    {
      "inputs": [
        {
          "internalType": "address",
          "name": "newOwner",
          "type": "address"
        }
      ],
      "name": "transferOwnership",
      "outputs": [],
      "stateMutability": "nonpayable",
      "type": "function"
    },
    {
      "inputs": [
        {
          "internalType": "address",
          "name": "_compliance",
          "type": "address"
        }
      ],
      "name": "unbindCompliance",
      "outputs": [],
      "stateMutability": "nonpayable",
      "type": "function"
    },
    {
      "inputs": [
        {
          "internalType": "address",
          "name": "newImplementation",
          "type": "address"
        }
      ],
      "name": "upgradeTo",
      "outputs": [],
      "stateMutability": "nonpayable",
      "type": "function"
    },
    {
      "inputs": [
        {
          "internalType": "address",
          "name": "newImplementation",
          "type": "address"
        },
        {
          "internalType": "bytes",
          "name": "data",
          "type": "bytes"
        }
      ],
      "name": "upgradeToAndCall",
      "outputs": [],
      "stateMutability": "payable",
      "type": "function"
    }
  ],
  "bytecode": "0x60a06040523060805234801561001457600080fd5b50608051611be561004c600039600081816108df0152818161091f01528181610b4501528181610b850152610c180152611be56000f3fe6080604052600436106101355760003560e01c80634f1ef286116100ab5780638da5cb5b1161006f5780638da5cb5b146103a7578063bcc21053146103cf578063bdf9a07e146103f0578063e6f5e80714610410578063f104a8c9146102a1578063f2fde38b1461042457600080fd5b80634f1ef2861461032757806352d1902d1461033a5780636aae7b261461035d578063715018a61461037d5780638129fc1c1461039257600080fd5b80632cb7e1ec116100fd5780632cb7e1ec1461021557806330236f4a146102355780633659cfe614610281578063372491a2146102a15780634a932544146102c15780634cf4d295146102e157600080fd5b8063013b7ce41461013a5780630333ce241461016f5780630694a5fb1461019157806306fdde03146101b1578063249c981d146101f5575b600080fd5b34801561014657600080fd5b5061015a6101553660046116a9565b610444565b60405190151581526020015b60405180910390f35b34801561017b57600080fd5b5061018f61018a366004611708565b61044f565b005b34801561019d57600080fd5b5061018f6101ac366004611723565b610566565b3480156101bd57600080fd5b506040805180820182526015815274436f756e74727952657374726963744d6f64756c6560581b602082015290516101669190611762565b34801561020157600080fd5b5061018f610210366004611795565b61067d565b34801561022157600080fd5b5061018f61023036600461180a565b610896565b34801561024157600080fd5b5061015a610250366004611846565b6001600160a01b038216600090815260c96020908152604080832061ffff8516845290915290205460ff1692915050565b34801561028d57600080fd5b5061018f61029c366004611723565b6108d5565b3480156102ad57600080fd5b5061018f6102bc366004611879565b6109b4565b3480156102cd57600080fd5b5061018f6102dc366004611723565b6109f8565b3480156102ed57600080fd5b5061015a6102fc366004611723565b6001600160a01b03166000908152600080516020611b90833981519152602052604090205460ff1690565b61018f6103353660046118b9565b610b3b565b34801561034657600080fd5b5061034f610c0b565b604051908152602001610166565b34801561036957600080fd5b5061018f610378366004611708565b610cbe565b34801561038957600080fd5b5061018f610dbe565b34801561039e57600080fd5b5061018f610dd2565b3480156103b357600080fd5b506033546040516001600160a01b039091168152602001610166565b3480156103db57600080fd5b5061015a6103ea366004611723565b50600190565b3480156103fc57600080fd5b5061018f61040b366004611795565b610ee2565b34801561041c57600080fd5b50600161015a565b34801561043057600080fd5b5061018f61043f366004611723565b6110f8565b60015b949350505050565b336000908152600080516020611b90833981519152602081905260409091205460ff166104975760405162461bcd60e51b815260040161048e9061197b565b60405180910390fd5b33600090815260c96020908152604080832061ffff8616845290915290205460ff16156105065760405162461bcd60e51b815260206004820152601a60248201527f636f756e74727920616c72656164792072657374726963746564000000000000604482015260640161048e565b33600081815260c96020908152604080832061ffff871680855290835292819020805460ff19166001179055519182527f5e0addf626d7d7091ab7aebf34682c3203384648734760b24921e31ddcec0bb591015b60405180910390a25050565b336000908152600080516020611b90833981519152602081905260409091205460ff166105a55760405162461bcd60e51b815260040161048e9061197b565b600080516020611b908339815191526001600160a01b03831661060a5760405162461bcd60e51b815260206004820152601f60248201527f696e76616c696420617267756d656e74202d207a65726f206164647265737300604482015260640161048e565b336001600160a01b038416146106325760405162461bcd60e51b815260040161048e906119b2565b6001600160a01b038316600081815260208390526040808220805460ff19169055517f408b49d9be1c914c52a0227e18a077e5a892dddf32a26cfa94a5d9708fad77189190a2505050565b336000908152600080516020611b90833981519152602081905260409091205460ff166106bc5760405162461bcd60e51b815260040161048e9061197b565b60c382106107215760405162461bcd60e51b815260206004820152602c60248201527f6d6178696d756d203139352063616e20626520756e726573747269637465642060448201526b0d2dc40dedcca40c4c2e8c6d60a31b606482015260840161048e565b60005b828110156108905733600090815260c9602052604081209085858481811061074e5761074e6119f3565b90506020020160208101906107639190611708565b61ffff16815260208101919091526040016000205460ff1615156001146107c55760405162461bcd60e51b815260206004820152601660248201527518dbdd5b9d1c9e481b9bdd081c995cdd1c9a58dd195960521b604482015260640161048e565b33600090815260c960205260408120818686858181106107e7576107e76119f3565b90506020020160208101906107fc9190611708565b61ffff1681526020810191909152604001600020805460ff1916911515919091179055337ffb8bb575200aa114265a31c7d8ebeb4e395bd3cd9d0914c4bfa2a511d2011a7a858584818110610853576108536119f3565b90506020020160208101906108689190611708565b60405161ffff909116815260200160405180910390a28061088881611a09565b915050610724565b50505050565b336000908152600080516020611b90833981519152602081905260409091205460ff166108905760405162461bcd60e51b815260040161048e9061197b565b6001600160a01b037f000000000000000000000000000000000000000000000000000000000000000016300361091d5760405162461bcd60e51b815260040161048e90611a30565b7f00000000000000000000000000000000000000000000000000000000000000006001600160a01b0316610966600080516020611b49833981519152546001600160a01b031690565b6001600160a01b03161461098c5760405162461bcd60e51b815260040161048e90611a7c565b6109958161116e565b604080516000808252602082019092526109b191839190611176565b50565b336000908152600080516020611b90833981519152602081905260409091205460ff166109f35760405162461bcd60e51b815260040161048e9061197b565b505050565b600080516020611b908339815191526001600160a01b038216610a5d5760405162461bcd60e51b815260206004820152601f60248201527f696e76616c696420617267756d656e74202d207a65726f206164647265737300604482015260640161048e565b6001600160a01b03821660009081526020829052604090205460ff1615610ac65760405162461bcd60e51b815260206004820152601860248201527f636f6d706c69616e636520616c726561647920626f756e640000000000000000604482015260640161048e565b336001600160a01b03831614610aee5760405162461bcd60e51b815260040161048e906119b2565b6001600160a01b038216600081815260208390526040808220805460ff19166001179055517f1f7b76c58fb697eb53c6c7c1becb96911516a136e24d7ced386b2355358b75a39190a25050565b6001600160a01b037f0000000000000000000000000000000000000000000000000000000000000000163003610b835760405162461bcd60e51b815260040161048e90611a30565b7f00000000000000000000000000000000000000000000000000000000000000006001600160a01b0316610bcc600080516020611b49833981519152546001600160a01b031690565b6001600160a01b031614610bf25760405162461bcd60e51b815260040161048e90611a7c565b610bfb8261116e565b610c0782826001611176565b5050565b6000306001600160a01b037f00000000000000000000000000000000000000000000000000000000000000001614610cab5760405162461bcd60e51b815260206004820152603860248201527f555550535570677261646561626c653a206d757374206e6f742062652063616c60448201527f6c6564207468726f7567682064656c656761746563616c6c0000000000000000606482015260840161048e565b50600080516020611b4983398151915290565b336000908152600080516020611b90833981519152602081905260409091205460ff16610cfd5760405162461bcd60e51b815260040161048e9061197b565b33600090815260c96020908152604080832061ffff8616845290915290205460ff161515600114610d695760405162461bcd60e51b815260206004820152601660248201527518dbdd5b9d1c9e481b9bdd081c995cdd1c9a58dd195960521b604482015260640161048e565b33600081815260c96020908152604080832061ffff871680855290835292819020805460ff19169055519182527ffb8bb575200aa114265a31c7d8ebeb4e395bd3cd9d0914c4bfa2a511d2011a7a910161055a565b610dc66112e1565b610dd0600061133b565b565b600054610100900460ff1615808015610df25750600054600160ff909116105b80610e0c5750303b158015610e0c575060005460ff166001145b610e6f5760405162461bcd60e51b815260206004820152602e60248201527f496e697469616c697a61626c653a20636f6e747261637420697320616c72656160448201526d191e481a5b9a5d1a585b1a5e995960921b606482015260840161048e565b6000805460ff191660011790558015610e92576000805461ff0019166101001790555b610e9a61138d565b80156109b1576000805461ff0019169055604051600181527f7f26b83ff96e1f2b6a682f133852f6798a09c465da95921460cefb38474024989060200160405180910390a150565b336000908152600080516020611b90833981519152602081905260409091205460ff16610f215760405162461bcd60e51b815260040161048e9061197b565b60c38210610f845760405162461bcd60e51b815260206004820152602a60248201527f6d6178696d756d203139352063616e206265207265737472696374656420696e604482015269040dedcca40c4c2e8c6d60b31b606482015260840161048e565b60005b828110156108905733600090815260c96020526040812090858584818110610fb157610fb16119f3565b9050602002016020810190610fc69190611708565b61ffff16815260208101919091526040016000205460ff161561102b5760405162461bcd60e51b815260206004820152601a60248201527f636f756e74727920616c72656164792072657374726963746564000000000000604482015260640161048e565b33600090815260c96020526040812060019186868581811061104f5761104f6119f3565b90506020020160208101906110649190611708565b61ffff1681526020810191909152604001600020805460ff1916911515919091179055337f5e0addf626d7d7091ab7aebf34682c3203384648734760b24921e31ddcec0bb58585848181106110bb576110bb6119f3565b90506020020160208101906110d09190611708565b60405161ffff909116815260200160405180910390a2806110f081611a09565b915050610f87565b6111006112e1565b6001600160a01b0381166111655760405162461bcd60e51b815260206004820152602660248201527f4f776e61626c653a206e6577206f776e657220697320746865207a65726f206160448201526564647265737360d01b606482015260840161048e565b6109b18161133b565b6109b16112e1565b7f4910fdfa16fed3260ed0e7147f7cc6da11a60208b5b9406d12a635614ffd91435460ff16156111a9576109f3836113c4565b826001600160a01b03166352d1902d6040518163ffffffff1660e01b8152600401602060405180830381865afa925050508015611203575060408051601f3d908101601f1916820190925261120091810190611ac8565b60015b6112665760405162461bcd60e51b815260206004820152602e60248201527f45524331393637557067726164653a206e657720696d706c656d656e7461746960448201526d6f6e206973206e6f74205555505360901b606482015260840161048e565b600080516020611b4983398151915281146112d55760405162461bcd60e51b815260206004820152602960248201527f45524331393637557067726164653a20756e737570706f727465642070726f786044820152681a58589b195555525160ba1b606482015260840161048e565b506109f3838383611460565b6033546001600160a01b03163314610dd05760405162461bcd60e51b815260206004820181905260248201527f4f776e61626c653a2063616c6c6572206973206e6f7420746865206f776e6572604482015260640161048e565b603380546001600160a01b038381166001600160a01b0319831681179093556040519116919082907f8be0079c531659141344cd1fd0a4f28419497f9722a3daafe3b4186f6b6457e090600090a35050565b600054610100900460ff166113b45760405162461bcd60e51b815260040161048e90611ae1565b6113bc611485565b610dd06114b4565b6001600160a01b0381163b6114315760405162461bcd60e51b815260206004820152602d60248201527f455243313936373a206e657720696d706c656d656e746174696f6e206973206e60448201526c1bdd08184818dbdb9d1c9858dd609a1b606482015260840161048e565b600080516020611b4983398151915280546001600160a01b0319166001600160a01b0392909216919091179055565b611469836114db565b6000825111806114765750805b156109f357610890838361151b565b600054610100900460ff166114ac5760405162461bcd60e51b815260040161048e90611ae1565b610dd0611547565b600054610100900460ff16610dd05760405162461bcd60e51b815260040161048e90611ae1565b6114e4816113c4565b6040516001600160a01b038216907fbc7cd75a20ee27fd9adebab32041f755214dbc6bffa90cc0225b39da2e5c2d3b90600090a250565b60606115408383604051806060016040528060278152602001611b6960279139611577565b9392505050565b600054610100900460ff1661156e5760405162461bcd60e51b815260040161048e90611ae1565b610dd03361133b565b6060600080856001600160a01b0316856040516115949190611b2c565b600060405180830381855af49150503d80600081146115cf576040519150601f19603f3d011682016040523d82523d6000602084013e6115d4565b606091505b50915091506115e5868383876115ef565b9695505050505050565b6060831561165e578251600003611657576001600160a01b0385163b6116575760405162461bcd60e51b815260206004820152601d60248201527f416464726573733a2063616c6c20746f206e6f6e2d636f6e7472616374000000604482015260640161048e565b5081610447565b61044783838151156116735781518083602001fd5b8060405162461bcd60e51b815260040161048e9190611762565b80356001600160a01b03811681146116a457600080fd5b919050565b600080600080608085870312156116bf57600080fd5b6116c88561168d565b93506116d66020860161168d565b9250604085013591506116eb6060860161168d565b905092959194509250565b803561ffff811681146116a457600080fd5b60006020828403121561171a57600080fd5b611540826116f6565b60006020828403121561173557600080fd5b6115408261168d565b60005b83811015611759578181015183820152602001611741565b50506000910152565b602081526000825180602084015261178181604085016020870161173e565b601f01601f19169190910160400192915050565b600080602083850312156117a857600080fd5b823567ffffffffffffffff808211156117c057600080fd5b818501915085601f8301126117d457600080fd5b8135818111156117e357600080fd5b8660208260051b85010111156117f857600080fd5b60209290920196919550909350505050565b60008060006060848603121561181f57600080fd5b6118288461168d565b92506118366020850161168d565b9150604084013590509250925092565b6000806040838503121561185957600080fd5b6118628361168d565b9150611870602084016116f6565b90509250929050565b6000806040838503121561188c57600080fd5b6118958361168d565b946020939093013593505050565b634e487b7160e01b600052604160045260246000fd5b600080604083850312156118cc57600080fd5b6118d58361168d565b9150602083013567ffffffffffffffff808211156118f257600080fd5b818501915085601f83011261190657600080fd5b813581811115611918576119186118a3565b604051601f8201601f19908116603f01168101908382118183101715611940576119406118a3565b8160405282815288602084870101111561195957600080fd5b8260208601602083013760006020848301015280955050505050509250929050565b6020808252601e908201527f6f6e6c7920626f756e6420636f6d706c69616e63652063616e2063616c6c0000604082015260600190565b60208082526021908201527f6f6e6c7920636f6d706c69616e636520636f6e74726163742063616e2063616c6040820152601b60fa1b606082015260800190565b634e487b7160e01b600052603260045260246000fd5b600060018201611a2957634e487b7160e01b600052601160045260246000fd5b5060010190565b6020808252602c908201527f46756e6374696f6e206d7573742062652063616c6c6564207468726f7567682060408201526b19195b1959d85d1958d85b1b60a21b606082015260800190565b6020808252602c908201527f46756e6374696f6e206d7573742062652063616c6c6564207468726f7567682060408201526b6163746976652070726f787960a01b606082015260800190565b600060208284031215611ada57600080fd5b5051919050565b6020808252602b908201527f496e697469616c697a61626c653a20636f6e7472616374206973206e6f74206960408201526a6e697469616c697a696e6760a81b606082015260800190565b60008251611b3e81846020870161173e565b919091019291505056fe360894a13ba1a3210667c828492db98dca3e2076cc3735a920a3ca505d382bbc416464726573733a206c6f772d6c6576656c2064656c65676174652063616c6c206661696c6564f6cc97de1266c180cd39f3b311632644143ce7873d2927755382ad4b39e8ae00a2646970667358221220a1af227ca757571583454f8b52b8a04f768fccc501451a172074b6349a48e68164736f6c63430008110033",
  "linkReferences": {},
  "deployedLinkReferences": {}
}